:020000022000DC
:10600000000001203D6202009562020097620200DA
:10601000996202009B6202009D6202000000000083
:106020000000000000000000000000009F6202006D
:10603000A162020000000000A3620200A56202004B
:1060400069AC0200AB62020099B2020019B9020009
:1060500029BD0200B362020045B00200B76202002F
:1060600085BD02009DBD0200BD620200BF6202004C
:10607000C1620200C3620200C5620200C762020080
:10608000C962020009820200CD620200CF620200F2
:1060900031820200D36202007DEC0200D76202006E
:1060A000D9620200DB620200DD620200DF620200F0
:1060B0004DBE0200E3620200A7620200A762020076
:1060C000E562020061BE0200E9620200EB620200CA
:0C60D000ED62020071C20200F1620200E9
:1060DC00364937480A1A02D0072291438D46354972
:1060EC0035480A1A06D00722914381F30988022207
:1060FC0082F3148831483249324A00F045F832486C
:10610C003249334A00F040F832483349334A00F000
:10611C003BF833483349344A00F036F833483449B5
:10612C00344A00F031F834483449354A00F02CF840
:10613C0034483549354A00F027F8354835490022AE
:10614C0000F02DF834483549002200F028F8344886
:10615C003449091A082903DB00220260043001606B
:10616C00314A90471F482049884205D002680430C4
:10617C0003B4904703BCF7E700208646EC460020AA
:10618C0000212A4A9047FEE7884207D0521A05D0D0
:10619C00037801300B700131013AF9D17047884214
:1061AC0002D002700130FAE77047000000000120B5
:1061BC0000E000200000012000000120F44E03004C
:1061CC00242B0020A82B0020F4620200F4620200B1
:1061DC007C1F0300F44E0300242B0020242B0020F2
:1061EC006421030064210300642103006421030083
:1061FC006421030064210300642103006421030073
:10620C00F44E0300784F0300A82B0020A82B00208D
:10621C00A82B0020103F0020103F0020103F002032
:10622C00103F0020105F0020616202003DD0020090
:10623C000F484FF00701884385460E4880470E48AB
:10624C00016841F470010160BFF34F8FBFF36F8F92
:10625C00FFF73EBF09480A490A4A884207D0521A3A
:10626C0005D0037801300B700131013AF9D1704738
:10627C00000001201577020088ED00E0F8200300F3
:10628C00B82A0020242B0020FEE7FEE7FEE7FEE7FD
:10629C00FEE7FEE7FEE7FEE7FEE7FEE7FEE7FEE7CA
:1062AC00FEE7FEE7FEE7FEE7FEE7FEE7FEE7FEE7BA
:1062BC00FEE7FEE7FEE7FEE7FEE7FEE7FEE7FEE7AA
:1062CC00FEE7FEE7FEE7FEE7FEE7FEE7FEE7FEE79A
:1062DC00FEE7FEE7FEE7FEE7FEE7FEE7FEE7FEE78A
:0862EC00FEE7FEE7FEE700BF3C
:1062F4007047704700B583B0044B00934023044AB1
:1063040000F036F803B05DF804FB00BF1963020027
:10631400AC2B002012B3F8B50F4614460326002513
:1063240003E001220E4B1A70BCB1224679190020F9
:1063340006F0B2FF0544241A0028F2D1084B1B785A
:106344005BB14FF47A40074B43F001039847013E99
:10635400E7D10022024B1A70F8BDF8BD704700BFA8
:10636400A82B00207021030008B506F0CDFF08BD5E
:10637400F0B595B00F4615461C46084604F0B5F92D
:106384000E950F94002410948DF8444012941A9B97
:1063940013932346082208A9384604F0C1F90A9B3E
:1063A4000B93BDF82430ADF83030BDF82630ADF88D
:1063B40032308DF835409DF8203003F00303012B73
:1063C40006D0022B21D0384604F095F915B0F0BD63
:1063D400089DC5F395259DF82030C3F3C2038DF8BD
:1063E4003430BDF82040C4F383140823A2000DEB1D
:1063F4000301384604F094F90EAB00930BAB22462C
:1064040002A9284600F04CFFDDE7BDF82250C5F391
:1064140089159DF82030C3F3C2038DF83430082663
:106424002C46082D28BF08243346224602A93846A4
:1064340004F076F926442D1B0EAB0BAA214602A8C4
:1064440000F092FF002DEBD1BDE7000008B5FFF787
:106454008BFF0421064800F095FE002803DB01228F
:10646400034B5A7208BD0349412006F06DFDF6E75F
:10647400242B002084210300002002E0012383B99F
:10648400013009280BDC074BD3F81034002BF5D06E
:106494001A7A904201D05B68F8E70023EFE74FF0E7
:1064A400FF307047BC2C002008B5037813F0030FAD
:1064B40002D013F0040F2FD013F0040F1FD0037871
:1064C40003F00303012B08D0022B0FD013494FF420
:1064D400A47006F039FD012008BD0388C3F38313BB
:1064E4000A68134402330B60012008BD4388C3F3D8
:1064F40089130A68134402330B60012008BD4388E2
:10650400C3F389130288C2F3891213440A6813443B
:1065140001330B60012008BD002008BD20220300C8
:1065240030B585B02D4C04F5836003F0A8F904F26E
:10653400144003F0A4F960680390A5682840023071
:1065440004EB8000043003A9FFF7AEFF002832D02B
:1065540003982840831C214800EB83000430F2E7B1
:10656400039B591C03912B4002331C4901EB830309
:106574005B684DF822300132012AF1D99DF80030D0
:1065840003F00303012B18D0022B20D1BDF80640E1
:10659400BDF80230C3F389130333039A02EB930368
:1065A40003930F4803F070F910B1039A0B4B5A6030
:1065B400204605B030BD0022DEE7BDF80640BDF838
:1065C4000030C3F38312039B13440393E9E70549A3
:1065D4004FF4C27006F0B8FC0024E2E7BC2C0020A3
:1065E400D03000202022030010B50F4BFF229A6008
:1065F40000221A605A60C3F81824C3F8142483F8DC
:1066040020240A4804F024F8044658B9084B0949E0
:10661400C91AC908002303E0074A22F823300133CA
:106624008B42F9D3204610BDBC2C0020B0200300BF
:1066340000200300B0200300B82A0020024B0348C6
:10664400C01AC008704700BF00200300B020030038
:10665400A1B110B50446FFF7F1FF002383420BD22A
:10666400074A02EB830251882268914201D0013328
:10667400F4E72360002010BD052010BD0020704702
:10668400B82A002000B583B002AB43F8040D1846C5
:10669400FFF7DEFF30B9044B019A53F8320003B020
:1066A4005DF804FB0020FAE700200300094B03EB2C
:1066B400C0000139032909D8DFE801F0020A040601
:1066C4000220704700797047407970470020704776
:1066D4000420704700200300384B93F82034002B2B
:1066E4006AD1002868D02DE9F04F83B08246334C3C
:1066F400D4F808800BF010FC00F1010B043085087D
:106704006F1C02A8002300F8013D01F01DFED4F81F
:106714000090A6686368A3EB09033344013326EAB7
:106724000906721C1946934228BF114693423ED96A
:106734009B1A8F4201D99D423BD88F4200D8002634
:106744001E4B1A68B01801309C682040023003EBDD
:106754008000041D374417441F609DF8070001F0B2
:1067640025FE04B308EA090808F10208134B03EBF9
:1067740088080021C8F804104FF0000261F30102F8
:1067840088F80420B8F8042066F38F12A8F80420CF
:10679400B8F8062065F38F12A8F806205A46514629
:1067A40020460BF039FB204603B0BDE8F08F0023F0
:1067B400BFE700263446D0E7704700BFBC2C00205A
:1067C400034B58681B68984214BF0020012070478F
:1067D400BC2C00202DE9F04186B0FFF7F1FF002822
:1067E40040F01C81054690480023C0F81834BFF3DC
:1067F4004F8F4368059384682340023300EB830082
:10680400043005A9FFF750FE002835D0864B1A68DE
:10681400059B9A4206D923400233834800EB830345
:10682400181DEEE7804B5A60F9E0059B591C059151
:10683400234002337C4901EB8303596802AB43F8DC
:1068440022100132012AF0D99DF8083003F0030325
:10685400022B13D0012B71D00025002D00F0CA802B
:10686400714BD3F81044D3F81834002B00F09E80F9
:10687400284603F040FFB7E00022E3E7BDF80A3002
:10688400C3F389163746502EA8BF502767F38F13DA
:10689400ADF80A3007F10801644803F0F4FE054638
:1068A4000028DAD003F021FF002308220DEB0201B7
:1068B400284603F02DFF059A24EA020301339B00C6
:1068C4009F422ED933B122400232574901EB820252
:1068D400111D00E056494BB1DCB24BB1DFF85081D9
:1068E4004BB1FFB2DBB2FB1ADFB205E0FCB2F4E756
:1068F4004FF00008F4E7002708232246284603F057
:1069040007FF04F10803B8F1000F04D03A464146EA
:10691400284603F0FDFE0336059B03EB9606059619
:106924009BE704EA020302333F4901EB8301082396
:106934003A460431284603F0EBFEECE7BDF80820A4
:10694400C2F38313062B28BF062363F38912ADF821
:10695400082002339900354803F095FE05460028C7
:106964003FF47BAF03F0C1FE002308220DEB0201CC
:10697400284603F0CDFE002608270FE0059B5A1C8D
:10698400059223400233284901EB83013B4604224C
:106994001144284603F0BCFE04370136BDF8083024
:1069A400C3F383139E42E9D357E7646844B1637A1F
:1069B400002BFAD023681B68294620469847F4E741
:1069C400284603F098FE06A8002300F8113D01F0C4
:1069D400BBFC154BD3F8183413B9059A124B5A6003
:1069E4009DF8070001F0E2FCFFF7EAFE80F00100E9
:1069F400C5B214E00C4BD3F8104404E023689B6840
:106A0400204698476468002CF8D10A4B1888000483
:106A1400094940F0020000F011F8E5E70025284696
:106A240006B0BDE8F08100BFBC2C0020B0200300FC
:106A3400C82C0020DC2A0020B42203002DE9F047F2
:106A440082B006468A46DFF8FC80D8F8084002A8DF
:106A5400002300F8013D01F077FCD8F80050D8F885
:106A64000830D8F80420521B1344013312E0354F88
:106A740007F21C490121484602F0E2FEFFF750FDEF
:106A84000146484602F0DCFEBB687A683968521A4F
:106A940013440133012BEAD90022012363F30102D9
:106AA40042F004026FF38912DFF89880D8F80010DE
:106AB400D8F808300B40023308EB83035A600231E4
:106AC400C8F800109DF8070001F070FC4FEA164961
:106AD400002108F21C4002F066FE80F31008FFF764
:106AE400ADFD814528D26B1C234049EA0841154A73
:106AF400023302EB830359602C40023402EB84041A
:106B0400237966F3C5032371A3886FF38913A380E4
:106B140063686AF39F236360012161F301036FF3E8
:106B24008203237192F820341BB1FFF753FE00282F
:106B3400FBD102B0BDE8F087034940F2A91006F08A
:106B440003FAD0E7BC2C0020202203002DE9F04FEB
:106B540085B08346019192464D4CA76802F1030922
:106B64004FEA990909F1020604A8002300F8013D3F
:106B740001F0EAFBD4F80080A3686268A2EB080283
:106B84001344013312E0424C04F21C45012128460F
:106B940002F056FEFFF7C4FC0146284602F050FE00
:106BA400A36862682168521A134401339E42EAD8EA
:106BB4000022022363F3010242F0040269F39F52AC
:106BC400334C2168A3680B40023304EB83035A60FF
:106BD4000E4426609DF80F0001F0E8FB08F1020363
:106BE400A4683B40E41A0134A400A2453CD8023313
:106BF400274800EB83005246019904300BF00CF94E
:106C04004FEA1B45224C002104F21C4002F0CBFD4C
:106C140080F3100008F101033B4045EA00450233CC
:106C240004EB83035D6007EA0807023704EB870778
:106C34003B796BF3C5033B71BB886FF38F13BB8048
:106C4400F9886AF38F11F980022262F301036FF36A
:106C540082033B7194F820341BB1FFF7BBFD00287D
:106C6400FBD105B0BDE8F08F094D023305EB83007D
:106C74002246019E314604300BF0CEF8AAEB040202
:106C840033462344194605F10C000BF0C5F8B7E769
:106C9400BC2C00202DE9F04782B006468A460192BA
:106CA400DFF81881D8F8084002A8002300F8053D51
:106CB40001F04AFBD8F80050D8F80830D8F804207E
:106CC400521B1344013312E03C4F07F21C490121CB
:106CD400484602F0B5FDFFF723FC0146484602F0A2
:106CE400AFFDBB687A683968521A13440133022B2A
:106CF400EAD90022012363F3010242F0040263F3A0
:106D040089122E4908688B680340023301EB830320
:106D14005A60033008609DF8030001F047FBA81C8B
:106D240000230DE004EA000202A901EB830151F8FB
:106D3400047C911C214A02EB81025760013301302B
:106D4400002BEFD04FEA164800211D4802F02BFD1E
:106D540080F31009FFF772FC804528D26B1C234096
:106D640048EA0941154A023302EB830359602C4077
:106D7400023402EB8404237966F3C5032371A388E8
:106D8400012161F38913A38063686AF39F2363601D
:106D940061F301036FF38203237192F820341BB172
:106DA400FFF718FD0028FBD102B0BDE8F0870549C4
:106DB40040F2A91006F0C8F8D0E700BFBC2C0020B0
:106DC400D8300020202203002DE9F04784B0064685
:106DD4008A4602920393DFF81C81D8F8084004A87D
:106DE400002300F8093D01F0AFFAD8F80050D8F8B4
:106DF4000830D8F80420521B1344013312E03D4FED
:106E040007F21C490121484602F01AFDFFF788FBEE
:106E14000146484602F014FDBB687A683968521A84
:106E240013440133032BEAD90022012363F3010243
:106E340042F00402022363F389122E4908688B6826
:106E44000340023301EB83035A60043008609DF869
:106E5400070001F0ABFAA81C00230DE004EA0002CD
:106E640004A901EB830151F8087C911C214A02EB2F
:106E74008102576001330130012BEFD94FEA1648E4
:106E840000211D4802F08FFC80F31009FFF7D6FBA8
:106E9400804529D26B1C234048EA0941154A023334
:106EA40002EB830359602C40023402EB84042379FF
:106EB40066F3C5032371A388022161F38913A380B8
:106EC40063686AF39F236360012161F301036FF335
:106ED4008203237192F820341BB1FFF77BFC002856
:106EE400FBD104B0BDE8F087044940F2A91006F0D4
:106EF4002BF8CFE7BC2C0020D83000202022030040
:106F04002DE9F04784B006468A46019202930C9B11
:106F14000393DFF81C81D8F8084004A8002300F884
:106F24000D3D01F011FAD8F80050D8F80830D8F81F
:106F34000420521B1344013312E03D4F07F21C4955
:106F44000121484602F07CFCFFF7EAFA0146484674
:106F540002F076FCBB687A683968521A134401332C
:106F6400042BEAD90022012363F3010242F0040254
:106F7400032363F389122E4908688B6803400233A4
:106F840001EB83035A60053008609DF8030001F0AB
:106F94000DFAA81C00230DE004EA000204A901EB89
:106FA400830151F80C7C911C214A02EB8102576049
:106FB40001330130022BEFD94FEA164800211D4856
:106FC40002F0F1FB80F31009FFF738FB804529D26A
:106FD4006B1C234048EA0941154A023302EB830340
:106FE40059602C40023402EB8404237966F3C50310
:106FF4002371A388032161F38913A38063686AF36F
:107004009F236360012161F301036FF38203237102
:1070140092F820341BB1FFF7DDFB0028FBD104B04C
:10702400BDE8F087044940F2A91005F08DFFCFE7D1
:10703400BC2C0020D8300020202203002DE9F0478A
:1070440088B006468A4602920393109B0493119BD0
:107054000593129B0693139B0793DFF81C81D8F8C2
:10706400084008A8002300F8193D01F06DF9D8F88C
:107074000050D8F80830D8F80420521B13440133C8
:1070840012E03D4F07F21C490121484602F0D8FBAB
:10709400FFF746FA0146484602F0D2FBBB687A681D
:1070A4003968521A13440133072BEAD90022012309
:1070B40063F3010242F00402062363F389122E49AA
:1070C40008688B680340023301EB83035A6008307D
:1070D40008609DF8070001F069F9A81C00230DE081
:1070E40004EA000208A901EB830151F8187C911C01
:1070F400214A02EB8102576001330130052BEFD99D
:107104004FEA164800211D4802F04DFB80F3100998
:10711400FFF794FA804529D26B1C234048EA0941C1
:10712400154A023302EB830359602C40023402EB0C
:107134008404237966F3C5032371A388062161F3CC
:107144008913A38063686AF39F236360012161F359
:1071540001036FF38203237192F820341BB1FFF70C
:1071640039FB0028FBD108B0BDE8F087044940F2A0
:10717400A91005F0E9FECFE7BC2C0020D830002090
:107184002022030010B50446FFF776F9B0F1FF3F63
:107194000AD02072084BD3F8103433B15B686360B3
:1071A400054BD3F810345C6010BD034BC3F8104496
:1071B4000023636010BD00BFBC2C002010B5084B39
:1071C400D3F81044012283F8202406E001236372DB
:1071D40023685B68204698476468002CF6D110BD8C
:1071E400BC2C002070B582B004460D46C388A3B9F8
:1071F400217A05290FD0637ABBB9227A104B53F850
:1072040022600021A088FFF73DFA034632460D496B
:10721400284602F015FC02B070BD0B4A00920B4ADE
:107224000B49284602F00CFCE2E7A088FFF73EFA7F
:10723400084B53F820200849284602F001FCDCE7FB
:1072440054230300482303003C2303001C230300AE
:1072540024230300E02203004423030010B50C465A
:10726400037A052B0FD0437A3BB90A49204602F032
:10727400E7FB204602F0D0FB10BD074A0749204631
:1072840002F0DEFBF1E7002AF3D00249204602F0C7
:10729400D7FBEEE7182303003C2303004423030039
:1072A4002DE9F04385B081460D4617461E460C9CD9
:1072B40094F80C800023237321463046FFF792FF95
:1072C400062F09D8DFE807F00412181F28334000FE
:1072D4004946204602F0B4FB002221463046FFF71F
:1072E400BDFF84F80C8005B0BDE8F0832A684946E8
:1072F400204602F0A5FBEFE76B682A684946204662
:1073040002F09EFBE8E76B682A68A9680091494689
:10731400204602F095FBDFE76B682A68E968019173
:10732400A96800914946204602F08AFBD4E76B68BD
:107334002A6829690291E9680191A968009149467E
:10734400204602F07DFBC7E76B682A6869690391F0
:1073540029690291E9680191A9680091494620468A
:1073640002F06EFBB8E70000082900D970472DE948
:10737400F0471D4690460E46074693F80C900024AD
:107384001C7319461046FFF72DFF04E01B492846DD
:1073940002F056FB0134072C07D8B442F6D23A5D0A
:1073A4001749284602F04CFBF4E71649284602F038
:1073B40047FB002405E052461349284602F040FBEF
:1073C4000134072C10D8B44209D217F804A050464F
:1073D4000AF01CFD0028EED14FF02E0AEBE70B4912
:1073E400284602F02DFBEBE7012229464046FFF731
:1073F40035FF85F80C90BDE8F08700BF0C2303002F
:107404000423030010230300142303005023030068
:10741400BFF34F8F0549CA6802F4E062044B13437B
:10742400CB60BFF34F8F00BFFDE700BF00ED00E06E
:107434000400FA050F4B1B78062B01D0002070477F
:107444000D4B1B6813F00F0F0BD10C4B1B6803F093
:10745400F003302B07D0402B07D0502B07D000204F
:1074640070470020704701207047012070470120B9
:10747400704700BFE00F00F0E40F00F0E80F00F0E9
:107484000B4B1B78062B01D000207047094B1B685F
:1074940013F00F0F07D1084B1B6803F0F003302BD8
:1074A40003D000207047002070470120704700BFC0
:1074B400E00F00F0E40F00F0E80F00F00F4B1B7832
:1074C400062B01D0002070470D4B1B6813F00F0FE3
:1074D4000BD10C4B1B6803F0F003302B07D0402B6F
:1074E40007D0502B07D000207047002070470120A0
:1074F4007047012070470120704700BFE00F00F083
:10750400E40F00F0E80F00F00B4B1B78062B01D0C2
:1075140000207047094B1B6813F00F0F07D1084B6D
:107524001B6803F0F003302B03D0002070470020C9
:1075340070470120704700BFE00F00F0E40F00F037
:10754400E80F00F00F4B1B78062B01D0002070478A
:107554000D4B1B6813F00F0F0BD10C4B1B6803F082
:10756400F003302B07D0402B07D0502B07D000203E
:1075740070470020704701207047012070470120A8
:10758400704700BFE00F00F0E40F00F0E80F00F0D8
:107594000B4B1B78062B01D000207047094B1B684E
:1075A40013F00F0F07D1084B1B6803F0F003302BC7
:1075B40003D000207047002070470120704700BFAF
:1075C400E00F00F0E40F00F0E80F00F00B4B1B7825
:1075D400062B01D000207047094B1B6813F00F0FD6
:1075E40007D1084B1B6803F0F003302B03D00020B5
:1075F4007047002070470120704700BFE00F00F083
:10760400E40F00F0E80F00F00B4B1B78062B01D0C1
:1076140000207047094B1B6813F00F0F07D1084B6C
:107624001B6803F0F003502B03D0002070470020A8
:1076340070470120704700BFE00F00F0E40F00F036
:10764400E80F00F00F4B1B78062B01D00020704789
:107654000D4B1B6813F00F0F0BD10C4B1B6803F081
:10766400F003302B07D0402B07D0502B07D000203D
:1076740070470020704701207047012070470120A7
:10768400704700BFE00F00F0E40F00F0E80F00F0D7
:107694000F4B1B78062B01D0002070470D4B1B6845
:1076A40013F00F0F0BD10C4B1B6803F0F003302BBE
:1076B40007D0402B07D0502B07D000207047002064
:1076C400704701207047012070470120704700BFB8
:1076D400E00F00F0E40F00F0E80F00F0064B1B6829
:1076E400062B01D000207047044B1B68062B01D0E9
:1076F4000020704701207047300100103401001051
:10770400014A024B1A6070470090D003302B0020CE
:1077140008B5FFF78FFE28B1894B1B68C3F3042318
:10772400884A1360FFF7ACFE10B1874A874B1A6092
:10773400FFF7C4FE28B1864B1B68C3F34233854A66
:107744001360FFF7E1FE20B1834AD36823F080730E
:10775400D360FFF7F7FE40B14FF080430022C3F837
:107764000C21C3F81021C3F83825FFF711FF10B11D
:1077740003227A4B1A60FFF729FF58B10522784B90
:107784001A60012278331A600022703B1A603F228B
:10779400043B1A60FFF738FF002846D04FF08052B0
:1077A400D2F804146F4BC3F82015D2F80814C3F8A8
:1077B4002415D2F80C14C3F82815D2F81014C3F801
:1077C4002C15D2F81414C3F83015D2F81814C3F8D1
:1077D4003415D2F81C14C3F84015D2F82014C3F899
:1077E4004415D2F82414C3F84815D2F82814C3F861
:1077F4004C15D2F82C14C3F85015D2F83014C3F831
:107804005415D2F83414C3F86015D2F83814C3F8F8
:107814006415D2F83C14C3F86815D2F84014C3F8C0
:107824006C15D2F84424C3F87025FFF70BFF28B178
:107834004D4B1B6803F04F034C4A1360FFF728FFBE
:1078440060B14FF08043D3F8003413F0010F05D03A
:107854006FF001024FF08043C3F80024FFF73EFFAE
:1078640020B1434A136843F480631360414AD2F859
:10787400883043F47003C2F88830BFF34F8FBFF3EE
:107884006F8F4FF01023D3F80C3213F0010F0ED189
:107894004FF01023D3F80032002B29DB4FF01023D4
:1078A400D3F80432002B23DBFFF72AFF08BD0122A3
:1078B400314BC3F80425304BD3F80034002BFAD0F5
:1078C4004FF01022D2F80C3223F00103C2F80C322C
:1078D400294BD3F80034002BFAD00022264BC3F8EE
:1078E4000425254BD3F80034002BFAD0FFF790FD84
:1078F4000122214BC3F804251F4BD3F80034002B7D
:10790400FAD015224FF01023C3F800221A4BD3F8F3
:107914000034002BFAD015224FF01023C3F80422B0
:10792400154BD3F80034002BFAD00022124BC3F8C5
:107934000425114BD3F80034002BFAD0FFF768FD6F
:1079440024030010403501400DF0ADBA74C0074067
:10795400440200103C050040F0ED00E0A0050040AA
:107964001056004000C0004058020010E40E0040D1
:107974003C17004000ED00E000E001402DE9F04F2D
:1079840083B0002401E00134E4B2354B1B789C42FF
:1079940062D2344B1D6805EBC403009315F834E040
:1079A4000123AEF12001CEF1200203FA01F723FAFC
:1079B40002F2174303FA0EF62B4BD3E9002306EA2F
:1079C400020007EA03010143DDD022EA060223EAAA
:1079D40007032549C1E90023704603F013FB019016
:1079E40015F834E00123AEF12001CEF1200203FAB0
:1079F40001FB23FA02F24BEA020B03FA0EFA1B4BC9
:107A0400D3E9002302EA0A0203EA0B03C0B2AEF18F
:107A1400200CCEF120014FF0000900FA0CFC49EAD9
:107A24000C0920FA01F149EA010900FA0EF84B4564
:107A340008BF4245A7D1009A5178012914BF0021FB
:107A44000121019B8B4214BF002101215368002BAB
:107A540099D07046984796E703B0BDE8F08F00BF11
:107A6400E0300020183100201031002008310020BF
:107A740070B506460123A0F12001C0F1200203FAEB
:107A840001F523FA02F2154303FA00F41B4800F04F
:107A940035FC78B91A4BD3E9002304EA020005EA5D
:107AA4000301014307D022EA040423EA0505144B29
:107AB400C3E9004570BD304603F0A4FAA0B11149F2
:107AC400D1E9002322432B43C1E900230C49D1E926
:107AD400002314431D43C1E9004500220A4B1968E1
:107AE400064800F0EDFB70BD0649D1E9002322EA07
:107AF400040223EA0503C1E90023E7E7E830002094
:107B04001031002008310020E4300020042A02D87B
:107B140007231846704770B582B006460D461446D2
:107B240003F050F928B31A4B1E601A4B1D701A4B00
:107B34001C60002200231949C1E900231849C1E946
:107B440000236C1EE4B2D5B106EBC40300228DF809
:107B5400062003228DF804209B788DF80530114A05
:107B640001A916F8340003F037F9034668B925462D
:107B7400E7E703F0E5F803460028D4D005E00A4A15
:107B840000210A4800F086FB0346184602B070BD87
:107B940018310020E0300020E430002008310020BB
:107BA40010310020757A020081790200402403001C
:107BB40010B50C4B1B680BB100240CE00A49BA2029
:107BC40005F0C2F9F8E7074B1B68012113F83400EC
:107BD40003F08CF90134054B1B789C42F3D300204D
:107BE40010BD00BF18310020C0230300E030002086
:107BF40082B001238DF807309DF80730134B1860CD
:107C040059609A6044F20103984213D044F202038B
:107C1400984207D10D4BDA60DA6812889A61DA6803
:107C24005268DA6172B69DF80730002BFBD162B658
:107C340002B07047054B1A611A6992685A611A6951
:107C440012689A611A695268DA61EBE71C31002004
:107C540000B583B002900091019244F20100714694
:107C64006A4605F02BF903B000BD0000034BC3F8CE
:107C74000805E022024B83F81123704700100140ED
:107C840000E100E010B50B4B4FF48032C3F84423FD
:107C9400C3F80423084A4FF40031C2F8801111607C
:107CA40001241C604FF43C60044B23439847044B6D
:107CB4001C7010BD0010014000E100E050240300DE
:107CC4003933002070B54FF400320D4BC3F88020D7
:107CD4000C4D4FF48033C5F84833C5F808330126FA
:107CE4006E60094C34434FF43C60A047AE600025FD
:107CF400064B1D604FF43C60A047054B1D7070BDE2
:107D040000E100E00010014050240300483300204B
:107D14003933002010B4114B1C682CB1026823685D
:107D24009A4203D923460AE0186013E09A1A2260A3
:107D3400C4610A4B18600DE0521A1C46DB6913B18A
:107D440019688A42F8D813B11968891A196002604F
:107D5400C361E0615DF8044B704700BF4C33002001
:107D640070B5184B1E683446354624B1844202D09F
:107D74002546E469F9E714B3A5420CD02168E36908
:107D8400EB6113B11A680A441A600E4B1868801B21
:107D940018BF012070BDF3690A4A1360002BEDD1AE
:107DA4000123094A93600021084A1160084A1370AC
:107DB4004FF43C60074B43F001039847DEE7002093
:107DC40070BD00BF4C330020001001404833002038
:107DD40038330020502403004FF40032014BC3F821
:107DE4000021704700E100E04FF48012014BC3F81A
:107DF4000021704700E100E008B5436980699847B5
:107E040008BD00001B4B1868002832D070B51A4B0F
:107E1400D3F80445194B1B68E41A24F07F44002569
:107E240000E0304668B103689C420AD3E41A1D445A
:107E3400C669037C002BF4D000230374FFF7DCFF36
:107E4400EFE70F4B1A780F4B1B789A4207D00D4B74
:107E54001A780D4B43F82250FFF7C6FF70BD01336B
:107E6400DBB2084A1370022BF1D10022054B1A70C1
:107E7400EDE770474C3300200010014048330020E8
:107E840044330020453300203C330020104B1B7842
:107E9400104A1278934217D00133DBB20C4A1370A4
:107EA400022B0DD00A4B1A780B4B53F82230036087
:107EB4000A4A11680B4423F07F4313600120704782
:107EC4000022034B1A70EDE7002303601846704745
:107ED40044330020453300203C3300204833002045
:107EE40070B400250E4B1B68BBB11C68A04212D3B2
:107EF400001B254400241C60DE69094C2660DC68F4
:107F0400002CEFD06E1826F07F465E609C601468EB
:107F1400DC611360E6E7241A1C6070BC704700BF84
:107F24004C330020F8B50546414B1F68002659E044
:107F3400404A11784B1CDBB213709278934228D0DC
:107F44004A000A44D0003B4B03449C681B79022B33
:107F540023D0032B30D0012B44D1237C002B41D1DF
:107F6400DFF8D0E04A005018C3007344D86860605A
:107F74001869A0605B69E3601144CB009E44DEF89D
:107F84001830A3612C4B1B78002B30D00023636086
:107F94002DE00022274B1A70D2E72046FFF7E0FEBF
:107FA400034600B93346002222741E461AE000221A
:107FB4001A74DA691E4B1A601D4B1B68002BF6D12C
:107FC40010E0521A22F07F42A36893421CD99A1AF5
:107FD400226000236360A36001222274E3612046CF
:107FE400FFF798FE9DB1002DA2D02C46ED69616883
:107FF400124B1A688B1A23F07F4311488342E0D84E
:10800400A26813442360E4E700232360E1E7094BFB
:108014001A785B789A42E6D12EB9054B1B689F42C9
:1080240003D00120F8BD0120F8BD0020F8BD00BF39
:108034004C3300203C3100203833002048330020EA
:10804400FEFF7F00F8B51B4B1B6803B31F681A4B78
:10805400D3F80455194B1C682E1B26F07F460336B3
:10806400174B1B78A3B1B7422CBFE419A41924F011
:108074007F44114BC3F84045D3F804355B1B23F010
:108084007F430333641B24F07F44A34203D8F8BD29
:10809400FFF7F8FDE7E7084BD3F80425C3F84025BC
:1080A4004FF43C60074B43F001039847FFF794FEFD
:1080B400EDE700BF4C33002000100140483300209E
:1080C400393300205024030070B582B0002301939B
:1080D4000F4B1E680F4B1D686846FFF7D7FE04461A
:1080E40058B90198FFF71EFF034600B9234653B958
:1080F4000022094B1A7002B070BD01AA31460098E3
:10810400FFF7EEFEEDE72846FFF79CFFF0E700BF20
:10811400483300204C33002038330020014B587082
:10812400704700BF3C3100200B4A53780133DBB267
:10813400927893420CD0084A127893420AD0037082
:108144000548437803EB4303DA00104404307047D6
:108154000023F0E7002070473C310020F0B583B0E5
:1081640007460E4615461C4602A8002300F8023DA9
:1081740000F0EAF80DF10700FFF7D6FFB0B10122D5
:10818400027047600C4AD2F804258260C66005611B
:1081940044619DF80700FFF7C1FF00249DF8060025
:1081A40000F004F924B1204603B0F0BD0424F5E73F
:1081B400FFF71AFEF7E700BF0010014030B583B0A7
:1081C40004460D4602A8002300F8023D00F0BCF866
:1081D4000DF10700FFF7A8FF70B1057044609DF82A
:1081E4000700FFF79BFF00249DF8060000F0DEF86F
:1081F40024B1204603B030BD0424F5E7FFF7F4FDB5
:10820400F7E7000008B5084B0022C3F84021C3F883
:108214004421C3F84821C3F84C21C3F80021C3F812
:108224000421FFF7EFFD08BD0010014008B5FFF77A
:108234004BFF08BD10B5FFF745FD0F4B00241C7024
:108244005C7015229A700D4B1C600D4B1C700D4B0D
:108254001C700D4B4FF48012C3F88021E02183F889
:1082640014131A602046FFF701FD084BD3F80425C8
:10827400074B1A60204610BD3C3100204C330020CF
:10828400443300204533002000E100E000100140A9
:1082940048330020094B9B780BB9082070474AB13A
:1082A40050B10368187C08B10820704718745974D9
:1082B4005A61704707207047072070473C310020FF
:1082C40010B50D4CA4780CB9082010BD80B1042958
:1082D40001D8072010BD436963B1437C012B05D04D
:1082E400002413462246FFF739FF10BD0C46F8E779
:1082F400082010BD082010BD3C31002008B5094BF2
:108304009B780BB9082008BD38B143693BB1002301
:1083140003740221FFF752FF08BD082008BD08209E
:1083240008BD00BF3C310020EFF30583C3F308030D
:108334003BB9EFF3148313F0010F0CBF01200020AD
:10834400704701207047000038B50446FFF7ECFF82
:10835400012803D01149432004F0F6FDEFF3108205
:1083640072B60F4B9B68B3B90D4901238B600D4B5B
:10837400D3F880000C4D28400860C3F88050D3F82F
:10838400840048604FF0FF31C3F884100023237049
:1083940002B962B638BD01232370F9E758240300FB
:1083A4005033002000E100E0FC06FFBD10B5044698
:1083B400FFF7BAFF012803D00A49512004F0C4FD95
:1083C400094B9B686BB164B9EFF3108372B6064A2C
:1083D400106806490860506848600021916003B93C
:1083E40062B610BD582403005033002000E100E0C1
:1083F40038B50546002400E00134072C07D8044BA7
:1084040053F82430002BF7D028469847F4E738BDBA
:10841400683300200378013B052B34D8DFE803F0F0
:1084240003061120293100230B70704701230B70C0
:1084340003898B818388CB81C3688B6000230B7491
:10844400704702230B7003898B818388CB81C368B7
:108454008B60837D062B14BF002301230B747047AC
:1084640003230B70C3888B810389CB81C3688B6022
:10847400704704230B70C3888B810023CB818B60EE
:10848400704705230B707047884207D20368B3F125
:10849400FF3F01D001207047002070470020704743
:1084A4004388033300EB8300704738B505460C4618
:1084B400FFF7F6FF844201D2022038BDAA884FF6A6
:1084C400FF739A4205D02B880BB1002038BD0120E0
:1084D40038BD012038BD000070B10A4AD26890420C
:1084E4000CD3084A126990420AD810F0030F01D045
:1084F400002070470120704700207047002070471B
:1085040000207047102B002080B10168094A914275
:1085140001D0032070474368074A934208D00132D0
:10852400934201D101207047032070470320704714
:1085340000207047DEC0ADDEFE011EF10023B3F55E
:10854400806F06D250F82320B2F1FF3F03D10133EC
:10855400F5E70120704700207047000030B40A4C52
:1085640082001518AB001D4623441B8919442C4472
:10857400608910FA81F080B2B0F5806F2CBF0020C2
:10858400012030BC704700BFAC3300200023042B13
:1085940018D810B403E001339BB2042B0ED803EBBC
:1085A40083029400084A224452688A42F3D202F5B4
:1085B40080529142EFD20380002000E00A205DF84F
:1085C400044B70470A207047AC330020F8B50E46C0
:1085D400174600F5805502230B8000F108040DE0D6
:1085E4000FB101223A70022B1CD0638832881344E5
:1085F400033333802046FFF753FF044629462046C1
:10860400FFF742FF90B129462046FFF74EFF03468D
:108614000028E5D1A368064A12689342E5D9044AC2
:108624001360E2E74FF480633380F8BDF8BD00BF08
:10863400A43300208B7D022B04D9CB8802891344F8
:1086440003330381CA8843899B1A033B43817047E0
:10865400F8B5033085B240F2FD339D4201D90920BB
:10866400F8BD0E46002401E00134A4B2042C17D84E
:1086740004EB840293000D4AD35C002BF4D1294609
:108684002046FFF76BFF03460028EDD034800748EF
:10869400A2001419A10001444A8915444D8100E047
:1086A40000230BB90720F8BD0020F8BDAC3300202F
:1086B40030B4054C8B005D18AA0022445389181A63
:1086C4000338508130BC7047AC330020F8B50F46F6
:1086D40000EB80008200124B13445C6804F5805563
:1086E400086898B1FFF7DCFE044629462046FFF7E8
:1086F400CBFE064668B129462046FFF7D6FE012880
:1087040009D028B10228F0D1002602E00834ECE7B1
:108714003C603046F8BD2046FFF7C2FE0446E4E75D
:10872400AC33002070B582B005460C464068FFF7B4
:10873400D3FE20B12A89174B1B899A4218D00023F3
:1087440023802388042B23D80023019301A92088A4
:10875400FFF7BCFF0646B8B1019B99682A689142AD
:10876400F4D16B600B4B1B892B81304602B070BD7A
:108774002A6869688B689A42E1D12046FFF706FFB0
:10878400B0FA80F67609F0E7238801332380D8E72E
:108794000026EAE7903300202DE9F041224E367896
:1087A40016B90220BDE8F081002A39D01C46904653
:1087B4000F46054633BB0520BDE8F08187B1198813
:1087C4003A8891420CD02146A088FFF77FFFA0B1E0
:1087D4002368002DF2D09E8828888642F3D1EDE7E5
:1087E4009B68C8F800302368C8F804300F4B1B8915
:1087F400A8F808300020BDE8F08100232360A38896
:108804000133A380A388042B07D803EB83039A00C6
:10881400074B9B5C002BF2D1D5E70A20BDE8F08121
:108824000520BDE8F08100BF88330020903300208C
:10883400AC3300202DE9F041884617461E4600EB74
:10884400800082001D4B13445C6804F1080504F5A4
:10885400805421462846FFF717FE60B32146284678
:10886400FFF723FE01280FD0D8B10228F1D13B88AD
:1088740001333B80641B358805EBA404348001225A
:10888400069B1A70BDE8F0813B8801333B806B88FE
:1088940032881344033333802846FFF701FE05462C
:1088A400D7E7B8F800300133A8F800302846FFF7BE
:1088B400F7FD0546CDE7BDE8F08100BFAC330020ED
:1088C4002DE9F0470024A1464FF006082646274626
:1088D4002DE0434A15600221918081464FE008F162
:1088E400FF381FFA88F83F49B300981982001046F0
:1088F4000A44556003230B540136B6B215E03949D6
:10890400B3009819820088184FF0000E01F802E0B5
:1089140045601046103208300A4401442846FFF7E7
:1089240055FE47F002070136B6B20134A4B2052C55
:108934004DD82D4BDD6805EB04352846FFF7E4FDE3
:1089440001281FD00028DAD00328EED12846FFF7EB
:10895400F5FD0028C3D0224A1268002AB9D0214B61
:10896400B2009019810003EB010E02205854CEF896
:108974000450AEF808001D4B5E800136B6B247F0D5
:108984000107D2E7B9F1000F0FD0164BB2009019CE
:10899400810003EB010E0220585411490968CEF8F6
:1089A4000410AEF808000136B6B2DFF834A0514620
:1089B40041F8045B00222846FFF708FEBAF80430A9
:1089C400022B02D008231F43AFE70423FBE7B8F1CF
:1089D400010F02D9F8B2BDE8F0870027FAE700BF1B
:1089E400D8340020AC330020102B0020903300201A
:1089F4000B4A13890133138100235380D3730CE092
:108A040003EB83018A0007498A5CB2FA82F25209B5
:108A1400034919448A7201339BB2042BF0D970477D
:108A240090330020AC330020002322E001339BB2BA
:108A3400042B17D8154A1A44927A002AF6D0134AFE
:108A44001A440024947203EB83029400104A2244D3
:108A5400D268002AEAD10E4A2244127C002AE5D0C8
:108A6400038000E0002210465DF8044B7047013398
:108A74009BB2042B06D8054A1A44927A002AF6D0EF
:108A840010B4DCE700221046704700BF903300208A
:108A9400AC330020044B5B685B880333034A918842
:108AA40011FA83F39380704790330020D834002068
:108AB40070B40A490E680A4B5C880A48A3001D1961
:108AC400AA00024455680D6056608D8823449A00BC
:108AD4001044058102238B8070BC7047D834002079
:108AE40090330020AC33002008B5124B1B78072BC1
:108AF4001ED8DFE803F0041D1D0A1016161AFFF72E
:108B040077FF01220B4B1A7008BDFFF7C3FF022247
:108B1400084B1A7008BDFFF7CBFF0622054B1A70ED
:108B240008BD0722034B1A7008BD0122014B1A70BD
:108B340008BD00BF903300204FF0102358694FF058
:108B440080531A695B69B0F1FF3F00D0704703FBA3
:108B540002F0FBE708B5FFF7EFFF034B1861A0F540
:108B6400C040D86008BD00BF102B002008B50146E6
:108B7400014800F0DFFD08BD342B002008B50522B4
:108B8400054B1A70054902238B80002301220968D2
:108B9400034801F099FA08BD90330020D83400202E
:108BA400102B002008B50D4B5B8803EB830291006A
:108BB4000B4A0A44D26812B1FFF7E0FF08BD042152
:108BC400064A117003EB83039A00054911440023FC
:108BD40001224968034801F077FA08BD9033002068
:108BE400AC330020102B002000B583B0054B19686E
:108BF400002300930823044A044801F0ABF903B0AE
:108C04005DF804FBD8340020E8240300102B002076
:108C140008B5044B07221A7000225A60FFF7E4FFDC
:108C240008BD00BF9033002000B583B0002300933B
:108C34000823044A0146044801F08CF903B05DF8A6
:108C440004FB00BFE0240300102B0020F8B530B96A
:108C54000B79032B5ED8DFE803F0071D37420022AF
:108C64002D4B5A600120F8BD01230B71FFF7BCFFA7
:108C740018B10022284B5A600E20F8BD0A469B000A
:108C84001C18A100002454540A445068FFF7CCFF78
:108C940001230FE00023042B0AD8184603EB8301B9
:108CA4008A001E498A5C022AE8D001339BB2F2E7AB
:108CB40000230F20002BDBD1174B01221A70002256
:108CC4005A6041F61D50F8BD00230B71144902226D
:108CD4008A8001220968134801F0F6F9C8E70025E3
:108CE4000D710F4C2068FFF79FFF0F4B5988D4F884
:108CF40000E00A4E8A005718BB0033445F682760BF
:108D0400C3F804E0A7881F810223A38053189A00A4
:108D1400B554ADE70F20ABE788330020AC33002017
:108D2400D8340020102B00209033002008B5064BC7
:108D340006221A705B8803EB83039A00034B1344E7
:108D44005868FFF771FF08BD90330020AC33002052
:108D540000B583B002238375002300930423C21853
:108D6400044801F0F7F8034600B10E23184603B097
:108D74005DF804FB102B002000B583B003698BB1B0
:108D84000323837500230093042300F10C020831AC
:108D9400054801F0DFF8034600B10E23184603B07E
:108DA4005DF804FB0123ECE7102B002000B583B031
:108DB400012383750269C388002000909B000C3155
:108DC400044801F0C7F8034600B10E23184603B067
:108DD4005DF804FB102B002000B583B00378032B4F
:108DE40011D00623837500230093042300F10802A5
:108DF4001944064801F0AEF8034600B10E231846A4
:108E040003B05DF804FB0523ECE700BF102B002042
:108E140010B582B00C46002300930423094A01468E
:108E2400094801F097F818B10E23184602B010BD96
:108E3400034604EB8404A100044A0A44012111748A
:108E4400F3E700BFDC240300102B0020AC33002028
:108E540070B50C468B8A03EB83018A002A4D1544B6
:108E640098B929489A00D618B1000E4601444968B9
:108E74003044068901EB8606A37D062B3DD8DFE846
:108E840003F0182C20260D320A0021462846FFF74D
:108E9400D1FB012613E041F61D560FE01B480023C9
:108EA4004360A36903601A49FFF73CFC08B90A262A
:108EB40005E031462046FFF74BFF0646FEB9304633
:108EC40070BD31462046FFF757FF0646F6E73146A8
:108ED4002046FFF76BFF0646F0E731462046FFF7D2
:108EE4007BFF0646EAE70623A375094B1988074B5F
:108EF4005868FFF78DFF0646E0E70F26DEE72146B8
:108F04002846FFF797FBDAE7AC3300205C330020F8
:108F1400E434002010B584B0044600230193029386
:108F2400C36800930DF10E016846FFF7FBFB10B90F
:108F34000A2004B010BD01988388E380038823814C
:108F4400BDF80E10FFF764FFF3E7000030B583B0FF
:108F540009484268094B19689C88538803339BB2BB
:108F640003250570002000909B0001EB8401044858
:108F740000F0F0FF03B030BD90330020D83400205F
:108F8400102B002008B5064B191D5888FFF79EFBCF
:108F940010B9FFF707FE08BDFFF7D8FF08BD00BFF3
:108FA4009033002008B50748FFF73EFD38B9064B5B
:108FB40000221A705A805A6041F61D5008BDFFF70E
:108FC400E1FF08BD923300209033002030BB08B588
:108FD400144BDB7B6BB10022124BDA73114B1B7801
:108FE400013B062B1CD8DFE803F0070A0D101B1306
:108FF4001600FFF779FDF1E7FFF7D4FF08BDFFF78F
:10900400C1FF08BDFFF7A2FF08BDFFF7CBFD08BDF8
:10901400FFF78CFE08BDFFF7FBFD08BD012070477C
:109024000F2008BD9033002010B584B00B4B01AA6B
:1090340000210630FFF7B0FB40B1044608220021AE
:10904400064808F013FF204604B010BD034B99886E
:109054000298FFF7DDFE0446F5E700BFE834002080
:10906400A8B908B50B79012B0BD023B1022B10D171
:1090740041F61D5008BD02230B710846FFF74AFF55
:1090840008BD0846FFF7D0FF0A2804D008BD012018
:1090940070470F2008BD41F61D50F7E708B501469B
:1090A400014800F053FB08BD342B002008B5084BE1
:1090B4001B683BB10121064800F0CFFB003018BF0C
:1090C400012008BD034940F27A2003F03DFFF1E797
:1090D400D4340020F024030010B586B004462BE0FD
:1090E4002D48FFF743FD2D4B186029E02C4940F231
:1090F400825003F029FF27E02046FFF7A7FD002850
:1091040048D00023019303930493059341F61D5320
:1091140098423DD00290214C01A92068FFF77AF9CA
:1091240001A8FFF765F9002323601B48FFF7B6FF8A
:10913400FFF7BCFF70B30024184B1B68002BCFD083
:10914400164B1B68002BD1D0144B19680B78013BCC
:10915400052B1BD801A252F823F000BFFD9002009A
:1091640079910200799102008191020081910200BB
:10917400899102002046FFF76BFEC0E72046FFF707
:109184006FFFBCE72046FFF721FFB8E70F20B6E7E3
:109194000020BFE706B010BDA0330020A833002094
:1091A400F024030008B54068FFF796FF08BD0000EF
:1091B40008B50121014800F043FB08BDA433002099
:1091C40008B5FFF7C7FC00220249034800F092FEED
:1091D40008BD00BFF0280300102B002008B51C2395
:1091E400C4220249024800F070FA08BD103400207D
:1091F400342B002010B50146044800F084FA0446DC
:109204001C22002108F032FE204610BD342B002021
:1092140008B50146014800F082FA08BD342B00204D
:1092240008B50121034800F0FEFA00B108BDFFF7BC
:1092340053FFFBE7D43400202DE9F04182B0344CD5
:10924400247824B90222104602B0BDE8F081002936
:109254005AD00D884FF6FF74A54257D04C880CB9EC
:109264000422F0E74C6814F0030F01D00322EAE76C
:109274001D460C460746002A2FD01388ADF8063049
:10928400B2F802806846FFF7B5FF064600282FD0E3
:10929400057000238375BDF806308382636803611B
:1092A400FFF786FFF060238833816388B380A6F8D4
:1092B4000680032D23D0002373816846FFF7A8FF9F
:1092C4003FB100237B60F2683A60BB72114B1B898B
:1092D4003B81FFF7A5FF0022B5E7B1F808800DF147
:1092E40006014046FFF7B4F902460028CAD0AAE7AF
:1092F400BDF806104046FFF7DBF90822A3E7042374
:10930400B3753B68B361D6E705229CE704229AE76C
:10931400883300209033002008B5084B1B68082BC5
:1093240001D10C2008BD034604480168044A42F8F0
:109334002130012100F084FA002008BDE03400202F
:109344006833002030B587B0002301930293039360
:1093540004930593264B1B782BB9264800F08AFA10
:1093640040B1002403E001A8FFF742F8002420469E
:1093740007B030BDFFF724FF04460028F7D1FFF7FC
:109384002DFFFFF79DFA054602282DD0062811D09F
:1093940050B36846FFF72EFF40B301220270013D2F
:1093A4000A2D12D8DFE805F00F110F111D111D1140
:1093B400171A17000E4B01221A7000225A6001A8D6
:1093C400FFF716F8D3E7002202716846FFF720FF83
:1093D400FFF726FFCBE703220271F6E702220271B0
:1093E400F3E701220271F0E70B24C0E70824BEE78B
:1093F400883300208C33002000B370B582B005465A
:10940400F1B10C460DF10601FFF78CF908B90A20F9
:1094140017E06E68BDF8063003EB8303980008304C
:10942400094B18440121043000F00AFA26606B68E5
:109434000C3363600123AB72002002E00520704707
:10944400052002B070BD00BFAC33002038B330B586
:1094540083B004460DF10601FFF764F910B90A2040
:1094640003B030BDBDF8062002EB820399000D4B1A
:109474000B44DB680BB90620F2E7A37A0BB906208C
:10948400EEE7084993009D18A80005460844C06803
:1094940001382944C8600023A3721846E0E7052078
:1094A400704700BFAC33002008B502230022FFF749
:1094B400C3FE08BD0E4B1B780BB90220704700B5E4
:1094C40083B001A8FFF796FE80B10622027001A8BE
:1094D400FFF79EFE074B1B7813B10122054BDA738D
:1094E400FFF79EFE002003B05DF804FB0820FAE7B6
:1094F400883300209033002000B583B0ADF8060017
:1095040002A820F8041D01460DF10600FFF744F9F6
:1095140003B05DF804FB0000294B1B780BB9022053
:109524007047002849D0F0B583B0044612220021C8
:1095340008F09CFC0623238000260FE02388013BCF
:1095440023801CE004F11003009304F10E03A21D18
:10955400211D3046FFF76EF90136B6B2042E29D824
:109564003746B20032449100164B0B441D895A8988
:109574001544ADB25868FEF7C7FF0328DED0114A80
:10958400BB00D81981001144C96860880144618016
:109594003B4499000A4453892289134423816389F3
:1095A4002B446381C5F58065ADB2A3899D42C9D9B9
:1095B400A581C7E7002003B0F0BD0520704700BFB8
:1095C40088330020AC33002010B582B050E8013F4E
:1095D4009CB2B0F80EE07444B0F80CE0744528BFB7
:1095E400A4EB0E04B0F808E0744502BFBFF32F8F5C
:1095F400002208E0C4EA030440E8014EBEF1000F73
:10960400E4D14FF001028DF807200093009B0B601A
:109614009DF8070002B010BD50E8012FC2EA0242D3
:1096240040E80123002BF7D1704710B582B050E811
:10963400023F1FFAA3F4B0F806E0744502BFBFF37B
:109644002F8F002211E0B0F80EE07444B0F80CE063
:10965400744528BFA4EB0E04C3EA044440E8024E58
:10966400BEF1000FE3D14FF001028DF80720009303
:10967400009B0B609DF8070002B010BD50E8022F5C
:10968400C2EA224240E80223002BF7D1704782B09D
:1096940050E8022FC188B2EB324F4FF0000317BFDE
:1096A40092B241EA014142EA014104E04268B2EB6C
:1096B400324F08BF012340E80212002AE8D18DF896
:1096C40007309DF8070002B0704791B110B40C4602
:1096D400B2FBF3F103FB112189B219B109205DF842
:1096E400044B70470460416081608281C3810846F5
:1096F400F5E70E20704708B5FFF7C9FF08B9112038
:1097040008BD002008BD38B505460C46FFF75CFFD0
:1097140018B128682388184438BD002038BD08B51E
:109724000A884B889A4201D0002008BDFFF774FFD5
:10973400012008BD38B505460C46FFF776FF18B181
:1097440028686388184438BD002038BD08B50A88E5
:109754004B889A4201D0002008BDFFF78FFF0120FB
:1097640008BD08B54B0901F01F01012202FA01F1FD
:1097740000EB830000F030F808BD08B54A0901F099
:109784001F01012303FA01F1C94300EB820000F039
:109794003DF808BD4B0950F8230001F01F01C840F3
:1097A40000F00100704700B550E8002F0B4640E878
:1097B400003E9EF0000FF7D110465DF804FB00B5A3
:1097C40050E8002F42EA010340E8003E9EF0000FFB
:1097D400F6D110465DF804FB00B550E8003F43EABB
:1097E400010240E8002E9EF0000FF6D110465DF80D
:1097F40004FB00B550E8002F02EA010340E8003EF4
:109804009EF0000FF6D110465DF804FB00B550E859
:10981400003F03EA010240E8002E9EF0000FF6D15B
:1098240010465DF804FB00B550E8002F02EB01037D
:1098340040E8003E9EF0000FF6D110465DF804FBB0
:1098440000B550E8003F03EB010240E8002E9EF013
:10985400000FF6D110465DF804FB00B550E8003F58
:10986400A3EB010240E8002E9EF0000FF6D1104653
:109874005DF804FB08B50121FFF7A1FF08BD08B599
:109884000121FFF7A9FF08BD08B50021FFF7B1FFCB
:1098940008BD000038B50D46044620B1E368A08A2F
:1098A40000FB053038BD0249E82003F04DFBF5E725
:1098B4007425030038B50C46054630B1E868241A0F
:1098C400A88AB4FBF0F0C0B238BD0249F52003F019
:1098D4003BFBF3E77425030000283DD010B5044694
:1098E400036873B163688BB1A368ABB1E368CBB1B0
:1098F400A38AEBB1A2686368D21AD2B221680B6062
:1099040022E01649FF2003F01FFBEBE713494FF455
:10991400807003F019FBE7E7104940F2011003F0EF
:1099240013FBE3E70D494FF4817003F00DFBDFE710
:109934000A4940F2031003F007FBDBE721680A68D9
:10994400501C086013701A46531EDBB2002AF5D16E
:1099540023680020187110BD0E2070477425030081
:1099640030B583B0044610B302A8002300F8013DCB
:10997400FEF7EAFC2268136861688B421DD9591E00
:10998400116013F8011C2046FFF784FF0546A36805
:10999400226811685B1ADBB211798B4200D913710A
:1099A4009DF80700FEF702FD284603B030BD0449C8
:1099B4004FF4927003F0C8FAD6E70025F0E700BF31
:1099C4007425030070B582B00E460546A8B1D6B121
:1099D40002A8002300F8013DFEF7B6FC2B681C68C2
:1099E400621C1A6031462846FFF764FF20709DF818
:1099F4000700FEF7DBFC02B070BD064940F24710D9
:109A040003F0A2FAE3E703494FF4A47003F09CFACD
:109A1400DEE700BF7425030010B5044610B1A26848
:109A24002AB910BD0549312003F08EFAF7E76369BE
:109A34002168206998470023A360F2E7F425030016
:109A44000EB430B582B0059D044698B16369B3B1D4
:109A54002368CBB16368E3B13DB102AA06AB42F817
:109A6400043D2946204600F023F902B0BDE8304009
:109A740003B070470949422003F066FAE6E7074954
:109A8400432003F061FAE3E70449442003F05CFA5D
:109A9400E0E70249452003F057FADDE7F425030027
:109AA40010B5026883685C1C8460D1548268436882
:109AB4009A4200D210BDFFF7AFFFFBE72DE9F84F44
:109AC40082460F4616461D46DDF828900B9A0B4633
:109AD4004FF0010803E0B3FBF6F308F10108B342C9
:109AE400F9D2A84500D2A84612F0010B17D1B9F15A
:109AF400000F14D012F0020F02D01DB1202409E08F
:109B0400202407E0302405E009F1FF3921465046BE
:109B1400FFF7C6FFB9F1000F01D0C145F4D8012405
:109B240005E0B7FBF4F39E4205D806FB04F4012DCF
:109B3400F7D9013DF9E7B7FBF4F304FB13770F4AB8
:109B4400D15C5046FFF7ACFFB4FBF6F4002CF2D125
:109B5400BBF1000F10D0B9F1000F0BD0B9F1000F19
:109B64000AD0C14508D909F1FF3920215046FFF731
:109B740097FFF3E7BDE8F88FBDE8F88F6826030088
:109B84002DE9F04782B08046894615469A460A9EDA
:109B94000B9F81EAE173A3EBE173012402E093FBE1
:109BA400F5F30134AB42FADA544500D2544636B1E7
:109BB400B9F1000F02DB17F0040F00D0013E17F0DB
:109BC400020F02D0BAF1000F03D017F0010F00D139
:109BD400A6B9B9F1000F1BDB17F0040F1FD107F072
:109BE4000303022B20D00197009653462A46494688
:109BF4004046FFF763FF02B0BDE8F087002EE8D0CF
:109C0400A642E6D9013E20214046FFF749FFF5E789
:109C1400C9F100092D214046FFF742FFDFE72B2160
:109C24004046FFF73DFFDAE7BAF1000FDBD12EB96A
:109C3400D9E7013E30214046FFF732FF002ED2D053
:109C4400A642F6D8CFE7F8B506460D46144613F0FB
:109C540001070ED1F1B1084608F05EF9074619E094
:109C6400013501373046FFF71BFF29780029F7D16A
:109C740006E00027F9E7013C20213046FFF710FFFA
:109C8400BC4213D9002CF6D1F8BD013C202130464A
:109C9400FFF706FFBC4206D9002CF6D103E00135DC
:109CA4003046FFF7FDFE29780029F8D1F8BD000001
:109CB400F0B583B00C461646054648B16B696BB1E6
:109CC4002B688BB16B68ABB1002C40F09D80EDE04C
:109CD40079494FF49F7003F037F9EFE776494FF471
:109CE400A07003F031F9EBE7734940F2411003F03F
:109CF4002BF9E7E770494FF4A17003F025F9E3E786
:109D04000027012303E047F00107013483B12178E0
:109D14002D29F8D0302903D02B2905D00023F5E7CD
:109D240047F002070134F1E747F004070134EDE797
:109D3400002211E03368191D31601B681A44013494
:109D440023782E2B11D0002321781FE0013402EB5D
:109D5400820250000A18303A2A29EBD02178A1F166
:109D64003000C0B20928F1D9EAE701340023217890
:109D7400A1F13000C0B20928E6D8013403EB830016
:109D840043000B44303BF2E714F8011F6C29FBD06D
:109D94006829F9D02539532932D8DFE801F0803118
:109DA400313131313131313131313131313131319F
:109DB400313131313131313131313131313131318F
:109DC400313131313131313131313131313131317F
:109DD4003156313131313131313131312A40313142
:109DE4003131403131313131316A313161314B31CD
:109DF400315633681A1D326019782846FFF750FE31
:109E040001342378002B4FD014F8011B00294BD0C8
:109E140025293FF475AF2846FFF742FEF1E7316884
:109E2400081D30600968019700920A222846FFF74E
:109E3400A7FEE5E73168081D3060096801970092C4
:109E44000A222846FFF73AFEDAE73168081D306037
:109E540009680197009210222846FFF72FFECFE7EA
:109E640031680B1D33603B4609682846FFF7EBFE5B
:109E7400C6E733681A1D32601F6830212846FFF791
:109E84000FFE78212846FFF70BFE002301930823D9
:109E94000093102239462846FFF710FEB0E725212B
:109EA4002846FFF7FDFDABE72B7B0BB903B0F0BDF4
:109EB4002846FFF7B1FDF9E778260300C3688B4213
:109EC40006D8114401390369994203D90020704727
:109ED400002070470120704710F0030F0CBF0120D1
:109EE4000020704743681B68013B0B420CBF0120F4
:109EF4000020704710B582B030B199B101600C6890
:109F04001146A04702B010BD0D4B188800040E2462
:109F140000940C4B0C4A0D4940F00100FCF7F0FF93
:109F24002046EFE7064B188800040E240094054BE6
:109F3400074A064940F00100FCF7E2FF2046E1E74A
:109F4400FC2A0020F4260300A8270300B0270300FE
:109F5400DC2703002DE9F04182B0002831D0884687
:109F640016461C460546002A39D00768002F44D0FF
:109F7400002B50D043685A68B4FBF2F302FB13433E
:109F8400002B58D10846FFF7A7FF002861D03046C0
:109F9400FFF7A2FF00286AD0224641462846FFF771
:109FA4008DFF002871D13D4B1888000410240094C3
:109FB4003B4B3C4A3C4940F00100FCF7A1FF2046E2
:109FC40036E0364B188800040E240094344B374A8C
:109FD400354940F00100FCF793FF204628E02F4B61
:109FE400188800040E2400942D4B314A2E4940F069
:109FF4000100FCF785FF20461AE0284B188800046E
:10A0040008240094264B2B4A274940F00100FCF712
:10A0140077FF20460CE0214B1888000409240094A3
:10A024001F4B254A204940F00100FCF769FF2046F8
:10A0340002B0BDE8F081194B18880004092400948B
:10A04400174B1E4A184940F00100FCF759FF2046FF
:10A05400EEE7124B1888000410240094104B184AA1
:10A06400114940F00100FCF74BFF2046E0E70B4BA1
:10A074001888000410240094094B124A0A4940F03D
:10A084000100FCF73DFF2046D2E7FF68089B0093E0
:10A094002346324641462846B847C9E7FC2A0020F1
:10A0A40008270300AC280300B0270300A8270300F7
:10A0B4003C28030030280300EC2703004428030055
:10A0C40070280300882803002DE9F04182B018B3FA
:10A0D4000F4615469846044606685EB3002A37D0F4
:10A0E400FFF700FF002843D063681A6802FB05F2FB
:10A0F40039462046FFF7E2FE002847D1274B18884F
:10A10400000410240094264B264A274940F00100FD
:10A11400FCF7F6FE204628E0204B188800040E24A5
:10A1240000941F4B214A204940F00100FCF7E8FE4F
:10A1340020461AE0194B1888000408240094184B90
:10A144001B4A194940F00100FCF7DAFE20460CE0F6
:10A15400124B1888000409240094114B154A124923
:10A1640040F00100FCF7CCFE204602B0BDE8F081CF
:10A174000A4B1888000410240094094B0E4A0A491B
:10A1840040F00100FCF7BCFE2046EEE7366943468A
:10A194002A4639462046B047E7E700BFFC2A00209C
:10A1A4001C27030058270300B0270300A827030037
:10A1B40030280300EC2703003027030010B5F0B16A
:10A1C4000268F2B1D26990470346184610BD0134C3
:10A1D4000E4A0F490F4B5B1AA2FB0323B4EB131F68
:10A1E40011D204EB84029300094A98189B58002B5F
:10A1F400EDD0DB69984703460028E8D0E5E7002462
:10A20400E6E70024E4E70023DFE700BFCDCCCCCCB5
:10A21400102B0020242B002029DF704728DF7047F3
:10A2240003689B683BB300B587B000230093029397
:10A2340003930493019183680593037943B1012B3C
:10A2440010D003689B686846984707B05DF804FB24
:10A2540001238DF8003003690293C36803934369B3
:10A264000493EEE702238DF80030C3681B030293C6
:10A2740043690493E5E7704710B542698369D21ACC
:10A28400B2F5805F28BF4FF4805292080469C16818
:10A29400012A38BF012219441819FFF7BDFF10BD68
:10A2A40008B5C26800691044FFF7B8FF08BD000094
:10A2B4000022114BDA6003791BB1012B11D000206D
:10A2C400704742698369D11AB1F5805F94BF5B1806
:10A2D40003F5805383619A4201D000207047012026
:10A2E40070470369013303614269934201D000203E
:10A2F40070470120704700BF7C350020064AD368B0
:10A304000133D360082B04D90022034BDA60012007
:10A3140070470020704700BF7C3500200846704716
:10A3240000207047024B187A003018BF0120704794
:10A334007C350020034B01225A74187AB0FA80F05D
:10A34400400970477C35002008B502490248FFF7F0
:10A35400FDF908BD90350020482B002008B50549BB
:10A364000548FFF7E7F9054B1860003018BF0120D6
:10A3740008BD00BF90350020482B002094350020F4
:10A3840008B51B4B1B7A53B10222194B1A72194B95
:10A39400186803795BB1012B1AD0032009E0FFF799
:10A3A400DDFF0028F0D10022114B5A6008BDFFF7F1
:10A3B40063FF80B1112817D003210E4B1868FFF7F3
:10A3C4002FFF0B4B00221A725A60FFF7BDFF08BD26
:10A3D400FFF766FFEDE7064B1B7C002BF7D100214E
:10A3E400022000F009F808BD0122014B1A7208BDD1
:10A3F4007C35002094350020831E012B00D9704742
:10A40400174B1B7A002BFAD010B50446022B16D139
:10A41400022803D0032818D0002003E0114B186849
:10A42400FFF746FF58B100220D4B1A720D4B186806
:10A43400022C0FD00D21FFF7F3FEFFF785FF084B29
:10A444005B7C4BB104F0E8FB10BD064B1868FFF7CA
:10A4540055FFE7E71146EEE7FFF792FF10BD00BF97
:10A464007C35002094350020012802D0032800D038
:10A47400704708B5054B00225A74012814BF002008
:10A4840001201874FFF77CFF08BD00BF7C35002055
:10A4940008B50548FFF7EEF910B9044B5B7C03B12E
:10A4A40008BDFFF76DFFFBE7803500207C350020F9
:10A4B4002DE9F04182B080460D4616461F4601A99B
:10A4C4000E48FFF720F9B0B104461C22002107F022
:10A4D400CDFC01232371C4F80080A7602D0BE56037
:10A4E400666101A90548FFF71AF9FFF7D1FF0020BB
:10A4F40002B0BDE8F0810420FAE700BF482B002039
:10A504002DE9F04383B08146884617461E4601A9CB
:10A514000F48FFF7F8F8C0B104461C22002107F0E9
:10A52400A5FC00252571C4F800900A9BA360C4F81B
:10A534001080E760666101A90548FFF7F0F8FFF7AE
:10A54400A7FF284603B0BDE8F0830420FAE700BF64
:10A55400482B002008B510461A4607F05DFC002081
:10A5640008BD000008B514220021044807F07EFC51
:10A574000348FFF7C0F8002008BD00BF7C35002069
:10A58400482B002008B5094B43600948FFF772F9CE
:10A5940008B1002008BD04F053FB054B18741C23BC
:10A5A4008C2204490448FFF790F8F2E7E4280300FA
:10A5B4007C350020F0340020482B00202DE9F04F9A
:10A5C40083B004468B4617469DF830200192B0F8BC
:10A5D40006A01D1DB5FBFAF60AFB16553B44534471
:10A5E4000333B3FBFAF3DBB24279934206D917493A
:10A5F400BA2002F0A9FC01E02468013E002EFBD140
:10A60400AAEB0508B84528BFB846B1460FE0601963
:10A6140042460BEB0901043007F0FEFB2468A7EB6C
:10A624000807C144D046BA4528BFB846354657B195
:10A63400019B002BEBD06119424604310BEB09005E
:10A6440007F0EAFBEAE703B0BDE8F08F2029030036
:10A6540008B5FFF741F908BDF8B54679711E024601
:10A66400002301E0126801338B42FBD317680146D3
:10A67400002405E00D683846FFF7A4F901342946A3
:10A68400B442F7D3F8BD2DE9F0410646878A043F6A
:10A6940039440331B1FBF7F8FFF762F910B305460B
:10A6A4000024047101234371C7805FFA88F808F11C
:10A6B400FF3806600746444511D23046FFF750F98B
:10A6C40038B16A7901326A7138600660013407462C
:10A6D400F1E72846FFF7C0FF0020BDE8F0812846D7
:10A6E400BDE8F0810020BDE8F08108B50121043007
:10A6F400FFF7A6F808BD10B5044601210430FFF7A2
:10A70400ACF8C0B200B110BD2046FFF7A5FFFAE7D0
:10A7140010B582B000240094FFF750FF02B010BDC2
:10A7240010B582B001240094FFF748FF02B010BDB9
:10A7340033DF704741DF704708B51F4B5B684BB18F
:10A744001B681E4A10789847002834D01A4800F035
:10A754000DF9F2E7FCF732FDFCF73CF80028FBD1D9
:10A76400164B1B78023BDBB2012B0BD904F068FAC1
:10A77400A8B901224FF08043C3F80025BFF34F8FDF
:10A7840020BFFDE7BFF34F8F0D49CA6802F4E062B2
:10A794000C4B1343CB60BFF34F8F00BFFDE7FFF7B4
:10A7A400C7FF0028E5D00228E3D0074940F29B10F8
:10A7B40002F0CAFBDDE708BD98350020A035002073
:10A7C40000ED00E00400FA05F429030008B50023B5
:10A7D4000D4A13700D4A1360BFF35F8F0C490D4887
:10A7E40000F0A8F80C4A01210C48FDF753FD03467C
:10A7F40008B1184608BD00224FF400410848FDF78F
:10A804005FFD0346F5E700BFC4350020C8350020CE
:10A81400E82903009835002021A90200AC2903008F
:10A82400A435002010B582B002A8002300F8013D31
:10A83400FDF78AFDF1EE104A24F09F03E1EE103A91
:10A84400BFF35F8F4022114BC3F884219DF80700AA
:10A85400FDF7ACFD14F0070F07D104F0F1F948B986
:10A8640020BF40BF20BF02B010BD0949762002F0CE
:10A874006BFBF2E7FFF75EFF0028F4D00228F2D06A
:10A88400034940F2591002F05FFBECE700E100E0FD
:10A89400F429030010B5044601211B48FEF783FF89
:10A8A400BFF35F8FD8B9042C07D0184B1B78BBB902
:10A8B400174B1C700122154B1A70144B1B78EBB10B
:10A8C400FFF73AFF104B1B68012B03D0114993206B
:10A8D40002F03AFBBFF35F8F00220B4B1A6010BDEE
:10A8E400094B1B68012B03D00A49932002F02CFB6F
:10A8F400BFF35F8F0022044B1A6010BD06494FF46A
:10A90400E27002F021FBDBE7C8350020C4350020EB
:10A91400A0350020B0290300F429030008B5044B36
:10A924001B7803B908BD0420FFF7B4FFFAE700BFA2
:10A93400C435002038B50C46054638B15CB12C60EE
:10A9440023686B60626893420AD038BD0649502080
:10A9540002F0FAFAF2E70449512002F0F5FAEEE7C0
:10A9640000236B60F1E700BF842A030010B504469E
:10A9740058B1236873B1636833B1226891680B449A
:10A984006360526893420AD010BD0649632002F006
:10A99400DBFAEEE70349642002F0D6FAEBE7002382
:10A9A4006360F1E7842A03000F4A02F594718A4236
:10A9B40018D210B48B1ADB1003EBD3735B1002EBC9
:10A9C400C30452F83330834206D921468A42F1D374
:10A9D40000205DF8044B704702D204F10802F5E749
:10A9E4006068F6E700207047302B030008B5FFF7D6
:10A9F400DBFF034608B1184608BD014BFBE700BF67
:10AA04001C2B030003680BB11A68026018467047D8
:10AA140008B504F015F928B900F00AF90022044B2E
:10AA24009A7008BD0349792002F08EFAF4E700BF5A
:10AA3400CC3500204430030000B1704708B5012232
:10AA4400054B5A700548FFF7DDFF18B14368002035
:10AA54009847F7E708BD00BFCC350020D435002067
:10AA640010B5044610B1012C0CD010BD01220B4BC3
:10AA74005A700B48FFF7C6FF0028F4D04368002043
:10AA84009847F6E70122054B9A700648FFF7BAFF8C
:10AA94000028EAD0436801209847F6E7CC35002027
:10AAA400D4350020DC35002010B50D4B1B7813B1D4
:10AAB4008524204610BD0A4B00229A605A601A6110
:10AAC400DA60084800F078F8044604F0B9F818B1E0
:10AAD4000122034B1A70ECE700F086F8F8E700BF98
:10AAE400CC35002065AA020000B583B0134B1B7857
:10AAF400ABB1124BDB68C3B102A8002300F8013DDF
:10AB0400FDF722FC0D4BDA68013ADA60DB6893B199
:10AB14009DF80700FDF74AFC03B05DF804FB084903
:10AB24004FF4847002F010FAE3E7054940F209108B
:10AB340002F00AFAE0E7FFF76BFFE9E7CC35002003
:10AB44004430030000B583B001280AD020B10328A3
:10AB54001ED003B05DF804FB0122144BC3F880201F
:10AB6400F7E702A8002300F8013DFDF7EDFB104BC9
:10AB74001B7853B10E4BDA680132DA6001229A7005
:10AB84009DF80700FDF712FCE3E7FFF78DFFF1E7FF
:10AB9400074B1B7823B100F027F8FFF7A5FFD8E790
:10ABA400044940F2432002F0CFF9F4E700E100E069
:10ABB400CC3500204430030010B5044620B1084BC6
:10ABC4001B7933B1852010BD0649A22002F0BCF9DF
:10ABD400F5E7034B1C6001221A710020587110BD67
:10ABE400E0350020C830030008B50E4B1B7953B183
:10ABF4000D4B1B6813F0010F0AD001224FF0804364
:10AC0400C3F8182508BD0949BB2002F09DF9EFE7F8
:10AC1400054BE02283F800230122C3F880211A6047
:10AC2400EBE700BFE035002000E100E0C83003009E
:10AC340008B5094B1B7953B10122084B1A604FF038
:10AC44008043D3F8183413F4803FF8D108BD044985
:10AC5400F22002F079F9EFE7E03500200C00004023
:10AC6400C830030000B583B0164B1B686BB1154B9D
:10AC740000221A601B680093009B01224FF080435E
:10AC8400C3F80823104B5B792BB1104B1B6843B9F5
:10AC940003B05DF804FB0C4B5A711B680020984705
:10ACA400F3E70A4B00221A601B680193019B0222FE
:10ACB4004FF08043C3F80823034B1B6801209847D7
:10ACC400E6E700BF00010040E03500200401004039
:10ACD40070B4154662B1002365B10824A34218D2AA
:10ACE4000E4A52F82320B2F1FF3F05D00133F5E7B5
:10ACF4000823F1E70F24F1E75AB2084C261886F826
:10AD04003C2044F8231035B9083B234483F85C0005
:10AD140001E04FF0FF32104670BC7047E835002068
:10AD24004FF0FF32054B43F82020072804D9083898
:10AD34001844FF2380F85C30704700BFE8350020DA
:10AD44001C4B93F867300BB10820704710B582B0E4
:10AD540006E0184A1A44FF2182F83C100133DBB2A2
:10AD64001F2BF6D9002404E02046FFF7D9FF013455
:10AD7400E4B20E2CF8D90F4C0422002104F1630034
:10AD840007F074F80C4BE02283F806234022C3F842
:10AD940080211A60094B002018601B680193019BF5
:10ADA4004FF00042064BC3F80423012384F86730B4
:10ADB40002B010BDE835002000E100E07C610040F5
:10ADC40000600040034B93F86700003018BF012077
:10ADD400704700BFE8350020F8B504460D46164616
:10ADE4001F2807D83C4B234493F93C30002B07DB46
:10ADF4000820F8BD39494FF4017002F0A5F8F1E7D5
:10AE0400AA78C2F3400231462046FFF761FF0646A6
:10AE1400B0F1FF3F5DD0AB7813F0040F18D113F0FD
:10AE2400010F2BD01F2C23D84FF0A04204F5E07162
:10AE340052F8213023F0020342F82130E30804F0F1
:10AE440007012748012202FA01F1C25C0A43C254F5
:10AE5400AB7813F0020F22D1083E2A781E4B1E4411
:10AE640096F85C3043EA821386F85C300020F8BD23
:10AE74001C4940F2C71002F067F8D5E76F781F2C21
:10AE840007D8BF0004F5E0734FF0A04242F82370E6
:10AE9400D4E7144940F2C71002F056F8F1E72A78D3
:10AEA400114906F5A27651F8263023F4473323F4EA
:10AEB400407341F8263051F82600230203F4F85376
:10AEC400120402F440321343034341F826300020B5
:10AED400F8BD0420F8BD00BFE83500204C31030064
:10AEE4004B360020C83103000060004070B582B0CA
:10AEF40004460D461F282BD83E4B234493F93C307F
:10AF0400002B2BDB3B4B234493F93C30072B47DDD1
:10AF1400A3F10802374B134493F85C309B09032BCD
:10AF240022D0012B34D003251F2C33D84FF0A0435B
:10AF340004F5E07453F8242022F4403243F824202A
:10AF440053F8242042EA054243F8242002B070BD9D
:10AF540029494FF40D7001F0F7FFCDE7264940F27F
:10AF6400352001F0F1FFCDE71F2C09D84FF0A043A5
:10AF7400D3F81035E34013F0010F07D10225D3E7CE
:10AF84001E4940F2C71001F0DFFFEFE70325CBE7CE
:10AF94000225C9E7194940F2C71001F0D5FFC5E7FA
:10AFA400DAB2072AD2D803F1400292B2920092B2E6
:10AFB400134803F5A27650F8261041F0010140F839
:10AFC400261002F1804202F5C0420021116012688D
:10AFD4000192019A002DB9D0064A144494F93C1008
:10AFE40052F82120002AB1D0012202FA03F3C0F85A
:10AFF4000433ABE7E83500204C310300C8310300CB
:10B004000060004010B504461F2809D81F2C0DD835
:10B014004FF0A043D3F81005E04000F0010010BD4C
:10B02400054940F2852001F08FFFEFE7034940F224
:10B03400C71001F089FFEBE74C310300C83103006E
:10B044002DE9F04786B00025059501204FF4807363
:10B05400294603E0400004339BB20131072912D88A
:10B0640003F1804202F5C0421468012CF2D17F4CF6
:10B07400D4F804432042EDD00024146012680392F3
:10B08400039A0543E6E77A4B1B68012B07D015F0BA
:10B09400FF0F2FD1002D30DB06B0BDE8F087744AD6
:10B0A4000023136012680492049A45F0004505AA2F
:10B0B400002BECD14FF0A041D1F8101542F8041B3D
:10B0C4000133F5E776000134072CE3D83542F9D093
:10B0D400664B04F5A27253F82200C0F3042053F81F
:10B0E4002210C1F30141634B53F82430002BE9D003
:10B0F4009847E7E701260024E6E700230093002BA6
:10B1040040F0838006AA02EB83024FF0FF3142F83D
:10B11400141C0133F3E7032F14D137E01DF8093071
:10B124002B430DF8093033E0534940F2C71001F0C6
:10B134000BFF30E0032F43D0BAF1000F02D03946A1
:10B144004046D0470134062C5BD84A4B234493F93C
:10B154005C30D9B221F0C008B3F1FF3FF2D04FEA1E
:10B16400D80901F0070301259D4006AB4B4413F8B1
:10B17400143C1D42E6D08F093E4B03EB080292F9C2
:10B184003C2053F822A0BAF1000FC4D0032FC5D03D
:10B19400B8F11F0FC8D808F5E0734FF0A04252F879
:10B1A4002330C3F3014306AA914419F8042C154033
:10B1B40001D0022BBED0002DC4D1032BC2D1B9E7DC
:10B1C400022B16D00225B8F11F0F14D84FF0A0435C
:10B1D40008F5E07253F8221021F4403143F82210AC
:10B1E40053F8221041EA054143F822100136F6B221
:10B1F400A2E70325E7E7204940F2C71001F0A4FEC7
:10B20400E4E7DEB9002E3FF447AF002634469AE760
:10B214004FF0A041D1F8101542F8041B0133002B64
:10B22400F6D000236BB906AA02EB830252F8101C75
:10B2340052F8042C914215D10133F3E7002302AAFA
:10B24400EDE7012383B9002BDCD106AA02EB8302CC
:10B2540052F8101C42F8041C52F8181C42F8141C32
:10B264000133F0E70023EDE70026CBE70060004060
:10B274007C610040E8350020C8310300034B98424C
:10B2840001D1034870470020704700BF00200040F0
:10B294005036002008B5064B1B681BB1044B1B68D5
:10B2A400984708BD0349512001F04EFEF6E700BF60
:10B2B400503600200032030070B582B00E460446BA
:10B2C400B8B12046FFF7DAFF0446B8B102A800235C
:10B2D40000F8013DFDF738F8257915B926600123FA
:10B2E40023719DF80700FDF761F84DB1112002B0FC
:10B2F40070BD0449772001F027FEE2E70020F6E75D
:10B304000020F4E700320300044B1B780BB18520C6
:10B3140070470122014B1A700020704758360020F4
:10B3240000B585B003788DF8003003798DF80430CA
:10B3340043798DF8053083688DF80630C3688DF83D
:10B3440007300369029343690393054B53F8213093
:10B35400044A52F821106846984705B05DF804FB8A
:10B36400643600205C360020F8B5044603684FF0CC
:10B37400A04203F5E07340F20C6142F823104368E5
:10B3840003F5E07342F8231005681F2D22D801232A
:10B39400AB404FF0A042C2F8083565681F2D1FD896
:10B3A4000122AA404FF0A043C3F80825226802F501
:10B3B400E07240F20D6143F82210626802F5E07217
:10B3C40043F82210374E46F001064FF48070B04720
:10B3D400002539E0344940F2C71001F0B5FDD6E745
:10B3E400314940F2C71001F0AFFDD9E72E4940F2D0
:10B3F400C71001F0A9FD2CE0ADB165681F2D45D83B
:10B404000123AB404FF0A042C2F80C354FF48070DA
:10B41400B04764681F2C3FD80123A3404FF0A042DB
:10B42400C2F80835F8BDF8BD1F4940F2C71001F055
:10B434008BFD19E00123BB404FF0A042C2F8083550
:10B444004FF48070B0470135082DD6DC67681F2F94
:10B45400CCD84FF0A043D3F81035FB4013F0010FC4
:10B46400CAD127681F2FDFD80123BB404FF0A04269
:10B47400C2F80C354FF48070B04727681F2FD9D914
:10B48400094940F2C71001F05FFDD3E7064940F2D5
:10B49400C71001F059FDB3E7034940F2C71001F0AA
:10B4A40053FDB9E780320300C8310300F8B5044600
:10B4B4000E46174605780B4A42F825700A4A42F8A8
:10B4C40025304B7B3BB9201D4FB1084A2B463146F2
:10B4D40000F02AFAF8BD0846FFF746FFF3E700221A
:10B4E400F4E700BF643600205C36002025B3020078
:10B4F400034610F0010F0BD1032013F0020F01D00B
:10B5040048F2012013F0040F01D048F202207047E2
:10B514004FF40240F1E730B49DF808501C7894428F
:10B5240004D365B901234361184606E00A5DC0F8F7
:10B534001C251A7801321A70012030BC704701238F
:10B54400C3610020F9E730B41C7894420DD2D0F8DE
:10B5540018550D5519780131C9B21970531E994205
:10B5640005D08A4201D00123036230BC7047022314
:10B57400C0F80032F7E770B58CB004461E469DF85B
:10B5840040000B7833B91578854201D0002502E0DC
:10B59400012500E0012503B30023C4F82431D4F8C5
:10B5A40024210592059AC4F81C31D4F81C21049274
:10B5B400049AC4F80831D4F808310393039B002D8E
:10B5C4005ED0D4F80431002B5BD00025C4F80451BC
:10B5D400D4F804310B930B9B53E0D4F8243153B1CA
:10B5E4000023C4F82431D4F824310693069B0123A4
:10B5F40063610B70E3E7D4F81C310BB30023C4F888
:10B604001C31D4F81C310793079BD4F8243153B16F
:10B614000023C4F82431D4F824310893089B01236F
:10B6240063610B70CBE79DF84430009313460246E8
:10B6340031462046FFF76FFF0028C0D1054620E0C1
:10B64400D4F80831002BBAD00023C4F80831D4F858
:10B6540008310993099BD4F8243153B10023C4F869
:10B664002431D4F824310A930A9B012363610B70BB
:10B67400A5E71346024631462046FFF764FF9EE7DE
:10B68400012528460CB070BD2DE9F04389B005466C
:10B694000C4690461F469DF8406042F21073079393
:10B6A4000023C1F80431D1F804210692069AC1F8A6
:10B6B4002431D1F824210592059AC1F81C31D1F81E
:10B6C4001C210492049AC1F80831D1F8082103928C
:10B6D400039AC1F8003280F82E3080F82B30012311
:10B6E4000B628B6000F12E0900964B463A464146A8
:10B6F4002046FFF710FF2B6863B140F28623AB604E
:10B70400AB68C4F80433002009B0BDE8F083079B9C
:10B71400013B0793079B002B0ADD019600974346E4
:10B724004A4605F12B012046FFF725FF0028EED1FC
:10B7340095F82B303BB1D4F8C404C4F8C40470B1F8
:10B74400FFF7D6FE00E00020079B002BDCDC002383
:10B75400C4F800350523C4F800350320D4E70020DD
:10B76400F2E7F0B589B005460C4617461E4642F28C
:10B77400107307930023C1F80431D1F80421069211
:10B78400069AC1F82431D1F824210592059AC1F80A
:10B794001C31D1F81C210492049AC1F80831D1F863
:10B7A40008210392039A80F82E3080F82B30012E62
:10B7B40010D00123C1F800320123236223602B68D7
:10B7C4007BB140F28623AB60AB68C4F8043300203D
:10B7D40009B0F0BD0223C1F80032EDE7079B013B3D
:10B7E4000793079B002B0CDD0023019300963B4637
:10B7F40005F12E0205F12B012046FFF7BCFE0028BF
:10B80400ECD195F82B303BB1D4F8C404C4F8C4048B
:10B8140070B1FFF76DFE00E00020079B002BD7DC22
:10B824000023C4F800350523C4F800350320CFE70E
:10B834000020F2E7F0B589B007460C460B6873B3F5
:10B8440094F82930019394F828300093636A04F142
:10B854002E0204F12B013846FFF78DFE002850D14B
:10B8640094F82BE0BEF1000F04D1217B8B1EDBB2D8
:10B87400012B1AD903AD04F10C060FCE0FC53368A2
:10B884002B60BEF1000F32D0D7F8C434C7F8C434EB
:10B8940013F0020F24D001238DF808302AE01C494C
:10B8A4004FF4207001F050FBCAE7626AA3699A4220
:10B8B400E0D1E2696262237D84F82830206AC0F313
:10B8C400401084F82900032904D039462046FFF7A4
:10B8D40048FF16E0009039462046FFF7D5FE10E0F9
:10B8E40013F0040F06D002238DF8083002E0002381
:10B8F4008DF80830002384F82C30236A13F0040FE9
:10B9040001D009B0F0BD2368616802A89847F8E740
:10B91400BC32030008B502490248FFF78BFF08BD9B
:10B924006C360020003000402DE9F843064690466E
:10B934001F460D4689B12A686B689A4212D0347941
:10B9440004EB44031A014D4B134493F82A3073B1AA
:10B954004FF008094846BDE8F8834949892001F0B9
:10B96400F3FAE8E746498A2001F0EEFAE7E74549A9
:10B974003068FFF7A1FC814610B14FF01109E9E7E7
:10B984003E49630023441A018B1841F802805F602A
:10B9940000229A6083F82D2083F82C206A7B83F898
:10B9A4002F202F681F2F51D807F5E07740F20C6243
:10B9B4004FF0A04343F827206F681F2F4CD807F59A
:10B9C400E07740F20C624FF0A04343F8272033683D
:10B9D40029686A68C3F80815C3F80C25AA68C3F86F
:10B9E400242504EB44021301244AD3582BB33368AF
:10B9F40043F307372D7BAB1EDBB2012B03D96B1F3F
:10BA0400DBB2022B2ED8002F31DB6D01EDB207F132
:10BA1400604303F5614383F8005333681B0B5AB248
:10BA2400520903F01F03012101FA03F3164902F13D
:10BA3400600041F8203041F8223004EB4404220134
:10BA44000E4B1344012283F82A2083E70F4940F266
:10BA5400C71001F079FAA7E70C4940F2C71001F0CA
:10BA640073FAACE70A496B2001F06EFACBE707F0F2
:10BA74000F036901C9B2074AD154CEE76C360020DE
:10BA8400BC32030019B9020000E100E0C831030030
:10BA94008832030014ED00E038B50546047904EB60
:10BAA40044031A010B4B134493F82A30012B03D09F
:10BAB4000949E82001F048FA2B680522C3F800255B
:10BAC40004EB44042201034B1344022283F82A208A
