:020000022000DC
:10600000000001203D6202009562020097620200DA
:10601000996202009B6202009D6202000000000083
:106020000000000000000000000000009F6202006D
:10603000A162020000000000A3620200A56202004B
:10604000F5CF0200AB620200A1DC020079EC020095
:10605000E9ED0200B3620200C1D90200B76202009A
:1060600021EF020039EF0200BD620200BF620200B0
:10607000C1620200C3620200C5620200C762020080
:10608000C9620200A18C0200CD620200CF62020050
:10609000E18C0200D3620200354B0300D76202009C
:1060A000D9620200DB620200DD620200DF620200F0
:1060B00081F00200E3620200A7620200A762020010
:1060C000E562020099F00200E9620200EB62020060
:0C60D000ED62020029F80200F1620200FB
:1060DC00364937480A1A02D0072291438D46354972
:1060EC0035480A1A06D00722914381F30988022207
:1060FC0082F3148831483249324A00F045F832486C
:10610C003249334A00F040F832483349334A00F000
:10611C003BF833483349344A00F036F833483449B5
:10612C00344A00F031F834483449354A00F02CF840
:10613C0034483549354A00F027F8354835490022AE
:10614C0000F02DF834483549002200F028F8344886
:10615C003449091A082903DB00220260043001606B
:10616C00314A90471F482049884205D002680430C4
:10617C0003B4904703BCF7E700208646EC460020AA
:10618C0000212A4A9047FEE7884207D0521A05D0D0
:10619C00037801300B700131013AF9D17047884214
:1061AC0002D002700130FAE77047000000000120B5
:1061BC0000E00020000001200000012068C5030061
:1061CC00242B0020382C0020F4620200F462020020
:1061DC00BCA1030068C50300242B0020242B002045
:1061EC00A4A30300A4A30300A4A30300A4A303007B
:1061FC00A4A30300A4A30300A4A30300A4A303006B
:10620C0068C503007CC60300382C0020382C002005
:10621C00382C0020C43F0020C43F0020C43F002085
:10622C00C43F0020C45F0020616202005D180300BF
:10623C000F484FF00701884385460E4880470E48AB
:10624C00016841F470010160BFF34F8FBFF36F8F92
:10625C00FFF73EBF09480A490A4A884207D0521A3A
:10626C0005D0037801300B700131013AF9D1704738
:10627C00000001202578020088ED00E038A303001F
:10628C00B82A0020242B0020FEE7FEE7FEE7FEE7FD
:10629C00FEE7FEE7FEE7FEE7FEE7FEE7FEE7FEE7CA
:1062AC00FEE7FEE7FEE7FEE7FEE7FEE7FEE7FEE7BA
:1062BC00FEE7FEE7FEE7FEE7FEE7FEE7FEE7FEE7AA
:1062CC00FEE7FEE7FEE7FEE7FEE7FEE7FEE7FEE79A
:1062DC00FEE7FEE7FEE7FEE7FEE7FEE7FEE7FEE78A
:0862EC00FEE7FEE7FEE700BF3C
:1062F40000B585B00190019B002B0AD0074B43F0F9
:1063040001030393019B9B010293039B029898470B
:1063140000E000BF05B05DF804FB00BFB0A30300BC
:1063240000B583B00190019B002B0AD04FF47A7022
:10633400FFF7DEFF019B013B0193019B002BF5D18D
:1063440000E000BF03B05DF804FB08B50BF098FC57
:1063540000BF08BD00B589B0039002910192019B72
:10636400002B33D00023079303230693029A079B41
:106374001344019A194600200BF034FC0590079A47
:10638400059B13440793019A059BD31A0193059B1C
:10639400002B13D10F4B1B7883F00103DBB2002BCE
:1063A40013D10120FFF7BCFF069B013B0693069B1C
:1063B400002B03D1074B00221A7007E0054B012282
:1063C4001A70019B002BD1D100E000BF00BF09B0BF
:1063D4005DF804FB382C002000B585B003900291D1
:1063E400054B00934023054A0299039800F012F8E4
:1063F40000BF05B05DF804FB596302003C2C00208B
:1064040082B0019000BF02B0704782B0019000BF1B
:1064140002B0704700B5A1B00590049103920293B5
:10642400049806F0E2F8039B1593029B169300234D
:10643400179300238DF8603000231993229B1A933D
:1064440000231F930FA91F9B0822049806F07CF9D0
:1064540008231F93119B1293BDF84030ADF84C30C4
:10646400BDF84230ADF84E3000238DF851309DF820
:106474003C3003F00303DBB2012B26D10F9BC3F3A3
:1064840095231D939DF83C30C3F3C203DBB28DF812
:106494005030BDF83C30C3F38313DBB21C931C9B18
:1064A4009A0009A91F9B049806F04EF91C9B9B00B7
:1064B4001F9A13441F9312AA09A915AB00931346FC
:1064C4001C9A1D9801F07AF82FE09DF83C3003F0F7
:1064D4000303DBB2022B28D1BDF83E30C3F389138A
:1064E4009BB21E939DF83C30C3F3C203DBB28DF81C
:1064F40050301E9B082B28BF08231B9307A91F9B02
:106504001B9A049806F020F91F9A1B9B13441F93AF
:106514001E9A1B9BD31A1E9315AB12AA07A81B998C
:1065240001F0EEF81E9B002BE3D1049806F06CF802
:1065340000BF21B05DF804FB82B00190019B0122F1
:106544005A7200BF02B0704700B583B04FF0FF33FA
:106554000193FFF7FAFE0421054800F04FFF019074
:106564000348FFF7E9FF00BF03B05DF804FB00BF79
:10657400242B002000B583B001900091019B1B687F
:106584001B6800990198984700BF03B05DF804FBAD
:1065940000B583B00190019B1B685B680198984724
:1065A40000BF03B05DF804FB00B583B00190019B0C
:1065B4001B689B680198984700BF03B05DF804FB13
:1065C40082B001900B468DF80330019B9DF80320A7
:1065D4001A7200BF02B0704782B00190019B1B7A0F
:1065E400184602B0704782B00190019B01225A7292
:1065F40000BF02B0704782B00190019B5B7A1846DD
:1066040002B0704700B587B0019000911D4BFF2286
:106614009A601C4B00221A601A4B00225A60194BD4
:106624000022C3F81824174B0022C3F81424154B76
:10663400002283F82024144805F03CFF0490049BB6
:10664400002B01D0049B18E0104A114BD31ADB082D
:106654000393002305930BE0059B9B000D4A134411
:106664000293059B9AB2029B1A80059B0133059302
:10667400059A039B9A42EFD30023184607B05DF8AE
:1066840004FB00BF4C2D0020F0A20300F0A2030085
:1066940040A20300B82A0020024A034BD31ADB08A5
:1066A40018467047F0A2030040A2030000B587B06B
:1066B40001900B468DF803309DF80330002B1FD05A
:1066C400FFF7EAFF04900023059313E0059B9B006A
:1066D4000E4A13440393039B5B881A46019B1B6871
:1066E4009A4204D1019B059A1A60002309E0059B94
:1066F40001330593059A049B9A42E7D3052300E0EE
:106704000023184607B05DF804FB00BFB82A002038
:1067140000B585B001900B468DF803309DF8032039
:1067240001AB11461846FFF7C1FF0346002B07D102
:10673400019BDB00054A13440393039B1B6800E0A1
:106744000023184605B05DF804FB00BF40A2030017
:1067540084B001900B468DF80330019BDB00174A8F
:10676400134402939DF80330013B032B1CD801A270
:1067740052F823F0896702009167020099670200CA
:10678400A367020002238DF80F3011E004238DF873
:106794000F300DE0029B1B798DF80F3008E0029B4F
:1067A4005B798DF80F3003E000238DF80F3000BFC4
:1067B4009DF80F30184604B0704700BF40A2030094
:1067C40084B00190009100238DF80F30019B1B7859
:1067D40003F00303DBB2002B06D0019B1B7803F00C
:1067E4000403DBB2002B3DD0019B1B7803F00403B0
:1067F400DBB2002B21D0019B1B78C3F30103DBB276
:10680400012B02D0022B0CD029E0009B1B68019ABB
:106814001288C2F38312D2B213449A1C009B1A60EA
:106824001DE0009B1B68019A5288C2F3891292B240
:1068340013449A1C009B1A6011E0009B1A68019B88
:106844005B88C3F389139BB21946019B1B88C3F36E
:1068540089139BB20B4413445A1C009B1A600123F6
:106864008DF80F309DF80F30184604B070470000C3
:1068740000B58BB00023ADF826303B4804F080FC13
:106884003A4804F07DFC3A4B5B680493384B9B68B0
:106894000693049A069B134002339B00344A134424
:1068A4000433089304AB19460898FFF789FF03469D
:1068B400002B09D0049A069B134002339B002C4AF8
:1068C400134404330893EDE700BF0023079311E05A
:1068D400079B9B0001AA1A44049B591C0491069926
:1068E4000B40234902339B000B445B681360079BF6
:1068F40001330793079B012BEAD99DF80430C3F3B6
:106904000103DBB2012B11D0022B00D01CE0BDF837
:106914000A30ADF82630BDF80630C3F389139BB2B4
:1069240003339A08049B134404930DE0BDF80A3022
:10693400ADF82630BDF80430C3F38313DBB21A4636
:10694400049B1344049300BF084804F025FC0590FD
:10695400059B002B02D0049B054A5360BDF82630EA
:1069640018460BB05DF804FB643100206031002050
:106974004C2D002000B585B00021074804F035FBFC
:106984000390039B0293029B83F310030193019BE7
:10699400184605B05DF804FB6831002000B589B0E5
:1069A4000390029101920093039B1B0C0793FFF742
:1069B400E1FF0690009B5A1C0A9B1340069A11049F
:1069C400079A0A431C4902339B000B445A60009AFD
:1069D4000A9B134002339B00174A13440433059364
:1069E400039BDBB203F00703D9B2059A137861F372
:1069F400C5031370019BDBB203F00F03D9B2059AF0
:106A0400138861F389131380029BC3F31501059A5C
:106A1400136861F39F231360059A1378012161F3CE
:106A240001031370059A13786FF38203137000BF88
:106A340009B05DF804FB00BF4C2D002000B58DB0FB
:106A44000390029113468DF80730039B02330A9397
:106A540001238DF8273000238DF81B300DF11B0323
:106A6400184602F06BFA414B1A68029B1A603F4BBE
:106A74009A683E4B59683D4B1B68CB1A134401334B
:106A84000B9314E001213A4804F03EFBFFF7F0FEBB
:106A940008900899364804F037FB344B9A68334B16
:106AA4005968324B1B68CB1A134401330B930A9A6F
:106AB4000B9B9A42E6D89DF82730002B4AD000233E
:106AC40005939DF80730002B18D09DF8143001224F
:106AD40062F301038DF814309DF8143043F004037D
:106AE4008DF81430039BDBB203F00F03DAB2BDF868
:106AF400143062F38913ADF8143017E09DF81430A4
:106B0400022262F301038DF814309DF8143043F02F
:106B140004038DF81430039B9BB2C3F309039AB2A8
:106B2400BDF8163062F38F13ADF816300F4B1A68A8
:106B34000E4B9B68134002339B000C4A13440433EE
:106B44000793059A079B1A60084B1A680A9B13441B
:106B5400064A13609DF81B30184602F0F9F99DF8B7
:106B6400273018460DB05DF804FB00BF4C2D002003
:106B74006831002000B58DB003900291019200238A
:106B84000B93039B0133039300238DF817300DF10E
:106B94001703184602F0D2F92E4B1A68019B1A60AB
:106BA4002C4B9A682B4B59682A4B1B68CB1A1344FD
:106BB40001330A93274B1B68DA43264B9B68134027
:106BC400013309930A9A099B934228BF13460893F9
:106BD4000A9A099B9A4203D90A9A099BD31A00E09C
:106BE40000230793039A089B9A4204D9039B5A1ED5
:106BF400079B9A4223D8039A089B9A4202D9099B7D
:106C0400013B00E00023029A1360124B1A68029BB6
:106C14001B6813445A1C0F4B9B6813400693069B36
:106C240002339B000B4A134404330B93094B1A6839
:106C3400029B1968039B0B441344064A13609DF896
:106C44001730184602F084F90B9B18460DB05DF816
:106C540004FB00BF4C2D002000B58BB00190294BE4
:106C640093F82034002B02D1019B002B01D1019B0E
:106C740043E0244B9B680993019813F06DFA034693
:106C840001330893089B03339B0807930023049361
:106C940003AA04AB19460798FFF76CFF0690069BFE
:106CA400002B29D0039A099B134002339B00154AF9
:106CB400134404330593059B00221A60059A137844
:106CC4006FF301031370049B9BB2C3F3090399B2DE
:106CD400059A138861F38F131380079B9BB2C3F348
:106CE400090399B2059A538861F38F135380089A64
:106CF4000199069813F0B0F9069B18460BB05DF89D
:106D040004FB00BF4C2D002000B58BB0059004910E
:106D1400039202931F4B9B68079306AB012219460B
:106D24000298FFF78BFE0346002B24D0069B023308
:106D340009930023089311E0099B5A1C0992079AAE
:106D44001340089A920003990A44126811490233C5
:106D54009B000B445A60089B01330893089A029BDA
:106D64009A42E9D3069A079B00931346029A049920
:106D74000598FFF713FE074B93F82034002B05D03A
:106D840000BF00F03BF90346002BFAD100BF0BB063
:106D94005DF804FB4C2D002000B583B001900091F8
:106DA4000023002200990198FFF7AEFF00BF03B053
:106DB4005DF804FB00B587B0039002910192019B3A
:106DC400059305AA012302990398FFF79DFF00BFCD
:106DD40007B05DF804FB00B587B0039002910192FF
:106DE4000093019B0493009B059304AA0223029938
:106DF4000398FFF789FF00BF07B05DF804FB00B5F7
:106E040089B00390029101920093019B0593009B2A
:106E140006930A9B079305AA032302990398FFF795
:106E240073FF00BF09B05DF804FB00B58BB003909D
:106E3400029101920093019B0593009B06930C9B86
:106E440007930D9B08930E9B099305AA05230299AA
:106E54000398FFF759FF00BF0BB05DF804FB00B5C2
:106E64008BB00390029101920093019B0493009BC9
:106E740005930C9B06930D9B07930E9B08930F9B06
:106E8400099304AA062302990398FFF73DFF00BF64
:106E94000BB05DF804FB000000B58DB003900291C7
:106EA4001346ADF806304C4B9B680B93BDF8063087
:106EB40003339B0805A900221846FFF7BFFD0346CC
:106EC400002B79D0059B0A93059B02330593424B13
:106ED4009A6805990B9B0B40D31A01339B000993C5
:106EE400BDF80620099B9A420ED8059A0B9B1340C5
:106EF40002339B00384A13440433BDF80620029938
:106F0400184613F0A9F817E0059A0B9B13400233B7
:106F14009B00314A13440433099A0299184613F02A
:106F24009BF8029A099BD118BDF80620099BD31A35
:106F34001A462A4813F090F8039B1B0C0893FFF79A
:106F440019FD07900A9B5A1C0B9B1340079A1104C6
:106F5400089A0A43204902339B000B445A600A9A58
:106F64000B9B134002339B001B4A134404330693C8
:106F7400039BDBB203F00703D9B2069A137861F3DB
:106F8400C5031370069A13886FF38F131380BDF82B
:106F94000630C3F3090399B2069A538861F38F1339
:106FA4005380069A1378022161F301031370069A41
:106FB40013786FF382031370074B93F82034002B7C
:106FC40005D000BF00F01AF80346002BFAD100BF29
:106FD4000DB05DF804FB00BF4C2D0020582D00209F
:106FE400054B5A68044B1B689A420CBF01230023CB
:106FF400DBB21846704700BF4C2D002000B599B095
:10700400FFF7EEFF0346002B01D00023B8E19A4BB3
:107014000022C3F81824BFF34F8F974B5B68049387
:10702400954B9B681093049A109B134002339B006A
:10703400914A1344043317930023169300231593A2
:1070440000230F9304AB19461798FFF7B9FB0346C7
:10705400002B14D0884B1A68049B9A4205D8864B9F
:107064001B68854A536000238AE1049A109B1340ED
:1070740002339B00804A134404331793E2E700BFB2
:107084000023149311E0149B9B0001AA1A44049B4F
:10709400591C049110990B40774902339B000B440F
:1070A4005B681360149B01331493149B012BEAD97E
:1070B4009DF8043003F00303DBB2022B40F09C8004
:1070C400BDF80630C3F389139BB20E93BDF80630A6
:1070D400C3F389139BB2502BA8BF50230D930D9B70
:1070E4009BB2C3F309039AB2BDF8063062F38F135F
:1070F400ADF806300D9B08330C939DF80430C3F3B0
:10710400C203DBB20F930C995C4805F0DEF91690CC
:10711400169B002B00F0D480169805F066FA01A99E
:10712400159B0822169805F0FDFA159B0833159354
:10713400049BDA43109B134001339B000B930D9A7D
:107144000B9B9A4242D90B9B002B08D0049A109BAC
:10715400134002339B00484A1344043300E0484B75
:107164000A930B9B002B02D00B9BDBB201E00D9B1F
:10717400DBB28DF827300B9B002B01D0404B00E095
:10718400002308930B9B002B06D00D9BDAB20B9BBC
:10719400DBB2D31ADBB200E000238DF81F309DF878
:1071A4002720159B0A99169805F0BCFA9DF82730FC
:1071B400159A13441593089B002B16D09DF81F2095
:1071C400159B0899169805F0ADFA0EE0049A109BE9
:1071D400134002339B00284A134404330693159B3F
:1071E4000D9A0699169805F09DFA0E9B03339A089A
:1071F400049B1344049363E09DF8043003F00303F9
:10720400DBB2012B5CD1BDF80430C3F38313DBB2D2
:10721400062B28BF0623DBB203F00F03DAB2BDF856
:10722400043062F38913ADF80430BDF80430C3F3BD
:107234008313DBB2023305939DF80430C3F3C20316
:10724400DBB20F93059B9B0019460C4805F03DF9F2
:107254001690169B002B33D0169805F0C6F901A999
:10726400159B0822169805F05DFA159B08331593B3
:10727400002314931BE000BF4C2D0020F0A2030058
:10728400582D0020049B5A1C0492109A1340023378
:107294009B003D4A1344191D159B0422169805F0C2
:1072A40041FA159B04331593149B01331493BDF8D1
:1072B4000430C3F38313DBB21A46149B9A42E1D819
:1072C400169B002B3FD0304BD3F8103413932E4B26
:1072D400D3F81834002B1AD0169805F095F949E024
:1072E40000238DF84B301398FFF785F90346002BE4
:1072F40002D001238DF84B309DF84B30002B03D086
:1073040016991398FFF736F9139B5B681393139B35
:10731400002BE5D1169805F077F900238DF803309A
:107324000DF10303184601F009FE174BD3F8183486
:10733400002B02D1049B144A53609DF80330184675
:1073440001F006FE16E0104BD3F81034119305E05B
:107354001198FFF729F9119B5B681193119B002B7E
:10736400F6D10A4B1B881B0443F002030849184654
:10737400FFF712FDFFF734FE034683F00103DBB28F
:10738400184619B05DF804FB4C2D0020DC2A0020BF
:10739400D0A3030000B585B00023039322E0164B6D
:1073A400D3F81034029301238DF807300EE00298CD
:1073B400FFF712F903461A46039B9A4203D10023AE
:1073C4008DF8073005E0029B5B680293029B002B5B
:1073D400EDD19DF80730002B01D0039B07E0039B00
:1073E40001330393039B092BD9DD4FF0FF33184678
:1073F40005B05DF804FB00BF4C2D002000B585B03E
:1074040001900B468DF80330FFF7C4FF0390039BF4
:10741400B3F1FF3F01D1039B1EE0039BDBB219468E
:107424000198FFF7CDF80E4BD3F81034002B07D199
:107434000B4A019BC2F81034019B00225A600AE0F7
:10744400074BD3F810345A68019B5A60044BD3F8A5
:107454001034019A5A60039B184605B05DF804FB8A
:107464004C2D002000B583B00C4BD3F8103401939D
:107474000A4B012283F8202408E00198FFF7B3F8AF
:107484000198FFF785F8019B5B680193019B002B32
:10749400F3D100BF03B05DF804FB00BF4C2D002006
:1074A40082B00190009100BF02B0704710B584B063
:1074B40003900291039BDB88002B0AD0039BDB889B
:1074C4001A461F4B009313461E4A1F49029803F0A5
:1074D40033FF039B1B7A052B2ED0039B5B7A002B77
:1074E40012D0039B9B881A46039B1B7A19461046AD
:1074F400FFF72EF903461A46144B53F822301A4666
:107504001349029803F018FF039B1B68194602985D
:10751400FFF7C6FF039B1B7A1A460E4B53F8224013
:10752400039B9B8800211846FFF7F2F80346224686
:107534000949029803F000FF00BF04B010BD00BF6A
:1075440004A4030014A403004CA40300442B00204F
:1075540064A40300302B002068A4030000B585B0A8
:107564000390029113468DF80730039B1B7A052B79
:107574000FD0039B5B7A002B06D00D4B1B681A4679
:107584000C49029803F0D8FE0B49029803F0D4FE8C
:1075940007E09DF80730002B03D00749029803F059
:1075A400CBFE029803F0B0FE00BF05B05DF804FB0B
:1075B400442B002064A4030074A4030030B58BB0F2
:1075C40007900691059204930E9B1B7B8DF8273040
:1075D4000E9B00221A730E990498FFF767FF059B10
:1075E400062B7FD801A252F823F000BF0D760200CB
:1075F40017760200277602003B76020059760200D5
:1076040081760200B176020007990E9803F094FE89
:1076140069E0069B1B681A4607990E9803F08CFED6
:1076240061E0069B1A68069B04331B6807990E9851
:1076340003F082FE57E0069B1A68069B0433196820
:10764400069B08331B6800930B4607990E9803F0BA
:1076540073FE48E0069B1968069B04331868069B72
:1076640008331B68069A0C32126801920093034691
:107674000A4607990E9803F05FFE34E0069B1868EB
:10768400069B04331C68069B08331B68069A0C325D
:1076940012680699103109680291019200932346F9
:1076A400024607990E9803F047FE1CE0069B1C68EF
:1076B400069B04331D68069B08331B68069A0C322C
:1076C400126806991031096806981430006803900E
:1076D4000291019200932B46224607990E9803F0DB
:1076E4002BFE00E000BF00220E990498FFF736FF3E
:1076F4000E9B9DF827201A7300BF0BB030BD00BF4E
:1077040000B587B00390029101920093029B082B6D
:107714005CD8009B1B7B8DF81330009B00221A73EE
:1077240000990198FFF7C2FE0023059314E0059A1F
:10773400029B9A4209D2039A059B13441B781A466A
:107744002449009803F0F8FD03E02349009803F06E
:10775400F3FD059B01330593059B072BE7D91F49CF
:10776400009803F0E9FD0023059322E0059A029BAB
:107774009A4217D2039A059B13441B788DF8123052
:107784009DF81230184612F061FC0346002B02D01B
:107794009DF8123000E02E231A461149009803F098
:1077A400CBFD03E00F49009803F0C6FD059B0133B0
:1077B4000593059B072BD9D9012200990198FFF75E
:1077C400CDFE009B9DF813201A7300E000BF07B0A4
:1077D4005DF804FB78A4030080A4030084A40300E0
:1077E40088A403008CA40300BFF34F8F0549054B05
:1077F400DB6803F4E062044B1343CB60BFF34F8FA9
:1078040000BFFDE700ED00E00400FA05024B034A67
:107814001A6000BF704700BF682B00200090D0039F
:1078240008B500F095F90346002B06D0B64AB74BCD
:107834001B681B0A03F01F03136000F0B5F903462D
:10784400002B02D0B24BB34A1A6000F0C9F90346C8
:10785400002B06D0B04AB14B1B685B0B03F0070347
:10786400136000F0E9F90346002B05D0AC4AAC4B99
:10787400DB6823F08073D36000F0FAF90346002B31
:107884000ED04FF080430022C3F80C214FF0804308
:107894000022C3F810214FF080430022C3F838259A
:1078A40000F012FA0346002B02D09E4B03221A600A
:1078B40000F026FA0346002B0BD09B4B05221A60DE
:1078C4009A4B01221A609A4B00221A60994B3F226C
:1078D4001A6000F031FA0346002B76D0964A4FF036
:1078E4008053D3F80434C2F82035934A4FF08053C0
:1078F400D3F80834C2F824358F4A4FF08053D3F8B4
:107904000C34C2F828358C4A4FF08053D3F8103425
:10791400C2F82C35884A4FF08053D3F81434C2F897
:107924003035854A4FF08053D3F81834C2F83435D3
:10793400814A4FF08053D3F81C34C2F840357E4A54
:107944004FF08053D3F82034C2F844357A4A4FF0CC
:107954008053D3F82434C2F84835774A4FF0805323
:10796400D3F82834C2F84C35734A4FF08053D3F817
:107974002C34C2F85035704A4FF08053D3F8303469
:10798400C2F854356C4A4FF08053D3F83434C2F8FB
:107994006035694A4FF08053D3F83834C2F86435FF
:1079A400654A4FF08053D3F83C34C2F86835624AD4
:1079B4004FF08053D3F84034C2F86C355E4A4FF030
:1079C4008053D3F84434C2F8703500F0D1F903463B
:1079D400002B05D0594A5A4B1B6803F04F03136020
:1079E40000F0F2F90346002B0DD04FF08043D3F89A
:1079F400003403F00103002B05D04FF080436FF0F7
:107A04000102C3F8002400F00BFA0346002B05D052
:107A14004C4A4C4B1B6843F4806313604A4A4A4BFC
:107A2400D3F8883043F47003C2F88830BFF34F8F23
:107A3400BFF36F8F4FF01023D3F80C3203F0010320
:107A4400012B25D1414B0122C3F8042500BF3F4B34
:107A5400D3F80034002BFAD04FF010224FF010234B
:107A6400D3F80C3223F00103C2F80C3200BF374BB9
:107A7400D3F80034002BFAD0344B0022C3F8042589
:107A840000BF324BD3F80034002BFAD0FFF7ACFE22
:107A94004FF01023D3F80032002B05DB4FF01023F6
:107AA400D3F80432002B2BDA284B0122C3F8042527
:107AB40000BF264BD3F80034002BFAD04FF010232C
:107AC4001522C3F8002200BF204BD3F80034002B4A
:107AD400FAD04FF010231522C3F8042200BF1B4B29
:107AE400D3F80034002BFAD0184B0022C3F8042535
:107AF40000BF164BD3F80034002BFAD0FFF774FE06
:107B0400FFF784FE00BF08BD403501402403001088
:107B140074C007400DF0ADBA3C05004044020010AB
:107B2400F0ED00E0A00500401056004088560040EB
:107B3400185600401456004000C00040E40E0040B7
:107B4400580200103C17004000ED00E000E0014046
:107B5400124B1B68DBB2062B1DD1114B1B6803F0C3
:107B64000F03002B17D10F4B1B6803F0F003302BCE
:107B740001D1012310E00B4B1B6803F0F003402BF1
:107B840001D1012308E0074B1B6803F0F003502BDD
:107B940001D1012300E0002318467047E00F00F0F4
:107BA400E40F00F0E80F00F00A4B1B68DBB2062B71
:107BB4000DD1094B1B6803F00F03002B07D1074BB2
:107BC4001B6803F0F003302B01D1012300E00023F4
:107BD40018467047E00F00F0E40F00F0E80F00F0E3
:107BE400124B1B68DBB2062B1DD1114B1B6803F033
:107BF4000F03002B17D10F4B1B6803F0F003302B3E
:107C040001D1012310E00B4B1B6803F0F003402B60
:107C140001D1012308E0074B1B6803F0F003502B4C
:107C240001D1012300E0002318467047E00F00F063
:107C3400E40F00F0E80F00F00A4B1B68DBB2062BE0
:107C44000DD1094B1B6803F00F03002B07D1074B21
:107C54001B6803F0F003302B01D1012300E0002363
:107C640018467047E00F00F0E40F00F0E80F00F052
:107C7400124B1B68DBB2062B1DD1114B1B6803F0A2
:107C84000F03002B17D10F4B1B6803F0F003302BAD
:107C940001D1012310E00B4B1B6803F0F003402BD0
:107CA40001D1012308E0074B1B6803F0F003502BBC
:107CB40001D1012300E0002318467047E00F00F0D3
:107CC400E40F00F0E80F00F00A4B1B68DBB2062B50
:107CD4000DD1094B1B6803F00F03002B07D1074B91
:107CE4001B6803F0F003302B01D1012300E00023D3
:107CF40018467047E00F00F0E40F00F0E80F00F0C2
:107D04000A4B1B68DBB2062B0DD1094B1B6803F031
:107D14000F03002B07D1074B1B6803F0F003302B34
:107D240001D1012300E0002318467047E00F00F062
:107D3400E40F00F0E80F00F00A4B1B68DBB2062BDF
:107D44000DD1094B1B6803F00F03002B07D1074B20
:107D54001B6803F0F003502B01D1012300E0002342
:107D640018467047E00F00F0E40F00F0E80F00F051
:107D7400124B1B68DBB2062B1DD1114B1B6803F0A1
:107D84000F03002B17D10F4B1B6803F0F003302BAC
:107D940001D1012310E00B4B1B6803F0F003402BCF
:107DA40001D1012308E0074B1B6803F0F003502BBB
:107DB40001D1012300E0002318467047E00F00F0D2
:107DC400E40F00F0E80F00F0124B1B68DBB2062B47
:107DD4001DD1114B1B6803F00F03002B17D10F4B60
:107DE4001B6803F0F003302B01D1012310E00B4B8F
:107DF4001B6803F0F003402B01D1012308E0074B7B
:107E04001B6803F0F003502B01D1012300E0002391
:107E140018467047E00F00F0E40F00F0E80F00F0A0
:107E2400064B1B68062B05D1054B1B68062B01D19D
:107E3400012300E000231846704700BF3001001002
:107E4400340100102DE9F04F89B0019000238DF822
:107E54001F3098E0514B1A689DF81F30DB00134423
:107E64000693069B1B7819464FF001024FF000035E
:107E7400A1F1200EC1F1200003FA01F902FA0EFE6D
:107E840049EA0E0922FA00F049EA000902FA01F867
:107E9400CDE90489424BD3E90001DDE9042302EA78
:107EA400000203EA0103134368D0DDE904236FEA07
:107EB40002006FEA03013A4BD3E9002302EA00020D
:107EC40003EA01033649C1E90023069B1B781846DF
:107ED40005F064FD03468DF80F30069B1B781946A8
:107EE4004FF001024FF00003A1F1200EC1F1200078
:107EF40003FA01F502FA0EFE45EA0E0522FA00F035
:107F0400054302FA01F4274BD3E9002304EA020AE9
:107F140005EA030B9DF80F204FF00003069909783A
:107F2400A1F1200EC1F1200003FA01F702FA0EFEBE
:107F340047EA0E0722FA00F0074302FA01F6BB45AE
:107F440008BFB2451AD19DF80F30069A5278012A1B
:107F54000CBF01220022D2B293420CBF01230023A2
:107F6400DBB20293069B5B68002B07D0069B5B6821
:107F7400069A12780299C9B2104698479DF81F30A4
:107F840001338DF81F30084B1B789DF81F209A424F
:107F9400FFF460AF00BF09B0BDE8F08F703100207E
:107FA400A8310020A03100207431002070B586B0C3
:107FB40001900A468DF803204FF001014FF00002B2
:107FC4000198A0F12006C0F1200502FA00F401FA9C
:107FD40006F6344321FA05F52C4301FA00F3CDE902
:107FE40004342F4B184600F015FF0390039B002B1D
:107FF40053D12C4BD3E90012DDE9043403EA010325
:1080040004EA0204234337D1019805F0C7FC034670
:10801400002B0CD0244BD3E90012DDE9043443EAED
:10802400010344EA0204204AC2E900340FE0DDE916
:1080340004346FEA03016FEA04021B4BD3E90034F2
:1080440003EA010304EA0204174AC2E90034154BA7
:10805400D3E90012DDE9043443EA010344EA0204EB
:10806400104AC2E900340E48104B1B68002219461E
:1080740000F09EFE039011E0DDE904346FEA030191
:108084006FEA0402074BD3E9003403EA010304EA6C
:108094000204044AC2E9003400E000BF06B070BD27
:1080A4007C310020A8310020A0310020783100204C
:1080B40010B58AB003900B4601928DF80B30019BEA
:1080C400042B01D807235AE005F078FB034683F01C
:1080D4000103DBB2002B09D005F01EFB0990099BBC
:1080E4000893089B002B01D0089B48E0254A039B7A
:1080F4001360254A9DF80B301370244A019B1360CA
:10810400234A4FF000034FF00004C2E90034214A2F
:108114004FF000034FF00004C2E9003422E09DF860
:108124000B30DB00039A1344079305AB00210A4686
:108134001A800A469A7003238DF81430079B9B78A3
:108144008DF81530079B1B78184605AB124A194663
:1081540005F040FB0990099B0693069B002B01D078
:10816400069B0CE09DF80B305A1E8DF80B20002B5B
:10817400D5D10A4A00210A4800F0EAFD0346184610
:108184000AB010BD70310020743100207831002015
:10819400A0310020A8310020B17F0200497E0200F6
:1081A40090A4030000B583B0002301930CE00C4BB2
:1081B4001A68019BDB0013441B780121184605F063
:1081C40079FB019B01330193064B1B781A46019BF3
:1081D4009A42ECD80023184603B05DF804FB00BFB4
:1081E400703100207431002000B587B00190002365
:1081F400039300230493019B059303AB1A460021C8
:1082040044F2010007F0F4FD00BF07B05DF804FB81
:1082140086B003900291019201238DF817309DF8E6
:1082240017301F4A039B13601D4A029B53601C4A6C
:10823400019B9360039B44F20102934212D044F2E7
:108244000202934221D1019B154AD360144BDB688F
:108254001B881A46124B9A61114BDB685B68104A03
:10826400D36112E0019B0E4A13610D4B1B699B689D
:108274000B4A53610A4B1B691B68094A9361084BFB
:108284001B695B68064AD36100BF72B600BF9DF8E4
:108294001730DBB2002BFAD162B600BF06B07047CC
:1082A400B031002082B003468DF8073007499DF9AC
:1082B40007305B099DF8072002F01F02012000FA35
:1082C40002F241F8232000BF02B0704700E100E051
:1082D40082B003468DF8073008499DF907305B09E1
:1082E4009DF8072002F01F02012000FA02F2203359
:1082F40041F8232000BF02B0704700BF00E100E056
:1083040082B003468DF8073008499DF907305B09B0
:108314009DF8072002F01F02012000FA02F2403308
:1083240041F8232000BF02B0704700BF00E100E025
:1083340082B003468DF8073008499DF907305B0980
:108344009DF8072002F01F02012000FA02F26033B8
:1083540041F8232000BF02B0704700BF00E100E0F5
:1083640082B0034600918DF807309DF90730002B49
:108374000CDA0D499DF8073003F00F03043B009A13
:10838400D2B25201D2B20B441A7609E007499DF9E0
:108394000730009AD2B25201D2B20B4483F80023C0
:1083A40000BF02B0704700BF00ED00E000E100E054
:1083B40000B585B00190019B002B0AD0074B43F018
:1083C40001030393019B9B010293039B029898472B
:1083D40000E000BF05B05DF804FB00BFA0A40300EB
:1083E40000B583B00190064A019BC2F80835072105
:1083F4001120FFF7B5FF00BF03B05DF804FB00BF19
:108404000010014008B50D4B4FF48032C3F84423EB
:108414000A4B4FF48032C3F804231120FFF788FF7E
:108424001120FFF73FFF054B01221A602F20FFF7B1
:10843400BFFF034B01221A7000BF08BD00100140AA
:10844400DE33002008B51120FFF742FF0E4B4FF436
:108454008032C3F848230C4B4FF48032C3F808230E
:10846400094B01225A602F20FFF7A2FF064B01227D
:108474009A60064B00221A602F20FFF799FF044BE5
:1084840000221A7000BF08BD00100140D033002044
:10849400DE330020024BD3F804351846704700BF82
:1084A4000010014082B001900091019A009BD31A00
:1084B40023F07F43184602B07047000082B0019059
:1084C400034A019BC2F8403500BF02B0704700BFA9
:1084D4000010014086B00190284B1B68002B03D18B
:1084E400264A019B136045E0019B1A68234B1B68D5
:1084F4001B689A4210D8214B1B68204A12681168E5
:10850400019A12688A1A1A601C4B1A68019BDA6174
:108514001A4A019B13602DE0019B1B680393174BC0
:108524001B680593154B1B68049309E0049B1B68A7
:10853400039AD31A0393049B0593049BDB69049366
:10854400049B002B04D0049B1A68039B9A42EDD32E
:10855400049B002B05D0049B1A68039BD21A049B2E
:108564001A60019B039A1A60019B049ADA61059BC5
:10857400019ADA6100BF06B0704700BFCC33002017
:1085840000B587B001902A4B1B680393284B1B68E6
:108594000593059B049308E0049A019B9A4208D032
:1085A400049B0593049BDB690493049B002BF3D188
:1085B40000E000BF049B002B01D1002333E0059AA7
:1085C400049B9A4214D11A4B1B68DB69184A136046
:1085D400174B1B68002B0BD1164B01229A60164BCC
:1085E40000221A60154B01221A702F20FFF7E0FEBB
:1085F400049B1B680293049BDA69059BDA61059B63
:10860400DB690493049B002B05D0049B1A68029B2E
:108614001A44049B1A60064B1B68039A9A4214BFBF
:1086240001230023DBB2184607B05DF804FB00BF4A
:10863400CC33002000100140D0330020DF33002071
:1086440008B51120FFF75CFE00BF08BD08B5142073
:10865400FFF756FE00BF08BD00B583B00190019B33
:108664005B69019A92691046984700BF03B05DF8B0
:1086740004FB000000B585B02B4B1B68002B4ED0CB
:1086840000230193FFF706FF0246284B1B68194697
:108694001046FFF707FF0290234B1B6803931DE06E
:1086A400039B1A68029B9A421CD8039B1B68029A7C
:1086B400D31A0293039B1B68019A13440193039BEF
:1086C4000093039BDB690393009B1B7C002B05D069
:1086D400009B00221A740098FFF7BEFF039B002B37
:1086E400DED100E000BF124B1A78124B1B789A427D
:1086F4000CD1104B1B780133DAB20E4B1A700D4BB0
:108704001B78022B02D10B4B00221A70094B1B78E9
:108714001946094A019B42F82130FFF797FF00BF31
:1087240005B05DF804FB00BFCC330020D03300203B
:10873400DC330020DD330020D433002082B00190EC
:10874400184B1A78184B1B789A4223D0154B1B7878
:108754000133DAB2134B1A70124B1B78022B02D17D
:10876400104B00221A700F4B1B781A460F4B53F80C
:108774002220019B1A60019B1A680D4B1B6813444D
:108784000B4A13600A4B1B6823F07F43084A1360AB
:10879400012303E0019B00221A600023184602B063
:1087A400704700BFDC330020DD330020D4330020C9
:1087B400D033002088B003900291019200230793E4
:1087C40038E0204B1B680693069B1A68039B9A4269
:1087D40006D9069B1A68039BD21A069B1A602DE0E1
:1087E400069B1B68039AD31A0393069B1B68079A7C
:1087F40013440793069B00221A60124B1B680593CF
:10880400069BDB690F4A1360069BDB68002B11D0C3
:10881400029A079B134423F07F42069B5A60069BEF
:10882400DA68069B9A60019B1A68069BDA61019BD1
:10883400059A1A60034B1B68002BC2D100BF08B015
:10884400704700BFCC33002000B589B001900023ED
:108854008DF81F30664B1B680593AAE0019B002B23
:1088640005D0019B0693069BDB69019361E0614B94
:108874001B781A4613465B001344DB005D4A13441D
:10888400043304935B4B1B780133DAB2594B1A70EF
:10889400584B1A78574B9B789A4202D1554B002279
:1088A4001A70049B5B680693049B1B78022B04D00C
:1088B400032B1BD0012B1FD01DE0049B5B681846C3
:1088C400FFF75EFE0346002B02D001238DF81F3014
:1088D400069B00221A746CE0454B1B680393039BB0
:1088E40000221A74039BDB69414A1360404B1B68E6
:1088F400002BF1D15DE05CE000BF069B1B7C002BEC
:1089040000D056E0049B9A68069B5A60049BDA6880
:10891400069B9A60049B1A69069BDA60049B5A6959
:10892400069B9A61344B1B78002B02D0069B0022D5
:108934005A60069B5A68314B1B68D31A23F07F4355
:108944002F4A93420ED8069B5A682C4B1B68194633
:108954001046FFF7A7FD0246069B9B681A44069B38
:108964001A6017E0254B1A68069B5B681946104687
:10897400FFF798FD0290069B9A68029B9A4206D9DB
:10898400069B9A68029BD21A069B1A6002E0069B19
:1089940000221A60069B00225A60069B00229A60FD
:1089A400069B01221A74069B0022DA610698FFF7DF
:1089B40091FD019B002B7FF451AF0E4B1A780D4BA8
:1089C4005B789A427FF44AAF9DF81F30002B04D1A4
:1089D400074B1A68059B9A4201D0012300E000234B
:1089E40003F00103DBB2184609B05DF804FB00BFD5
:1089F400CC330020D0310020DF330020D0330020DE
:108A0400FEFF7F0010B588B00190254B1B68002B3A
:108A140043D0234B1B681B680793FFF73BFD06906D
:108A2400204B1B68059305990698FFF73BFD034609
:108A3400033304931C4B1B7883F00103DBB2002B3C
:108A440001D0FFF7DFFC049A079B934238BF13461B
:108A5400059A13440593059B23F07F4305930598DA
:108A6400FFF72CFDFFF716FD039006990398FFF717
:108A740019FD0346DC1C06990598FFF713FD034610
:108A84009C420AD9FFF706FD03461846FFF716FD78
:108A94002F20FFF78DFCFFF7D3FD00BF08B010BDFA
:108AA400CC330020D0330020DE33002000B587B063
:108AB4000023019300238DF81730194B1B6804938E
:108AC400184B1B6803936B461846FFF737FE0346A3
:108AD4008DF80B309DF80B30002B08D0009B01AAB9
:108AE40004991846FFF766FE01238DF81730019BA1
:108AF4001846FFF7A9FE0346002B02D001238DF888
:108B040017309DF81730002B02D00398FFF77AFF37
:108B1400054B00221A7000BF07B05DF804FB00BFCC
:108B2400D0330020CC330020DF33002082B0034652
:108B34008DF80730034A9DF80730537000BF02B028
:108B4400704700BFD031002084B00190144B5B7893
:108B540001338DF80F30124B9B789DF80F209A4209
:108B640002D100238DF80F300D4B1B789DF80F2098
:108B74009A4201D100230FE0019B9DF80F201A7047
:108B8400074B5B781A4613465B001344DB00044A28
:108B9400134404330293029B184604B0704700BF89
:108BA400D031002000B589B0039002910192009366
:108BB4000023079300238DF816300DF11603184691
:108BC40000F0BCF90DF117031846FFF7BDFF06903E
:108BD400069B002B02D10423079318E0069B012275
:108BE4001A70069B039A5A60FFF754FC0246069BD0
:108BF4009A60069B029ADA60069B019A1A61069BA8
:108C0400009A5A619DF817301846FFF78FFF9DF8B8
:108C14001630184600F09CF9079B002B01D1FFF792
:108C240015FD079B184609B05DF804FB00B587B035
:108C340001900B468DF803300023059300238DF833
:108C44000E300DF10E03184600F078F90DF10F0304
:108C54001846FFF779FF0490049B002B02D10423EC
:108C640005930BE0049B9DF803201A70049B019A62
:108C74005A609DF80F301846FFF758FF9DF80E30E4
:108C8400184600F065F9059B002B01D1FFF7DEFCC7
:108C9400059B184607B05DF804FB000008B50E4BB1
:108CA4000022C3F840210C4B0022C3F844210A4B94
:108CB4000022C3F84821084B0022C3F84C21064B7C
:108CC4000022C3F80021044B0022C3F80421FFF75B
:108CD400D1FC00BF08BD00BF0010014008B5FFF77C
:108CE400E5FE00BF08BD000008B5FFF7ABFB134B62
:108CF40000221A70114B00225A70104B15229A70E0
:108D04000F4B00221A600F4B00221A700E4B0022E8
:108D14001A701420FFF70CFB07211420FFF720FB27
:108D24001420FFF7BFFA0020FFF75AFBFFF7B2FB4E
:108D34000246064B1A600023184608BDD0310020B5
:108D4400CC330020DC330020DD330020D03300207E
:108D540086B003900B4601928DF80B30134B9B7831
:108D6400002B01D108231EE0019B002B01D1072316
:108D740019E0039B002B01D1072314E0039B1B681C
:108D84001B7C002B01D008230DE0039B1B6805937B
:108D9400059B00221A74059B9DF80B205A74059BB1
:108DA400019A5A610023184606B07047D03100205A
:108DB40000B587B0039002910192039B0593144B75
:108DC4009B78002B01D108231EE0039B002B01D1CB
:108DD400082319E0029B042B01D8072314E0059B08
:108DE4005B69002B01D108230EE0059B5B7C012B02
:108DF40001D1029B00E000230493019B049A029991
:108E04000598FFF7CFFE0346184607B05DF804FB4C
:108E1400D031002000B585B00190019B03930D4B28
:108E24009B78002B01D1082310E0019B002B03D079
:108E3400039B5B69002B01D1082307E0039B0022FD
:108E44001A7402210398FFF7F1FE0346184605B091
:108E54005DF804FBD031002082B0EFF3108300935F
:108E6400009B019372B6019B184602B0704762B62C
:108E740000BF704700B585B00190FFF7EDFF039088
:108E8400164B9B68002B1BD1144B01229A60144B88
:108E9400D3F88020134B1340104A1360104B114A2F
:108EA400C3F880200E4BD3F884300C4A53600C4B2B
:108EB4004FF0FF32C3F88420019B00221A7002E0B5
:108EC400019B01221A70039B002B01D1FFF7CFFFF6
:108ED4000023184605B05DF804FB00BFE033002012
:108EE40000E100E0FC06FFBD00B585B003468DF847
:108EF4000730104B9B68002B16D09DF80730002BD1
:108F040012D1FFF7A9FF03900B4A0A4B1B681360A9
:108F1400094A084B5B685360064B00229A60039B26
:108F2400002B01D1FFF7A3FF0023184605B05DF81D
:108F340004FB00BFE033002000E100E000B583B093
:108F440001900198FFF796FF00BF03B05DF804FBA2
:108F540000B583B003468DF807309DF807301846F6
:108F6400FFF7C2FF00BF03B05DF804FB82B00190BD
:108F7400019B03F00303002B0CBF01230023DBB28E
:108F8400184602B07047000000B585B00190002378
:108F940003930EE00A4A039B52F82330002B05D0BA
:108FA400074A039B52F8233001989847039B0133E7
:108FB4000393039B072BEDD900BF05B05DF804FBB9
:108FC400FC33002082B001900091019B1B78013B8F
:108FD400052B61D801A252F823F000BFF98F0200DB
:108FE400019002002790020059900200799002003B
:108FF40095900200009B00221A704EE0009B012213
:109004001A70019B1A89009B9A81019B9A88009B84
:10901400DA81019BDA68009B9A60009B00221A7433
:109024003BE0009B02221A70019B1A89009B9A81E3
:10903400019B9A88009BDA81019BDA68009B9A6005
:10904400019B9B7D062B0CBF01230023DAB2009BFE
:109054001A7422E0009B03221A70019BDA88009B99
:109064009A81019B1A89009BDA81019BDA68009B33
:109074009A6012E0009B04221A70019BDA88009B1C
:109084009A81009B0022DA81009B00229A6004E00E
:10909400009B05221A7000E000BF00BF02B07047B9
:1090A40084B001900091019B0393039A009B9A4220
:1090B40006D2039B1B68B3F1FF3F01D0012300E0FC
:1090C400002303F00103DBB2184604B0704782B0FA
:1090D4000190019B5B8803339B00019A134418465B
:1090E40002B0704700B583B0019000910198FFF77A
:1090F400EEFF0246009B9A4201D902230CE0019B39
:109104009B884FF6FF72934203D0019B1B88002B70
:1091140001D1012300E00023184603B05DF804FBED
:1091240000B583B00190019B002B13D00D4BDB687D
:109134001A46019B9A420DD80A4B1B691A46019B99
:109144009A4207D30198FFF711FF0346002B01D081
:10915400012300E0002303F00103DBB2184603B04F
:109164005DF804FB102B002082B00190019B002BC2
:1091740004D0019B1B680B4A934201D003230DE0EA
:10918400019B04331B68084A934204D0074A934264
:1091940003D1012302E0002300E00323184602B0B8
:1091A400704700BFDEC0ADDEFE011EF1FF011EF1FF
:1091B40084B00190002303930CE0039B9B00019A6D
:1091C40013441B68B3F1FF3F01D0002307E0039B66
:1091D40001330393039BB3F5806FEED30123184649
:1091E40004B0704782B003460A46ADF80630134611
:1091F400ADF80430BDF80620134913469B00134410
:109204009B000B4408331A88BDF804301344ADF8AE
:109214000430BDF806200C4913469B0013449B0000
:109224000B440A331A88BDF804301344ADF80430F3
:10923400BDF8043040F2FF32934294BF012300236F
:10924400DBB2184602B07047E434002084B00190C9
:1092540000910A2303930023ADF80A3027E0BDF8F8
:109264000A20174913469B0013449B000B44043304
:109274001A68009B9A4215D2BDF80A201049134679
:109284009B0013449B000B4404331B6803F580527A
:10929400009B9A4206D900230393019BBDF80A2040
:1092A4001A8008E0BDF80A300133ADF80A30BDF881
:1092B4000A30042BD3D9039B184604B0704700BF6F
:1092C400E434002000B589B0039002910192039B1D
:1092D40003F580530693039B08330393029B0222F6
:1092E4001A80039B079332E006990798FFF7FAFE6A
:1092F40003468DF817309DF81730002B0AD1079BD1
:109304009A68184B1B689A4213D9079B9B68154AA5
:1093140013600EE0019B002B02D0019B01221A7006
:109324009DF81730022B04D1029B4FF480621A80FF
:1093340014E0029B1A88079B5B8813449BB2033397
:109344009AB2029B1A800798FFF7C1FE079006990C
:109354000798FFF7A5FE0346002BC5D109B05DF8B9
:1093640004FB00BF1C34002082B001900091009BDC
:109374009B7D022B09D9019B1A89009BDB8813442E
:109384009BB203339AB2019B1A81019B5A89009BB9
:10939400DB88D31A9BB2033B9AB2019B5A8100BF6C
:1093A40002B0704700B583B0074B1B681946002311
:1093B40000930823054A064802F0B6FB0346184604
:1093C40003B05DF804FB00BF48350020B8A40300D7
:1093D400102B002000B585B003900399002300935F
:1093E4000823044A044802F09FFB0346184605B0CC
:1093F4005DF804FBC0A40300102B002000B585B069
:1094040003460091ADF8063000238DF80F30BDF807
:1094140006300333ADF80A30BDF80A3040F2FD32AD
:10942400934201D909234AE00023ADF80C303BE014
:10943400BDF80C20244913469B0013449B000B44A5
:109444001B78002B2BD1BDF80A20BDF80C30114637
:109454001846FFF7C7FE0346002B20D001238DF8E2
:109464000F30009BBDF80C201A80BDF80C20BDF80D
:109474000C1015480B469B000B449B0003440A3315
:109484001988BDF80A300B4498B20F4913469B0063
:1094940013449B000B440A3302461A8008E0BDF8CB
:1094A4000C300133ADF80C30BDF80C30042BBFD9AF
:1094B4009DF80F30002B01D0002300E0072318464D
:1094C40005B05DF804FB00BFE434002082B003461D
:1094D4000A46ADF806301346ADF80430BDF8042052
:1094E400BDF804100C480B469B000B449B0003443E
:1094F4000A331988BDF80630CB1A9BB2033B98B2E5
:10950400054913469B0013449B000B440A3302464F
:109514001A8000BF02B07047E434002008B501216E
:10952400024801F0F1FD0346184608BD1C34002032
:1095340000B585B003460091ADF80630BDF80620AD
:10954400234913469B0013449B000B4404331B68BC
:1095540003F580530293009B1B680393039B002B2A
:1095640004D00398FFF7B3FD039024E0BDF8062070
:10957400174913469B0013449B000B4404331B6898
:109584000833039317E002990398FFF7ABFD0346F2
:10959400012B09D0022B0CD0002B00D00BE0009B38
:1095A400039A1A6001230EE00398FFF790FD0390DD
:1095B40001E0002307E002990398FFF771FD0346D9
:1095C400002BE0D10023184605B05DF804FB00BF72
:1095D400E434002000B585B001900091019B5B68E4
:1095E4001846FFF79DFD0346002B19D0019B1A89ED
:1095F400244B1B899A4213D1019B1A68019B5B6817
:109604009B689A420CD1019B5B6819460098FFF74E
:109614001DFE0346002B0CBF01230023DBB22CE00C
:10962400009B00221A8023E00023029310E0029B97
:109634000393039B9A68019B1B689A4208D1029A80
:10964400019B5A600F4B1A89019B1A81012314E074
:10965400009B1B8802AA11461846FFF769FF0346C0
:10966400002BE4D1009B1B8801339AB2009B1A8023
:10967400009B1B88042BD7D90023184605B05DF83E
:1096840004FB00BF5035002000B587B00390029161
:1096940001920093304B1B78DBB283F00103DBB201
:1096A400002B01D0022353E0019B002B02D0009B2E
:1096B400002B48D105234BE0009B9B881946274A81
:1096C4000B469B000B449B0013441B78002B33D1A7
:1096D40024E0009B1B680593039B002B06D0059B8D
:1096E4009A88039B1B889A4200D017E0029B002BA8
:1096F40006D0059B1A88029B1B889A4200D00DE075
:10970400059B9A68019B1A60009B1A68019B5A602A
:10971400134B1A89019B1A81002319E0009B9B8833
:10972400009A11461846FFF703FF0346002BD0D1D9
:10973400009B00221A6000E000BF009B9B8801335D
:109744009AB2009B9A80009B9B88042BB4D90A236D
:10975400184607B05DF804FBEC330020E434002025
:109764005035002000B587B0029101920093034662
:10977400ADF80E30BDF80E20314913469B0013445A
:109784009B000B4404331B6808330593BDF80E207B
:109794002B4913469B0013449B000B4404331B6862
:1097A40003F58053049341E004990598FFF79AFC6C
:1097B4000346012B04D0022B22D0002B15D034E019
:1097C400019B1B8801339AB2019B1A80009B1A8863
:1097D400059B5B8813449BB203339AB2009B1A80A7
:1097E4000598FFF774FC059020E0029B1B88013369
:1097F4009AB2029B1A800598FFF769FC059015E060
:10980400019B1B8801339AB2019B1A80009B1A8822
:109814000499059BCB1A9B109BB213449AB2009BEC
:109824001A80089B01221A7007E000BF049905986A
:10983400FFF736FC0346002BB6D107B05DF804FBF6
:10984400E434002000B585B00190084B0199184616
:1098540001F02AFB03901C220021039810F026FC3F
:10986400039B184605B05DF804FB00BF6C2B002079
:1098740000B583B00190044B0199184601F02DFB0B
:1098840000BF03B05DF804FB6C2B002000B583B06F
:109894000190054B0199184601F033FB0346184625
:1098A40003B05DF804FB00BF6C2B002000B583B04F
:1098B4000190044B0199184601F03CFB00BF03B032
:1098C4005DF804FB6C2B002008B50121054801F06C
:1098D40033FC0346002B14BF01230023DBB21846DC
:1098E40008BD00BFF433002000B587B00023059302
:1098F4000023ADF812300623ADF8103000238DF8A4
:109904000F300023ADF80C30F0E0BDF80C301B0331
:109914001A467F4BDB68134402930298FFF724FC3A
:1099240003468DF807309DF80730012B00F09C802A
:10993400032B02D0002B62D0D3E00298FFF738FC4F
:109944000346002B3BD0734B1B68002B29D0BDF87A
:109954001220714913469B0013449B000B440222BE
:109964001A70BDF812206C4913469B0013449B00E7
:109974000B440433029A1A60BDF812206649134658
:109984009B0013449B000B44083302221A80634A51
:10999400BDF812305380BDF812300133ADF81230E7
:1099A40008E05C4A029B13605A4B02229A8001230E
:1099B4008DF80F30059B43F00103059391E0BDF84A
:1099C4001030013BADF81030BDF812205249134657
:1099D4009B0013449B000B440433029A1A60BDF8A5
:1099E40012204D4913469B0013449B000B44032251
:1099F4001A70BDF812300133ADF8123071E0BDF8C1
:109A04001220454913469B0013449B000B4400223B
:109A14001A70BDF81220404913469B0013449B0062
:109A24000B440433029A1A60BDF8122013469B00BB
:109A340013449B000833384A9918BDF81220134682
:109A44009B0013449B001033334A13441A46029874
:109A5400FFF738FC059B43F002030593BDF8123071
:109A64000133ADF812303CE09DF80F30002B25D0C7
:109A7400BDF81220284913469B0013449B000B4455
:109A840002221A70BDF81220224B1968224813468C
:109A94009B0013449B00034404331960BDF8122057
:109AA4001D4913469B0013449B000B4408330222B8
:109AB4001A80BDF812300133ADF81230154A029BFA
:109AC4001360002216490298FFF7FCFB114B9B8898
:109AD400022B01D1042300E00823059A13430593C4
:109AE40000BFBDF80C300133ADF80C30BDF80C30BC
:109AF400052B7FF60AAFBDF81030012B01D80023E7
:109B04000593059BDBB2184607B05DF804FB00BF64
:109B1400102B002048350020E4340020503500206C
:109B24004C35002000B587B003900291039B0222BC
:109B34009A750299039B1A1D002300930423074876
:109B440001F0F2FF0590059B002B01D1002300E0FA
:109B54000E23184607B05DF804FB00BF102B00204D
:109B640000B587B003900291039B1B69002B01D0C1
:109B7400032200E00122039B9A75029B08331946D5
:109B8400039B03F10C02002300930423064801F015
:109B9400CBFF0590059B002B01D1002300E00E2391
:109BA400184607B05DF804FB102B002000B587B001
:109BB40003900291039B1B78032B01D1052200E043
:109BC4000622039B9A75029B04331946039B03F1F7
:109BD4000802002300930423064801F0A5FF059022
:109BE400059B002B01D1002300E00E23184607B08B
:109BF4005DF804FB102B002000B587B003900B46E2
:109C0400ADF80A3003990023009304230C4A0D484D
:109C140001F08AFF0590059B002B01D00E230BE079
:109C2400BDF80A20084913469B0013449B000B44CB
:109C3400103301221A700023184607B05DF804FBA4
:109C4400C8A40300102B0020E434002000B589B020
:109C5400019002AB00221A605A609A60019BDB6893
:109C640002930DF1160202AB11461846FFF7B2FC3F
:109C74000346002B12D0039B0693069B9A88019BF4
:109C8400DA80069B1A88019B1A81039BBDF8162073
:109C940011461846FFF7B0FF079001E00A23079327
:109CA400079B184609B05DF804FB000000B587B0B7
:109CB4000190019B981D02AA0D4B0021FFF7E4FCC3
:109CC4000590059B002B08D1039A094B9B881946E4
:109CD4001046FFF791FF059004E008220021044894
:109CE40010F0E4F9059B184607B05DF804FB00BFCB
:109CF4006035002000B587B003900291039B0122D8
:109D04009A75029B0C331846039B1A69039BDB88E4
:109D14009900002300930B460146074801F004FF15
:109D24000590059B002B01D1002300E00E2318466B
:109D340007B05DF804FB00BF102B002082B0174B66
:109D44001B8901339AB2154B1A81144B00225A8095
:109D5400124B0022DA730023ADF8063017E0BDF889
:109D64000610BDF806200E4813469B0013449B00C2
:109D740003441B78002B0CBF01230023DAB2074BEA
:109D84000B449A72BDF806300133ADF80630BDF8C5
:109D94000630042BE3D900BF02B0704750350020D1
:109DA400E434002084B0019000238DF80F300023A8
:109DB400ADF80C3031E0BDF80C301C4A13449B7AEA
:109DC400002B25D0BDF80C30184A134400229A7297
:109DD400BDF80C20164913469B0013449B000B440A
:109DE4000C331B68002B13D1BDF80C20104913460B
:109DF4009B0013449B000B4410331B78002B07D0AB
:109E0400019BBDF80C201A8001238DF80F3008E067
:109E1400BDF80C300133ADF80C30BDF80C30042B18
:109E2400C9D99DF80F30184604B07047503500204A
:109E3400E434002008B5084B05221A70074B0222AF
:109E44009A80064B1B68194600230122044801F03E
:109E540043FF0346184608BD50350020483500200E
:109E6400102B002000B583B0164B5B88ADF8023090
:109E7400BDF80220144913469B0013449B000B4475
:109E84000C331B68002B14D10E4B04221A70BDF83E
:109E940002200D4913469B0013449B000B440433DA
:109EA4001B68194600230122084801F015FF0190A0
:109EB40002E0FFF7BFFF0190019B184603B05DF875
:109EC40004FB00BF50350020E4340020102B002098
:109ED40000B587B0114B5B680593114B1A68104BA2
:109EE4009B889B0013440493059B5B880333ADF864
:109EF4000E300A4B03221A700499084B5A68BDF8B5
:109F04000E309800002300930346064801F00CFE2F
:109F14000346184607B05DF804FB00BF5035002027
:109F240048350020102B002000B583B00A4B5B8815
:109F34000A491846FFF7FCFA0346002B03D0FFF743
:109F4400C7FF019002E0FFF78DFF0190019B1846C7
:109F540003B05DF804FB00BF5035002054350020E9
:109F640008B50A4B06221A70084B5B881946084A42
:109F74000B469B000B449B00134404331B68184698
:109F8400FFF728FA0346184608BD00BF50350020E5
:109F9400E434002008B5054B07221A70034B002255
:109FA4005A60FFF7FFF90346184608BD50350020F4
:109FB40008B50D48FFF7F6FE034683F00103DBB254
:109FC400002B0BD0094B00221A70084B00225A8038
:109FD400064B00225A6041F61D5302E0FFF7A4FF2E
:109FE4000346184608BD00BF5235002050350020F6
:109FF40082B0094B5B680193019B5B880333ADF826
:10A004000230064B9A88BDF8023013449AB2034BCF
:10A014009A8000BF02B070475035002048350020B8
:10A0240082B0184B1B680193174B5B881946174A7B
:10A034000B469B000B449B00134404331B68114ADA
:10A044001360114B5B881946104A0B469B000B4466
:10A054009B0013440433019A1A600B4B5B88194626
:10A06400084B9888094A0B469B000B449B001344F9
:10A07400083302461A80034B02229A8000BF02B0C2
:10A08400704700BF4835002050350020E4340020DC
:10A0940008B51A4B1B78072B2CD801A252F823F0D1
:10A0A400C5A00200F9A00200F9A00200D1A002009C
:10A0B400DDA00200E9A00200E9A00200F1A0020074
:10A0C400FFF73CFE0D4B01221A7014E0FFF790FFDE
:10A0D4000A4B02221A700EE0FFF7A2FF074B06227A
:10A0E4001A7008E0054B07221A7004E0034B0122A2
:10A0F4001A7000E000BF00BF08BD00BF503500204B
:10A1040000B587B0019000910F230593019B002BAC
:10A1140004D0624B00225A600123BBE0009B1B79F0
:10A12400032B00F2AB8001A252F823F041A10200FC
:10A134004FA10200DDA10200FDA10200009B01224B
:10A144001A71FFF72FF905909BE000238DF8133067
:10A154000023ADF810302BE0BDF810205049134611
:10A164009B0013449B000B441B78022B1BD1BDF8AE
:10A1740010204B4913469B0013449B000B440022C0
:10A184001A7001238DF81330BDF81020444913468A
:10A194009B0013449B000B4404331B681846FFF7D1
:10A1A40019F9059008E0BDF810300133ADF810300E
:10A1B400BDF81030042BCFD99DF8133083F0010380
:10A1C400DBB2002B5CD0354B01221A70334B0022DA
:10A1D4005A6041F61D535DE0009B00221A71314B19
:10A1E40002229A802F4B1B681946002301222E4815
:10A1F40001F072FD059044E0009B00221A71294B86
:10A204001B681846FFF7E6F80590284B5B88ADF805
:10A214000E30244B1B680293BDF80E2020491346D0
:10A224009B0013449B000B4404331B681D4A1360BA
:10A23400BDF80E201A4913469B0013449B000B449F
:10A244000433029A1A60BDF80E20164B98881449FC
:10A2540013469B0013449B000B44083302461A80A8
:10A26400104B02229A80BDF80E200D4913469B0024
:10A2740013449B000B4400221A7002E000BF00E06C
:10A2840000BF059B002B04D0044B00225A600E2310
:10A2940000E00023184607B05DF804FBEC3300200F
:10A2A400E434002048350020102B002050350020D5
:10A2B40000B587B001900091009B9B8A1A46134613
:10A2C4009B0013449B003A4A13440493019B002BC4
:10A2D40005D000990498FFF747F8012363E0049B35
:10A2E4005A68049B1B899B0013440393009B9B7D2A
:10A2F400062B4DD801A252F823F000BF43A302005D
:10A3040067A302004FA302005BA302001DA3020087
:10A3140073A302008DA30200264B00225A60009B07
:10A324009B69244A136024492248FFF753F90346E2
:10A3340083F00103DBB2002B01D00A2333E003993D
:10A344000098FFF7EFFB059025E003990098FFF7CD
:10A3540007FC05901FE003990098FFF7CBFC0590DC
:10A3640019E003990098FFF721FC059013E0009B86
:10A3740006229A750F4B5A680F4B1B8819461046D4
:10A38400FFF73AFC059006E041F61D53059302E001
:10A394000F23059300BF059B002B03D0009904985D
:10A3A400FEF7E2FF059B184607B05DF804FB00BF0B
:10A3B400E4340020683500207435002000B585B0F1
:10A3C40001900091019B002B01D0012323E0009B0D
:10A3D4001B79012B0BD0022B14D0002B16D1009B20
:10A3E40002221A710098FFF731FC039012E00098E2
:10A3F400FFF75CFC0390039B0A2B0AD141F61D5323
:10A40400039306E041F61D53039303E00F230393E4
:10A4140000E000BF039B184605B05DF804FB000094
:10A4240000B585B00190019B002B01D001233BE0D6
:10A434001F4BDB7B002B03D01D4B0022DA7301E0A2
:10A44400FFF726FE1A4B1B78013B062B28D801A2E6
:10A4540052F823F075A402007DA4020085A4020032
:10A464008DA40200A5A4020095A402009DA40200EC
:10A47400FFF79EFD039016E0FFF756FD039012E0F0
:10A48400FFF726FD03900EE0FFF7ECFC03900AE0D3
:10A49400FFF766FD039006E0FFF77CFD039002E002
:10A4A4000F23039300BF039B184605B05DF804FB1C
:10A4B4005035002000B589B001903A4B1B68002B41
:10A4C40005D13948FFF7E2F90246364B1A60354B9D
:10A4D4001B681B78013B052B2BD801A252F823F0F3
:10A4E400FDA402000DA502000DA502001DA5020099
:10A4F4001DA502002DA502002A4B1B6819460198D0
:10A50400FFF7FEFD019017E0264B1B6819460198E2
:10A51400FFF7CEFE01900FE0224B1B68194601980D
:10A52400FFF74CFF019007E00198FFF779FF0190D6
:10A5340002E00F23019300BF019B002B2BD003AB40
:10A5440000221A605A609A60DA601A61019B41F62F
:10A554001D52934201D0019B00E000230493114B50
:10A564001B6803AA11461846FEF72CFD03AB1846D8
:10A57400FEF70AFD0B4B00221A60002301930A48E0
:10A58400FFF794F9FFF7A0F9034683F00103DBB268
:10A59400002B02D191E700BF00E000BF00BF09B06B
:10A5A4005DF804FB783500207C35002008B50121D6
:10A5B400054800F091FD0346002B02D10020FFF76F
:10A5C40079FF00BF08BD00BFF433002000B583B09D
:10A5D4000190019B5B681846FFF76CFF00BF03B056
:10A5E4005DF804FB00B58BB00390029101928DF8E5
:10A5F40003300023ADF824300023ADF82630514B4E
:10A604001B78DBB283F00103DBB2002B01D0022301
:10A6140093E0029B002B01D105238EE0029B1B8853
:10A624004FF6FF72934203D0029B5B88002B01D14B
:10A63400042382E0029B5B681846FEF797FC0346FE
:10A6440083F00103DBB2002B01D0032375E0019BEF
:10A65400002B11D1029B9B68ADF826300DF11A0234
:10A66400BDF8263011461846FEF7C8FE0890089B30
:10A67400002B09D0089B60E0019B1B88ADF81A30C1
:10A68400019B5B88ADF8263005AB1846FFF7DAF876
:10A694000790079B002B09D1BDF81A20BDF826307E
:10A6A40011461846FEF712FF082346E0079B9DF863
:10A6B40003201A70079B00229A75BDF81A20079B85
:10A6C4009A82029B5A68079B1A61FEF727FF02468B
:10A6D400079BDA60029B1A88079B1A81029B5A889F
:10A6E400079B9A80079BBDF82620DA809DF80330EB
:10A6F400032B06D1079B04229A75039B1A68079BB8
:10A704009A61079BBDF824205A8105AB1846FFF7D0
:10A71400AFF8039B002B0DD0039B00225A60079BCC
:10A72400DA68039B1A60039B00229A72064B1A890B
:10A73400039B1A81FFF73AFF002318460BB05DF81C
:10A7440004FB00BFEC3300205035002000B585B079
:10A7540001900C4B1B68082B02D10C2303930BE0D4
:10A76400084B1B680849019A41F823200121054838
:10A7740000F0CAFC00230393039B184605B05DF860
:10A7840004FB00BFF8330020FC33002084B04FF0FA
:10A7940010235B6903934FF080531B6902934FF0BE
:10A7A40080535B690193039BB3F1FF3F04D1019B89
:10A7B400029A02FB03F300E0039B184604B07047BF
:10A7C40000B583B04FF4C0430193FFF7DFFF0246A7
:10A7D400054B1A61044B1A69019BD31A024AD360D0
:10A7E40000BF03B05DF804FB102B002008B5FFF791
:10A7F400E7FF00220349044801F052F903461846D2
:10A8040008BD00BFE8A60300102B002008B50448CB
:10A814001C23C422034900F000FB00BF08BD00BF95
:10A824006C2B00202034002000B58BB002AB00223A
:10A834001A605A609A60DA601A61404B1B78DBB286
:10A84400002B05D002AB1846FEF79EFB002371E0F7
:10A854003B4800F089FC0346002B01D0002369E04B
:10A86400FFF7C4FF0990099B002B01D0099B61E00D
:10A87400FFF7CCFFFFF738F803468DF823309DF837
:10A884002330022B0DD0062B0DD0002B09D000BF96
:10A8940001AB1846FEF7D6FF0790079B002B10D19B
:10A8A4000DE00B2346E0254B01221A70234B0022B6
:10A8B4005A6002AB1846FEF767FB00233AE0082310
:10A8C40038E0079B01221A709DF82330013B0A2BC4
:10A8D40028D801A252F823F009A9020029A90200EC
:10A8E40009A9020029A9020021A9020029A902003C
:10A8F40021A9020029A9020011A9020019A9020034
:10A9040011A90200079B00221A710CE0079B032285
:10A914001A7108E0079B02221A7104E0079B0122C6
:10A924001A7100E000BF01AB1846FEF7A1FFFFF764
:10A934003DFE002318460BB05DF804FBEC33002009
:10A94400F033002000B585B001900091019B002BED
:10A9540002D0009B002B01D1052329E00DF10A034D
:10A9640019460198FEF736FE0346002B1FD0019BC3
:10A974005B680393BDF80A301A4613469B001344E0
:10A984009B0008330C4A134404330121184600F099
:10A99400BBFB009B039A1A60019B5B6803F10C02EA
:10A9A400009B5A60019B01229A72002300E00A2353
:10A9B400184605B05DF804FBE434002000B585B00A
:10A9C4000190019B002B01D1052339E00DF10A030D
:10A9D40019460198FEF7FEFD0346002B2DD0BDF865
:10A9E4000A301946184A0B469B000B449B0013443B
:10A9F4000C331B68002B1DD0019B9B7A002B19D0B4
:10AA0400BDF80A301A46104913469B0013449B00B4
:10AA14000B440C331B68591E0B4813469B0013440C
:10AA24009B0003440C331960019B00229A7200239B
:10AA3400039304E00623039301E00A230393039B97
:10AA4400184605B05DF804FBE434002000B583B07B
:10AA5400019000910223002200990198FFF7C2FDA2
:10AA64000346184603B05DF804FB00B583B00190BB
:10AA74000091019B002B01D1052306E00323002252
:10AA840000990198FFF7AEFD0346184603B05DF840
:10AA940004FB000000B585B00346ADF80630184B42
:10AAA4001B78DBB283F00103DBB2002B01D002235D
:10AAB40022E0BDF806304FF6FF72934201D1042321
:10AAC4001AE002AB1846FEF7BDFE0390039B002B71
:10AAD40001D1082310E0039B05221A70039B012275
:10AAE4001A71039BBDF80620DA8002AB1846FEF704
:10AAF400BFFEFFF75BFD0023184605B05DF804FBBD
:10AB0400EC33002000B583B0144B1B78DBB283F028
:10AB14000103DBB2002B01D002231AE06B46184676
:10AB2400FEF790FE0190019B002B01D1082310E059
:10AB3400019B06221A706B461846FEF799FE084BD5
:10AB44001B78002B02D0064B0122DA73FFF72EFD8F
:10AB54000023184603B05DF804FB00BFEC3300206B
:10AB64005035002000B585B0029201930346ADF83C
:10AB74000E300B46ADF80C3003A90DF10E00019B0D
:10AB8400029AFEF781FD0346184605B05DF804FB02
:10AB940010B586B003904FF48063ADF814300023F1
:10ABA400ADF812304E4B1B78DBB283F00103DBB2FD
:10ABB400002B01D0022390E0039B002B01D105233D
:10ABC4008BE01222002103980FF070FA039B0622F7
:10ABD4001A800023ADF816307AE0BDF816204149FA
:10ABE40013469B0013449B000B4408331988BDF89B
:10ABF40016203C4813469B0013449B0003440A332D
:10AC04001B880B44ADF81030BDF8162035491346A7
:10AC14009B0013449B000B4404331B681846FEF747
:10AC2400A3FA0346032B05D1039B1B88013B9AB26D
:10AC3400039B1A80BDF816202A4913469B0013442F
:10AC44009B000B440C331968039B5A888BB2134442
:10AC54009AB2039B5A80039B1989BDF81620214898
:10AC640013469B0013449B0003440A331B880B4484
:10AC74009AB2039B1A81039B5A89BDF8103013447E
:10AC84009AB2039B5A81BDF81420BDF81030D31A30
:10AC9400ADF81230039B9B89BDF812209A4203D968
:10ACA400039BBDF812209A81039B191D039B9A1DD7
:10ACB400039B03F10E04039B1033BDF816000093AD
:10ACC4002346FEF74FFDBDF816300133ADF81630BC
:10ACD400BDF81630042B80D90023184606B010BDE9
:10ACE400EC330020E434002086B001900091019BF5
:10ACF40053E8011F8AB2D88902449889824228BF46
:10AD0400121A1889824202BFBFF32F8F002307E073
:10AD1400C2EA010243E801200028E9D14FF001030F
:10AD24008DF80F30059002910492029A009B1A60EC
:10AD34009DF80F30DBB2184606B0704784B001901E
:10AD4400019951E8013FC3EA034341E80132002A73
:10AD5400F7D10392029300BF04B0704786B001900C
:10AD64000091019B53E8021F1FFAA1F2D888824286
:10AD740002BFBFF32F8F00230DE0D88902449889C6
:10AD8400824228BF121AC1EA024243E80220002884
:10AD9400E8D14FF001038DF80F3005900291049231
:10ADA400029A009B1A609DF80F30DBB2184606B079
:10ADB400704784B00190019951E8023FC3EA2343EC
:10ADC40041E80232002AF7D10392029300BF04B093
:10ADD400704786B00190019B53E8021FDA88B1EBFB
:10ADE400314F4FF0000017BF89B242EA024241EAF4
:10ADF400024204E05968B1EB314F08BF012043E837
:10AE040002210029E8D18DF80F00059104929DF8E4
:10AE14000F30DBB2184606B0704784B0039002913D
:10AE240011461A460B46ADF806301346ADF8043009
:10AE3400029B002B01D10E231FE0BDF80630BDF8A4
:10AE44000420B3FBF2F102FB01F29B1A9BB2002B2C
:10AE540001D0092311E0039B029A1A60039B00228C
:10AE64005A60039B00229A60039BBDF806209A81D6
:10AE7400039BBDF80420DA810023184604B0704710
:10AE840000B585B001900198FFF7A3FF03468DF844
:10AE94000F309DF80F30002B01D0002300E0112368
:10AEA400184605B05DF804FB00B585B0019000912B
:10AEB400009B19460198FFF717FF0346002B07D0A4
:10AEC400019B1B68009A128813440393039B00E0C0
:10AED4000023184605B05DF804FB00B583B001906B
:10AEE4000091009B1A88009B5B889A4204D10198C8
:10AEF400FFF724FF012300E00023184603B05DF8A8
:10AF040004FB00B585B001900091009B194601989F
:10AF1400FFF724FF0346002B07D0019B1B68009A10
:10AF2400528813440393039B00E00023184605B0A2
:10AF34005DF804FB00B583B001900091009B1A8872
:10AF4400009B5B889A4204D10198FFF732FF0123EA
:10AF540000E00023184603B05DF804FB00B585B09B
:10AF640001900091009B5B099B00019AD018009B03
:10AF740003F01F03012202FA03F3194600F064F8F8
:10AF8400039000BF05B05DF804FB00B585B00190E7
:10AF94000091009B5B099B00019AD018009B03F071
:10AFA4001F03012202FA03F3DB43194600F07CF885
:10AFB400039000BF05B05DF804FB82B001900091DE
:10AFC400009B5B099B00019A13441A68009B03F0E1
:10AFD4001F0322FA03F303F00103002B14BF012320
:10AFE4000023DBB2184602B0704710B487B001905A
:10AFF4000091019B009A53E8004F104643E800017A
:10B0040091F0000FF7D1059404900391059B184625
:10B0140007B05DF8044B704710B487B001900091FD
:10B02400019B009A53E8004F44EA020043E8000100
:10B0340091F0000FF6D1059404900391059B1846F6
:10B0440007B05DF8044B704710B487B001900091CD
:10B05400019B009A53E8004F44EA020043E80001D0
:10B0640091F0000FF6D1059404900391049B1846C7
:10B0740007B05DF8044B704710B487B0019000919D
:10B08400019B009A53E8004F04EA020043E80001E0
:10B0940091F0000FF6D1059404900391059B184696
:10B0A40007B05DF8044B704710B487B0019000916D
:10B0B400019B009A53E8004F04EA020043E80001B0
:10B0C40091F0000FF6D1059404900391049B184667
:10B0D40007B05DF8044B704710B487B0019000913D
:10B0E400019B009A53E8004F04EB020043E800017F
:10B0F40091F0000FF6D1059404900391059B184636
:10B1040007B05DF8044B704710B487B0019000910C
:10B11400019B009A53E8004F04EB020043E800014E
:10B1240091F0000FF6D1059404900391049B184606
:10B1340007B05DF8044B704710B487B001900091DC
:10B14400019B009A53E8004FA4EB020043E800017E
:10B1540091F0000FF6D1059404900391049B1846D6
:10B1640007B05DF8044B704700B583B0019001212E
:10B174000198FFF751FF0346184603B05DF804FB3E
:10B1840000B583B0019001210198FFF75DFF0346EC
:10B19400184603B05DF804FB00B583B001900021AC
:10B1A4000198FFF769FF0346184603B05DF804FBF6
:10B1B40082B001900B468DF80330019BDA689DF84C
:10B1C40003300199898A01FB03F31344184602B042
:10B1D400704782B001900091009B019AD2689B1A3B
:10B1E400019A928AB3FBF2F3DBB2184602B07047BD
:10B1F40084B00190019B002B01D10E2321E0019B1F
:10B204009B681A46019B5B68D31A8DF80F30019B2B
:10B214001B68019A52681A6007E0019B1A68136858
:10B22400591C11609DF80F201A709DF80F305A1E9A
:10B234008DF80F20002BF0D1019B1B6800221A719E
:10B244000023184604B0704700B585B00190002370
:10B25400039300238DF80A300DF10A031846FDF715
:10B264006DFE019B1B681A68019B5B689A4220D99A
:10B27400019B1B681A68013A1A601B681B781946FF
:10B284000198FFF795FF0390019B9B681A46019B69
:10B294001B681B68D31A8DF80B30019B1B681B7944
:10B2A4009DF80B209A4204D9019B1B689DF80B2042
:10B2B4001A719DF80A301846FDF74AFE039B18469A
:10B2C40005B05DF804FB10B584B001900091009BBB
:10B2D400039300238DF80B300DF10B031846FDF793
:10B2E4002DFE019B1B681C68621C1A60039901985F
:10B2F400FFF76FFF034623709DF80B301846FDF7E8
:10B3040027FE00BF04B010BD00B583B00190019BBF
:10B314009B68002B0CD0019B5B69019A1069019A10
:10B324001168019A92689847019B00229A6000E094
:10B3340000BF03B05DF804FB0EB400B584B0019007
:10B34400059B002B0AD00023039306AB039303ABA6
:10B354001A460599019800F0ADF900E000BF04B069
:10B364005DF804EB03B0704700B583B001900B4661
:10B374008DF80330019B1A68019B9B68581C019946
:10B38400886013449DF803201A70019B9A68019BFE
:10B394005B689A4202D30198FFF7B6FF00BF03B07F
:10B3A4005DF804FB00B587B003900291019200930D
:10B3B40000230593009B03F00103002B24D00BE032
:10B3C400029B01330293059B013305939DF81330CF
:10B3D40019460398FFF7C8FF029B1B788DF81330BA
:10B3E4009DF81330002BEBD106E0019B013B019348
:10B3F40020210398FFF7B8FF019A059B9A422ED9A2
:10B40400019B002BF1D12AE0029B002B0BD0029868
:10B414000EF0A2FE059006E0019B013B0193202162
:10B424000398FFF7A1FF019A059B9A420FD9019B4C
:10B43400002BF1D10BE0029B01330293059B0133F6
:10B4440005939DF8133019460398FFF78DFF029B6F
:10B454001B788DF813309DF81330002BEBD100BF0F
:10B4640007B05DF804FB000000B589B003900291B9
:10B4740001920093029B07930123069307E0079A26
:10B48400019BB2FBF3F30793069B01330693079AE0
:10B49400019B9A42F3D2009A069B9A4201D9009BDF
:10B4A40006930B9B03F00103002B22D10A9B002B74
:10B4B4001FD00B9B03F00203002B06D0009B002B34
:10B4C40003D130238DF8173002E020238DF8173094
:10B4D40008E00A9B013B0A939DF81730194603982C
:10B4E400FFF742FF0A9B002B03D0069A0A9B9A425D
:10B4F400EFD301230793009B012B03D9009B013B4E
:10B50400009309E0029A079BB2FBF3F30493049AB5
:10B51400019B9A4200D205E0079B019A02FB03F3C8
:10B524000793E8E7029A079BB2FBF3F30493049BA7
:10B53400079A02FB03F3029AD31A0293154A049B57
:10B5440013441B7819460398FFF70EFF079A019BD3
:10B55400B2FBF3F30793079B002BE3D10B9B03F0A0
:10B564000103002B11D00A9B002B0ED006E00A9B8E
:10B57400013B0A9320210398FFF7F6FE0A9B002B58
:10B5840003D0069A0A9B9A42F1D300BF09B05DF832
:10B5940004FB00BFCCA4030000B589B0059004915E
:10B5A40003920293049B002BB8BF5B4206930123D2
:10B5B400079307E0039B069A92FBF3F30693079B1A
:10B5C40001330793039B069A9A42F3DA029A079B84
:10B5D4009A4201D9029B07930A9B002B0AD0049B31
:10B5E400002B04DB0B9B03F00403002B02D00A9B0B
:10B5F400013B0A930B9B03F00203002B02D0029B36
:10B60400002B16D00B9B03F00103002B11D10A9BD6
:10B61400002B0ED006E00A9B013B0A9320210598DB
:10B62400FFF7A2FE0A9B002B03D0079A0A9B9A42BB
:10B63400F1D3049B002B07DA049B5B4204932D2176
:10B644000598FFF791FE08E00B9B03F00403002B21
:10B6540003D02B210598FFF787FE0B9B03F0020311
:10B66400002B19D00B9B03F00103002B14D1029B78
:10B67400002B11D10A9B002B0ED006E00A9B013B44
:10B684000A9330210598FFF76FFE0A9B002B03D025
:10B69400079A0A9B9A42F1D304990B9B01930A9B44
:10B6A4000093029B039A0598FFF7DEFE00BF09B0E2
:10B6B4005DF804FB00B58FB0059004910392049BE0
:10B6C400002B00F0E981049B1B788DF83730049B34
:10B6D400013304939DF83730002B00F0D4819DF89A
:10B6E4003730252B40F0C38100230A9301230C93A8
:10B6F400049B1B788DF837309DF837302D2B04D000
:10B70400302B0AD02B2B10D017E00A9B43F00103F7
:10B714000A93049B0133049312E00A9B43F002034F
:10B724000A93049B013304930AE00A9B43F0040345
:10B734000A93049B0133049302E000230C9300BF9B
:10B744000C9B002BD4D1002309939DF837302A2B6E
:10B754000CD1039B1B68191D039A11601B68099A7D
:10B7640013440993049B013304931AE0049B1B784C
:10B774008DF837309DF837302F2B12D99DF837309C
:10B78400392B0ED8049B01330493099A13469B006A
:10B7940013445B001A469DF837301344303B099339
:10B7A400D3E700230B93049B1B788DF837309DF867
:10B7B40037302E2B1DD1049B01330493049B1B783B
:10B7C4008DF837309DF837302F2B12D99DF837304C
:10B7D400392B0ED8049B013304930B9A13469B0018
:10B7E40013445B001A469DF837301344303B0B93E7
:10B7F400E4E7049B1B788DF837309DF837306C2BC9
:10B8040003D09DF83730682B07D1049B0133049390
:10B81400049B1B788DF83730EFE79DF83730253BD4
:10B82400532B00F21F8101A252F823F05FBA0200E9
:10B8340069BA020069BA020069BA020069BA020070
:10B8440069BA020069BA020069BA020069BA020060
:10B8540069BA020069BA020069BA020069BA020050
:10B8640069BA020069BA020069BA020069BA020040
:10B8740069BA020069BA020069BA020069BA020030
:10B8840069BA020069BA020069BA020069BA020020
:10B8940069BA020069BA020069BA020069BA020010
:10B8A40069BA020069BA020069BA020069BA020000
:10B8B40069BA020069BA020069BA020069BA0200F0
:10B8C40069BA020069BA020069BA020069BA0200E0
:10B8D40069BA020069BA020069BA020069BA0200D0
:10B8E40069BA020069BA020069BA020069BA0200C0
:10B8F40069BA020069BA0200EBB9020069BA02002F
:10B9040069BA020069BA020069BA020069BA02009F
:10B9140069BA020069BA020069BA020069BA02008F
:10B9240069BA020081B90200A3B9020069BA02002F
:10B9340069BA020069BA020069BA0200A3B9020036
:10B9440069BA020069BA020069BA020069BA02005F
:10B9540069BA020069BA02002BBA020069BA02008D
:10B9640069BA02000FBA020069BA0200C7B902003C
:10B9740069BA020069BA0200EBB90200039B1B68B2
:10B98400191D039A11601B680C930C9B8DF82330CE
:10B994009DF8233019460598FFF7E6FC63E0039B06
:10B9A4001B68191D039A11601B680C930A9B019371
:10B9B400099B00930B9B0A220C990598FFF7ECFD59
:10B9C40051E0039B1B68191D039A11601B680C93BB
:10B9D4000C990A9B0193099B00930B9B0A220598DF
:10B9E400FFF742FD3FE0039B1B68191D039A11609A
:10B9F4001B680C930C990A9B0193099B00930B9B66
:10BA040010220598FFF730FD2DE0039B1B68191DDC
:10BA1400039A11601B6807930A9B099A0799059872
:10BA2400FFF7C0FC1FE0039B1B68191D039A1160FC
:10BA34001B680C9330210598FFF796FC7821059834
:10BA4400FFF792FC0C990023019308230093082329
:10BA540010220598FFF708FD05E025210598FFF75A
:10BA640083FC00E000BF049B0133049305E09DF8D0
:10BA7400373019460598FFF777FC049B1B78002B99
:10BA84007FF421AE00E000BF059B1B7B002B04D09C
:10BA94000598FFF739FC00E000BF0FB05DF804FB28
:10BAA40000B587B0059004910392059B002B0FD13C
:10BAB400184B1B881B0443F001031846164A174908
:10BAC4000E2300930B461649FBF799F90E231CE04D
