:0200000270008C
:10800000000001203D82070095820700978207004B
:10801000998207009B8207009D82070000000000F4
:10802000000000000000000000000000F1C8070090
:10803000A182070000000000A3820700A5820700BC
:10804000A9820700AB820700AD820700AF8207005C
:10805000B1820700B3820700B5820700B78207002C
:10806000B9820700BB820700BD820700BF820700FC
:10807000C1820700C3820700C5820700C7820700CC
:1080800039D2070071890700CD820700CF8207002F
:10809000D1820700D382070001CB0700D7820700F7
:1080A000D9820700DB820700DD820700DF8207003C
:1080B000E1820700E3820700A7820700A78207008A
:1080C000E5820700E7820700E9820700EB820700EC
:0C80D000ED820700EF820700F18207003C
:1080DC00364937480A1A02D0072291438D46354952
:1080EC0035480A1A06D00722914381F309880222E7
:1080FC0082F3148831483249324A00F045F832484C
:10810C003249334A00F040F832483349334A00F0E0
:10811C003BF833483349344A00F036F83348344995
:10812C00344A00F031F834483449354A00F02CF820
:10813C0034483549354A00F027F83548354900228E
:10814C0000F02DF834483549002200F028F8344866
:10815C003449091A082903DB00220260043001604B
:10816C00314A90471F482049884205D002680430A4
:10817C0003B4904703BCF7E700208646EC4600208A
:10818C0000212A4A9047FEE7884207D0521A05D0B0
:10819C00037801300B700131013AF9D170478842F4
:1081AC0002D002700130FAE7704700000000012095
:1081BC0000F80020000001200000012048DA070030
:1081CC00CC570020DD570020F4820700F482070012
:1081DC0094D5070048DA0700CC570020CC57002074
:1081EC0000D6070000D6070000D6070000D607000F
:1081FC0000D6070000D6070000D6070000D60700FF
:10820C0046DA07005CDA0700E0570020E057002050
:10821C00E0570020FB750020FC750020FC75002049
:10822C00FC750020FC75002061820700D19F0700BF
:10823C000F484FF00701884385460E4880470E488B
:10824C00016841F470010160BFF34F8FBFF36F8F72
:10825C00FFF73EBF09480A490A4A884207D0521A1A
:10826C0005D0037801300B700131013AF9D1704718
:10827C000000012035B0070088ED00E0ECD50700C8
:10828C00B8570020CC570020FEE7FEE7FEE7FEE7DC
:10829C00FEE7FEE7FEE7FEE7FEE7FEE7FEE7FEE7AA
:1082AC00FEE7FEE7FEE7FEE7FEE7FEE7FEE7FEE79A
:1082BC00FEE7FEE7FEE7FEE7FEE7FEE7FEE7FEE78A
:1082CC00FEE7FEE7FEE7FEE7FEE7FEE7FEE7FEE77A
:1082DC00FEE7FEE7FEE7FEE7FEE7FEE7FEE7FEE76A
:0882EC00FEE7FEE7FEE700BF1C
:1082F40012F0030310B511D1094C22604C1CE400A8
:10830400A4B22244074C2260074A1370074A137030
:10831400074A1080074A1846118010BD072010BD77
:10832400E8570020E4570020E0570020F0570020D1
:10833400EC570020EE5700202DE9F3472B4D2B88F6
:108344008B4206460C4617464BD302A84FF0000852
:1083540000F8018D00F0F2F9254B264A18781178BF
:10836400CBB2254909888B4238BF0133C0B238BF2C
:108374005FFA83F840452ED092F800801378DBB280
:10838400994286BF0133DBB2002313709DF80700C6
:1083940000F0F8F94FF6FF73984524D0DFF860A099
:1083A400DAF800304FEAC80903EB090243F83870E1
:1083B400A6B19CB1114B28881B68224608FB0030EB
:1083C400314605F057F8DAF800304B4400209C8021
:1083D40002B0BDE8F0874FF6FF78D7E70020908021
:1083E400F6E70920F4E70420F2E700BFEC57002089
:1083F400F0570020E0570020EE570020E4570020FB
:10840400E8570020F8B5124C124D264622782B78F6
:108414009A4200D1F8BD23780F48104A07881268A1
:108424000F48DBB219B202EBC10E006852F83120DA
:10843400BEF8041003FB070090470A4A2378128809
:10844400DBB29A4286BF0133DBB200233370DDE72F
:10845400F0570020E0570020EC570020E857002098
:10846400E4570020EE57002040684B6898428CBFC8
:10847400002001207047000037B505460C460A4825
:1084840001A900F0B2FA60B10570446001A9064880
:1084940000F0D5FA18B1054800F058FA002003B0EE
:1084A40030BD0420FBE700BF54580020CC57002007
:1084B40038B5104B1D780446A5B1C0B1037D03F057
:1084C400FF057BB1C36800699847A36863B1227D47
:1084D40002F0FF0542B16268074813446360214615
:1084E40000F0BCFD284638BD00252575FAE7054691
:1084F400F8E700BFF857002000D607002DE9F7433E
:10850400054600F013FA002848D10021284600F05F
:1085140012FA38B1574C236823B12068FFF7C8FF1B
:108524000023236001A95448DFF84881534EDFF843
:10853400549100F094FA0446002C4ED14F4F4D4C08
:10854400DFF84481384600F09FFD002800F0878062
:10855400426823685B68216851B12168D9B19A42A5
:1085640019D223681B7D1BB12168384600F076FDC3
:10857400384600F083FD4FF47A73064642680021C2
:10858400404600F089F9002862D1236813B92846CF
:1085940000F07AF9266003B0BDE8F083354A136829
:1085A4002BB113685B68126823F07F435360334830
:1085B40000F06AFD04460028A7D06368B3F1807F09
:1085C40006D22046FFF774FF204600F060FDF1E775
:1085D400636823F07F436360F6E72378012B2AD096
:1085E40009D3022B1DD10024304600F047FD00289A
:1085F4003CD00475F8E763681A7D92B901221A75B4
:1086040028465F6800F09EF9381A484588BF6268BA
:10861400616882BF536823F07F435360304600F0A3
:108624001DFD01A9144800F045FA01A9124800F003
:1086340016FA044680E7D8F800306168994208BF0A
:108644000023304608BFC8F8003000F022FDE8E7F8
:108654000D287FF477AF3046FFF72AFF72E72368CF
:10866400002B98D1284600F013F994E7044B01221B
:108674001A70D6E7645800205458002000D607002A
:10868400F857002017FCFF00CC57002013B5002337
:10869400ADF8043007238DF80630582208230B491F
:1086A4000B4800F06DF9044668B90A4A0A4801A962
:1086B40000F0AAF8044630B90121074800F02EF969
:1086C400064B01221A70204602B010BDFC57002050
:1086D4005458002001850700CC570020F85700208B
:1086E4003AB10368DA604A1E514251419960002050
:1086F400704707207047000038B50B4B9942044679
:108704000D460ED80261094800F01CF9A3682844FC
:10871400606003B1A56021460020BDE83840FFF742
:10872400ABBE072038BD00BF17FCFF00CC570020AC
:108734000023014603750120FFF79EBE70B5EFF3D9
:10874400108672B60C4A946801239CB993600B4B53
:108754000B4DD3F8801029401160C3F88050D3F832
:10876400841051604FF0FF32C3F88420047006B9BE
:1087740062B670BD0370FAE76858002000E100E0BB
:10878400FC06FFBD084B9A6810B55AB150B9EFF317
:10879400108272B605491C680C605C684C60986075
:1087A40002B962B610BD00BF6858002000E100E0C5
:1087B40030B53AB11368DB430B4C0144814204D118
:1087C400D84330BD4FF0FF33F6E710F8012B534088
:1087D400082213F0010F14BF25460025013A85EA4B
:1087E4005303F6D1EAE700BF2083B8ED435882B0C3
:1087F4003BB10023435043580193019B012002B035
:1088040070471846FBE70000F0B546791B4B1C4C3B
:1088140043F82620F50063191B7963BB03680A88B3
:10882400C3F8082590F904308A78002BA8BF03F117
:1088340060414FEA4212BBBF03F00F07114901F533
:108844006141D2B2AABFD2B2CA5581F8002303F063
:108854001F025B099B0003F16043012103F561439F
:10886400254401FA02F2C3F8802144F836001A6064
:1088740029710020F0BD0820F0BD00BF7C58002005
:108884007458002014ED00E0036801221A60704758
:10889400036801225A607047F7B54FF480348C4066
:1088A40089001F4601F5A0739BB20646006822F0BA
:1088B4007F450022C0F80843C0F84843C250014431
:1088C400C3580193019BD1F84025C1F84055D0F815
:1088D4000435D21A22F07F42012A05D10E4B4FF4FF
:1088E400046043F0010398473168C1F84443D1F868
:1088F4000425AD1A25F07F422B0248BF42F07F4287
:108904007F42BA4201DD022A04DDC1F8044300209B
:1089140003B0F0BD0D20FBE710D607000368022268
:10892400C3F8442309B1C3F8042370474FF4827198
:108934000068FFF75BBF890001F5A07189B2006888
:10894400FFF754BF0368D3F80405704790F9043067
:1089540001215A0903F01F0301FA03F340320249CB
:1089640041F82230704700BF00E100E0024B034AA7
:108974001B681068184700BF7C58002074580020FA
:1089840010B561B1B2FBF3F403FB1424A4B244B9EF
:1089940080E8120084608281C381204610BD0E20CD
:1089A40010BD092010BD82B050E8022FC188B2EB7F
:1089B400324F4FF0000317BF92B241EA014142EA3D
:1089C400014104E04268B2EB324F08BF012340E8A2
:1089D4000212002AE8D18DF807309DF80730002BE9
:1089E4000CBF1120002002B0704737B550E8013F9A
:1089F4009DB2C48925448489A54228BF2D1B0489BE
:108A0400A54202BFBFF32F8F002207E0C5EA03058A
:108A140040E80154002CE9D14FF001028DF8032005
:108A24000193019B9DF803200B6002F0FF0322B128
:108A34000B880068184403B030BD1846FBE70A8869
:108A44004B889A4209D150E8012FC2EA024240E819
:108A54000123002BF7D1012070470020704737B560
:108A640050E8023F1FFAA3F5C488A54202BFBFF332
:108A74002F8F00220DE0C48925448489A54228BF94
:108A84002D1BC3EA054540E80254002CE8D14FF001
:108A940001028DF803200193019B9DF803200B60D4
:108AA40002F0FF0322B14B880068184403B030BDC4
:108AB4001846FBE70A884B889A4209D150E8022FEE
:108AC400C2EA224240E80223002BF7D1012070477A
:108AD4000020704700B550E8002F42EA010340E847
:108AE400003E9EF0000FF6D110465DF804FB00B581
:108AF40050E8003F03EA010240E8002E9EF0000F18
:108B0400F6D110465DF804FB0121FFF7E3BF002115
:108B1400FFF7EDBF10B590B14268836801689B1AF6
:108B2400DBB20A60013BDBB2FF2B026802D10020FA
:108B3400107110BD11684C1C14600B70F2E70E200C
:108B440010BD37B5054602A8002400F8014DFFF713
:108B5400F5FD2A686B68116899420ED9481E1060A9
:108B640011F8014CEB68298A01FB0434AB681179D4
:108B74001B1ADBB2994238BF13719DF80700FFF747
:108B840001FE204603B030BD37B5054602A80023D8
:108B940000F8013D0C46FFF7D1FD2A681368591C03
:108BA4001160E968641A298AB4FBF1F41C709DF819
:108BB4000700FFF7E7FD03B030BD01600B68114605
:108BC400184710B40468E468A4465DF8044B604791
:108BD40010B404682469A4465DF8044B604700009F
:108BE40070B508B10368B3B90D4D0E4B14225B1B6D
:108BF4000024B3FBF2F302FB03F6A64201D10020EA
:108C040070BD2B5928190BB91434F6E7DB69984762
:108C14000028F9D070BDDB69BDE87040184700BF7B
:108C2400B8570020CC570020014B43600020704708
:108C340018D607000846704700207047024B186892
:108C4400003018BF012070478058002008B5024842
:108C5400FFF75DFF002008BD8058002008B51046CE
:108C64001A4604F007FC002008BD00002DE9F0417D
:108C7400804686B014480E4615461F46FFF744FF4B
:108C84000446F0B9A54214D10F48FFF740FFD8F8C5
:108C9400083000249BB1022268468DF8002001941C
:108CA40002960394049505979847204606B0BDE8BC
:108CB400F08106EB043001F04DF80134E2E7184688
:108CC400F4E71120F2E700BF805800202DE9F041BD
:108CD400804686B012480F4616461D46FFF714FF1D
:108CE4000446D8B9AA083146384601F04BF80C4876
:108CF400FFF70DFFD8F8083073B101228DF800207A
:108D04000C9A019468460297039604950592984735
:108D1400204606B0BDE8F0811846FAE71120F8E7CE
:108D24008058002029DF704728DF704770B503683A
:108D34009D6886B004460E466DB11822002168462F
:108D440004F0C2FBA3680593237901962BB1012B90
:108D54000DD06846A84706B070BD01238DF80030D9
:108D640023690293E368039363690493F1E702239D
:108D74008DF80030E3681B030293F5E7084670475B
:108D840000207047024B187A003018BF012070474A
:108D9400705A0020034B187A0122B0FA80F05A74FA
:108DA40040097047705A002008B510461A4604F06E
:108DB40061FB002008BD000008B51422002104480E
:108DC40004F082FB0348FFF7EEFD002008BD00BF5E
:108DD400705A0020605A002010B5094C094B4360BA
:108DE4002046FFF791FE48B903F06EFE1C23207461
:108DF4004FF4EE7204490548FFF7C2FD002010BD90
:108E0400705A002044D6070084580020605A00207D
:108E140070B5234D234E2B7A2C463BB92249234867
:108E2400FFF71DFE306008B9686070BD022323722D
:108E340033681A7972B1012A22D018460321FFF748
:108E440075FF00232372636017491848BDE870401A
:108E5400FFF730BE98695A69D9681D69121A142A35
:108E640028BF14229208012A014438BF0122284451
:108E7400FFF758FF50B11128DFD10123237270BDD1
:108E8400D8681A691044FFF74FFFF3E7237C2BB926
:108E94000146BDE87040022000F00AB870BD00BF72
:108EA400705A0020885A0020845A0020605A0020FA
:108EB40038B5831E012B43D8224C237A002B3FD094
:108EC400022B09D103282ED01F4B1B680022E2601D
:108ED4001A793AB1012A20D0637C6BBBBDE83840D3
:108EE400FFF796BF9A6959698D1A142D94BF5219C8
:108EF40014329A619142EFD102284FF0000308BF67
:108F040019462372104B18BF0D211868FFF70EFF86
:108F14000E490F48FFF7CEFDDEE71A6901321A61E8
:108F24005B699A42E7E7E3680133082B01D8E36001
:108F3400D2E70023E360DFE7BDE8384003F0B4BDC7
:108F440038BD00BF705A0020885A0020845A00207F
:108F5400605A002000F0FD03012B08D1044B0022CD
:108F64005A74421E504250411874FFF751BF704763
:108F7400705A002010B5064C201DFFF7C5FD28B916
:108F8400637C1BB9BDE81040FFF742BF10BD00BFB2
:108F9400705A00202DE9F34180460D460F4801A97F
:108FA40016461F46FFF721FD0446A8B11C220021E6
:108FB40004F08AFA2D0B0123237101A9C4F800805F
:108FC400A760E56066610548FFF739FDFFF7D2FF4A
:108FD400002002B0BDE8F0810420FAE7605A0020C6
:108FE4002DE9F74381468846104801A917461E46D5
:108FF400FFF7FBFC0446B8B11C22002104F064FA1C
:1090040000250A9BA36001A92571C4F80090C4F847
:109014001080E76066610548FFF711FDFFF7AAFFBE
:10902400284603B0BDE8F0830420FAE7605A002024
:109034000B684A684360934208BF0023016008BF7D
:1090440043607047436843B10268916852680B44B7
:109054009342436004BF00234360704770B5446883
:1090640006460D46206818B1B3682946984718B9D2
:1090740023682B60256070BD2468F3E74368186893
:1090840008B102681A60704743681868704700683E
:1090940070474368186800B97047884203D1026872
:1090A4001A600120704703460068F4E72DE9F04F89
:1090B4000022C9B04B780C781B0443EA0463CC78D3
:1090C40023438C7843EA042308AC0431A3500432CC
:1090D400402AEFD1234638AD996B1E464FEAF14240
:1090E40082EA714282EA9122716A366853F8044F27
:1090F40031440A444FEAB44181EAF41181EAD401CB
:109104000A449D42DA63E7D1036D0093436D0193F2
:10911400836D0293C36D0393036E0493436E0593AF
:10912400836E069304A991E80250C36EDDF80C80A7
:10913400029DDFF8AC9007939DE850009B46002702
:109144004FEAF12383EAB11383EA716A59F82730AD
:109154001A4608AB53F827301A44134653442EEAF0
:10916400010201EA0C0A82EA0A021A444FEA743A3A
:1091740085EA06035A448AEAB40A06EA050B234040
:1091840083EA0B038AEAB45A01379A44402F02EB6C
:109194000803F3465244A8461AD1009F1744019A83
:1091A400076522444265029A32448265039A2A443E
:1091B400C265049A1A44059B02660B444366069BE7
:1091C40063448366079B7344C36649B0BDE8F08F6C
:1091D400E64635468C46264619461446B0E700BF97
:1091E40070D6070030B5E0B10F4A02650F4A4265F8
:1091F4000F4A82650F4AC2650F4A02660F4A4266E9
:109204000F4A826602F17452A2F52302002300245D
:109214000025A2F692420364C0E91245C2661846CC
:1092240030BD0E2030BD00BF67E6096A85AE67BB5E
:1092340072F36E3C3AF54FA57F520E518C68059B34
:10924400ABD9831FF8B50446F0B10AB90020F8BDC4
:10925400D1B10D468E180027B542F7D0236C15F80E
:10926400012BE2540133402B2364F5D121462046DF
:10927400FFF71CFFD4E9120110F5007041F1000161
:10928400C4E912012764E7E70E20F8BD70B50D4666
:1092940016460446002800F08680002900F08380EA
:1092A400026C8021372A00EB020381544BD800F171
:1092B4003802002101339A4243D1D4E91223206CAD
:1092C4000821E1FB002322FA01F1C4E9122384F806
:1092D4003F2084F83E10110C120E84F83C201A0A28
:1092E40084F83B3084F83A201A0C1B0E84F83D10A5
:1092F40084F83920214684F838302046FFF7D6FE1A
:10930400691E8EB30023E26EDA4001F8012FA26ECB
:10931400DA400A71626EDA400A72226EDA400A7327
:10932400E26DDA400A74A26DDA400A75626DDA40C1
:109334000A76226DDA400833202B0A77E3D1002025
:1093440070BD1970B6E7002101331A1B3F2A09D9F1
:1093540021462046FFF7AAFE38220021204604F0C9
:10936400B3F8AAE71970EFE71823226DDA4001F881
:10937400012F626DDA400A71A26DDA400A72E26D61
:10938400DA400A73226EDA400A74626EDA400A75B1
:10939400A26EDA400A76E26EDA40083B13F1080F57
:1093A4000A77E2D1CBE70E2070BD43689B6818476B
:1093B40070B5466804460D46FFF7F7FFB2792946B3
:1093C40004F1080004F056F8002070BD73B5084697
:1093D4000C4615461E46FFF7E8FF069B00903246F2
:1093E400294604F1080001F07DFC002848F24250AF
:1093F40018BF002002B070BD0023C260016041604C
:1094040083608B781A44026191F903301A444261F3
:109414000878003018BF0120704738B542681178C9
:109424000346002938D002F10C014160147B2CB9A9
:10943400C2680168FFF7E0FF204638BD5078117913
:1094440000F03005302D14D1547B04F03004302C5E
:109454000FD190781969091A19610021907B084489
:1094640019690144196192F90F20114459610120CD
:1094740038BD00F0F004202C08D1507910FB01F124
:10948400002DEBD1986801309860E7E700F0C00048
:10949400802808BF0421F3E7084638BD70B5456845
:1094A40004460E4663681A78B24204D15B7803F02E
:1094B4000F03082B07D12046FFF7AFFF63689D42D7
:1094C400F0D1002070BD012070BD43681A44426091
:1094D40011B10139934201D10120704713F8010BF6
:1094E40001F8010FF6E770B54268537803F00F04F2
:1094F400082C86B01FD103691C6800260CB906B07D
:1095040070BD236862689D68267329466846FFF724
:1095140073FF6368049304F10C0305936B7803F001
:10952400C003802B08BF231D684608BF0493FFF7C0
:10953400DAFFA468E2E713F0C0011BD103F03005A1
:10954400102D08D143691970072C09D1016990685D
:1095540000F01AF8D3E79D06F6D543691970CEE7F3
:1095640091680069127911B103F084FFC7E703F031
:10957400ABFFC4E78029C2D1016900229B060A60BF
:10958400BDD543691A70BAE77FB50A4601466846F5
:10959400FFF732FF30B16846FFF7A5FF6846FFF7D3
:1095A4003CFFF7E707B05DF804FB83682DE9F3415E
:1095B4000446884623B90027384602B0BDE8F08146
:1095C400036801220DF10701984707460028F2D0ED
:1095D400A3689DF80750013B2A06A3601AD505F03D
:1095E4007F050726A368002BE5D0236801220DF12F
:1095F4000701204698470028DDD0A3689DF807207E
:10960400013BA36002F07F03B3401D43130606F140
:10961400070602D4C8F80050CEE7232EE2D1CAE7E9
:1096240030B5044685B01546A9B90268114B9A4273
:1096340011D0102D06D82A4669462046FFF7F0FFC0
:1096440005B030BD102269462046FFF7E9FF002827
:10965400F6D0103DEDE7A3689D4201D90020EFE765
:1096640023682A46204698470028F7D0A3685D1B44
:10967400A560E5E7CF94070073B50D4601A906463A
:109684001446FFF792FF88B1019A511C10D26B78EF
:1096940003F0C003802B0BD02B79994208D82146C4
:1096A4003046FFF7BDFF019B0022E25402B070BDBB
:1096B4000020FBE773B50D4601A906461446FFF7E3
:1096C40074FF90B1019AFF2A11D8511C0FD26B7804
:1096D40003F0C003802B0AD02B79994207D8214686
:1096E400304601F8012BFFF79BFF02B070BD00204C
:1096F400FBE7000010B58260024C04600022416068
:10970400C26010BDCF9407002DE9F34704460F460D
:109714004FF000084FF000090025A36803B3236845
:1097240001220DF10701204698470646C0B1A368FF
:109734009DF807A0013B2A46A3600AF07F000021A0
:1097440003F0E6FD1AF0800F48EA000849EA01092F
:1097540005F1070502D1C7E9008902E0462DDCD1F5
:109764000026304602B0BDE8F08737B50D4669469D
:109774001446FFF7C9FF68B12B79082B0CD1DDE93A
:109784000001C4E90001DDE900238B4206BF8242E7
:109794000120002003B030BD042B04D1DDE9000119
:1097A40020600021EFE7022B03D10098208080B2D3
:1097B400F7E7012B05D1DDE90001207000F0FF007F
:1097C400EFE70020E6E737B50D4669461446FFF794
:1097D4009BFF30B12A79082A05D1DDE90023C4E9C9
:1097E400002303B030BD009B042A18464FEAE371FE
:1097F40008D123601A460B468B4206BF82420120E1
:109804000020EEE7022A04D11BB223801AB2D31738
:10981400F2E7012A03D15BB223705AB2F7E70020C2
:10982400DFE7F7B50C46002119702170116001A91A
:10983400074615461E46FFF7B8FE30B9BB6813B994
:1098440001233370002003B0F0BD01990029F7D043
:10985400CB0801F007012B602170F4E713B504462F
:1098640005291FD8DFE801F0030F151E1E1C012275
:1098740001A92046FFF7D4FE18B19DF90430002B4E
:10988400F5DB02B010BD082200212046FFF7C8FE18
:10989400F7E701A9FFF789FE0028F2D0019AF3E760
:1098A4000422F1E70020ECE773B50D4601A9044654
:1098B400FFF77BFE064618B90026304602B070BD9D
:1098C40094E80F0085E80F0001998A42F4D3A96057
:1098D400A3685B1AA360F0E72DE9F04355686B7841
:1098E40013F0C00C89B006468E46144604D0BCF171
:1098F400400F68D0002544E003F00F025C4903F0F8
:109904003003102B51F822701DD006D8002BF1D152
:1099140022692946B847054633E0202B17D0302B5F
:10992400E8D1636929781970072A0AD16368206924
:109934001A79614603F0C8FD636821699868FFF7E6
:1099440023FE22693CE0636901221A70E0E7BEF15C
:10995400020FD4F8148027D1042A25D804A9FFF7CC
:10996400A3FF05460028C5D0069B2BB1616898F873
:1099740000304A799A4208D8059B7360069B002BF5
:10998400B8D1284609B0BDE8F0830879226900FB04
:10999400032204A8B84728B198F80030013388F8A6
:1099A4000030E1E70546E7E798F800306A799A4223
:1099B400A0D922692979581C88F8000001FB0322E8
:1099C40061683046A6E717693B6807F1040913B9D3
:1099D400FFF744FF9FE7022913D104A9FFF764FFAF
:1099E400002887D03B6861684A4604A89847054622
:1099F40000283FF47FAF069B002BF3D1059B7360D7
:109A0400BFE701292AD009D305297FF473AF0422C3
:109A14000DEB0201FFF704FE042524E000250DF1FF
:109A2400040801350B2D3FF465AF01224146304651
:109A3400FFF7F6FD00283FF45DAF18F9013B002B5A
:109A4400EFDB0C4B049301AB0593002306950793BE
:109A54003B6861684A4604A898475CE7082201A964
:109A6400FFF7DEFD082500283FF444AFE9E700BF17
:109A74007CD70700CF9407002DE9F04F91B0002662
:109A8400044604A802960396FFF7B6FCA3683BBB02
:109A9400059B069C5D7804A8FFF7BFFC0028F7D15E
:109AA40015F0300F03D1059B1B7803B10134002C52
:109AB40000F0B4806209002302A9934240F0A78019
:109AC40010AA02EB830304F01F04C4F120044FF036
:109AD400FF3053F8383CE040C31A584258410EE076
:109AE4000DF1030301AA0DF102012046FFF799FECF
:109AF400814638B99DF80330002BC9D1002011B03C
:109B0400BDE8F08F019904A8FFF7C8FC00285AD1DA
:109B1400019B9E421DD8059D059A537803F00F03BF
:109B2400082B7DD004A8FFF778FC059B9D42F3D158
:109B34004FF0FF36019FBE420BD8089BD4F8088033
:109B44009DF802A01D68A3680DB1984509D09845F9
:109B54009CD19DF802102046FFF780FE002895D185
:109B6400CCE72B68D3F800B0BBF1000F08D0534604
:109B74003A4629462046D8470028BFD0AD68E2E7D8
:109B8400D3F808B09BF800309F421AD16A6859464E
:109B94000AA8FFF731FC6B680E9305F10C030F93D1
:109BA4009BF8013003F0C003802B04BF2B1D0E93E0
:109BB4004FF001032B730AAA51462046FFF78CFE8F
:109BC400DAE74846D8E7059B5B7813F0300F0FD1EE
:109BD400069A3F2A0CD8510910AB03EB810102F01D
:109BE4001F020123934051F8382C134341F8383CA9
:109BF400E5682DB104AB9DF8022001992046A847E1
:109C040004AA9DF802102046FFF766FEA6E751F865
:109C1400235001357FF473AF01334EE701206EE723
:109C2400167887E770B50C46064615461146204659
:109C3400FFF7AAFC2A4621463046BDE87040FFF7EC
:109C44001BBFF0B585B00C468D68694607461646BD
:109C5400FFF72AFE68B1A06858B1637803F03003B7
:109C6400202B32462946684605D1FFF7DBFF019BCE
:109C74007B6005B0F0BDFFF7FFFEF8E7D3B50C46F7
:109C84006946FFF741FD70B1DDE90023002702F0CA
:109C940001065B084FEA320256EA07011CBFD243B1
:109CA400DB43C4E9002302B0D0BD37B50D46694695
:109CB4001446FFF7E3FF68B12B79082B0CD1DDE9DB
:109CC4000001C4E90001DDE900238B4206BF8242A2
:109CD4000120002003B030BD042B03D10098206084
:109CE400C117F0E7022B04D1BDF90000208000B2B7
:109CF400F6E7012B04D19DF90000207040B2EFE794
:109D04000020E7E713B504220C460DEB0201FFF730
:109D140087FC08B1019B236002B010BD1146FFF718
:109D2400F1BF13B508220C466946FFF779FC18B158
:109D3400DDE90023C4E9002302B010BD1146FFF79A
:109D4400F0BF0000024AD2F80034002BFBD0704769
:109D540000E001400A4908B50223C1F80435BFF305
:109D64006F8FBFF34F8FC1F80805FFF7EBFF002398
:109D7400C1F80435BFF36F8FBFF34F8F08BD00BF29
:109D840000E0014070B50E4D16460122C5F80425C9
:109D9400BFF36F8FBFF34F8F0024B44207D100236A
:109DA400C5F80435BFF36F8FBFF34F8F70BD51F803
:109DB400243040F82430FFF7C5FF0134EDE700BF3D
:109DC40000E0014028B139B1002348600B60184617
:109DD400704748F21050704748F21350704730B142
:109DE400036848F240508B4208BF0020704748F295
:109DF4001050704728B148F21150914208BF00201A
:109E0400704748F21050704770B506460C461D4620
:109E1400FFF7D8FF40B9B37952B1AB420BD1114629
:109E24002046FFF7C5FA00B170BD044B236070BD36
:109E340048F2105070BD48F2115070BD7052464D3A
:109E44002DE9F0470C4607460F49089EDDF824909B
:109E5400204615469846FFF7C2FF98B963685A79B9
:109E6400494652003046FFF7C5FF58B945B1089638
:109E740043462A4621463846BDE8F047FFF7A6BACE
:109E840048F21050BDE8F0877052464D10B50446B4
:109E940038B149B141600B68984738B9044B236025
:109EA40010BD48F2015010BD48F2105010BD00BF63
:109EB4006E524648F0B41346044660B107680A4E31
:109EC400B7420CD111B948F2105006E053B163689F
:109ED400F0BC5B68184748F20150F0BC704748F288
:109EE4000250FAE71846F8E76E524648F0B40346C3
:109EF400154678B107680C4EB7420FD111B948F234
:109F0400135009E05B682D68DC68A54209D39B689F
:109F1400F0BC184748F20150F0BC704748F20250B8
:109F2400FAE748F21450F7E76E5246482DE9F0413B
:109F3400069D079E044617469846FFF7A7FF60B99B
:109F4400424639462046FFF7B5FF30B93246294626
:109F54002046BDE8F041FFF7C9BFBDE8F08100002D
:109F6400F8B50A4F0A4C0B4DE41B0121E408297093
:109F74000026A64203D102232B700020F8BD57F817
:109F8400363098470028F9D10136F2E794D5070016
:109F940094D507008C5A0020BFF34F8F0549064B18
:109FA400CA6802F4E0621343CB60BFF34F8F00BF73
:109FB400FDE700BF00ED00E00400FA05704708B5B6
:109FC400FFF7EAFF08B5FFF7E7FF0000002210469D
:109FD40010B54FF4805102F03BFF024608B1FFF781
:109FE400DBFF0E48C0F5FC2102F032FF0028F6D159
:109FF4004FF0A0430322C3F810271022C3F808250A
:10A0040003F062F903F06EF9054802F083FE04469A
:10A014000028E4D102F006FF204610BD00800700AE
:10A02400C19F07008B1802448B4200D1704713F87C
:10A03400010D02F8010DF7E700000000C3F1080369
:10A04400DB0070B50133002403A500BF5B1920C9F0
:10A0540040CAAD1920C0184720C940CA754120C064
:10A0640020C940CA754120C020C940CA754120C0DA
:10A0740020C940CA754120C020C940CA754120C0CA
:10A0840020C940CA754120C020C940CA754120C0BA
:10A094006441204670BD00BF00000000C3F1080306
:10A0A400DB0070B50133002403A500BF5B1920C990
:10A0B40040CAAD1B20C0184720C940CAB54120C0C2
:10A0C40020C940CAB54120C020C940CAB54120C0FA
:10A0D40020C940CAB54120C020C940CAB54120C0EA
:10A0E40020C940CAB54120C020C940CAB54120C0DA
:10A0F4006441B4FA84F0400970BD00BF2DE9F04F0B
:10A1040008B4F8CA04B451F8042BA3FB028940F83C
:10A11400048B4FF0000AE4FB629A4FF0000BE5FB5E
:10A1240062AB4FF0000CE6FB62BC4FF0000EE7FBA5
:10A1340062CE51F8042B4FF00008E3FB628940F82B
:10A14400048BE4FB629AE5FB62ABE6FB62BCE7FBD3
:10A1540062CE51F8042B4FF00008E3FB628940F80B
:10A16400048BE4FB629AE5FB62ABE6FB62BCE7FBB3
:10A1740062CE51F8042B4FF00008E3FB628940F8EB
:10A18400048BE4FB629AE5FB62ABE6FB62BCE7FB93
:10A1940062CE51F8042B4FF00008E3FB628940F8CB
:10A1A400048BE4FB629AE5FB62ABE6FB62BCE7FB73
:10A1B40062CE40F8049B40F804AB40F804BB40F87E
:10A1C40004CB40F804EB0CBC052B00F01E810C689A
:10A1D400A0F11400A1F11401A2F1140252F804EB4D
:10A1E4004FF0000550F8046BE4FB6E5652F804EB94
:10A1F40050F8047BE4FB6E6752F804EB50F8048BD0
:10A20400E4FB6E7852F804EB50F8049BE4FB6E898F
:10A2140052F804EB50F804ABE4FB6E9AA0F114007E
:10A2240052F8044B51F804EB4FF0000CE4FB6EC5FC
:10A2340040F804CB51F804EBE4FB6E5640F8045BA1
:10A2440051F804EBE4FB6E6740F8046B51F804EB3F
:10A25400E4FB6E7840F8047B51F804EBE4FB6E8970
:10A2640040F8048B51F804EBE4FB6E9AA0E8000676
:10A27400062B00F0CA800C68A0F11800A1F11801A7
:10A28400A2F1180252F804EB4FF0000550F8046BE9
:10A29400E4FB6E5652F804EB50F8047BE4FB6E6763
:10A2A40052F804EB50F8048BE4FB6E7852F804EB9C
:10A2B40050F8049BE4FB6E8952F804EB50F804ABAD
:10A2C400E4FB6E9A52F804EB50F804BBE4FB6EAB6B
:10A2D400A0F1180052F8044B51F804EB4FF0000CB5
:10A2E400E4FB6EC540F804CB51F804EBE4FB6E5676
:10A2F40040F8045B51F804EBE4FB6E6740F8046B30
:10A3040051F804EBE4FB6E7840F8047B51F804EB5D
:10A31400E4FB6E8940F8048B51F804EBE4FB6E9A7D
:10A3240040F8049B51F804EBE4FB6EABA0E8000C8E
:10A33400072B6AD008B40C68A0F11C00A1F11C0121
:10A34400A2F11C0252F804EB4FF0000550F8046B24
:10A35400E4FB6E5652F804EB50F8047BE4FB6E67A2
:10A3640052F804EB50F8048BE4FB6E7852F804EBDB
:10A3740050F8049BE4FB6E8952F804EB50F804ABEC
:10A38400E4FB6E9A52F804EB50F804BBE4FB6EABAA
:10A3940052F804EB50F804CBE4FB6EBCA0F11C00B3
:10A3A40052F8044B51F804EB4FF00003E4FB6E3514
:10A3B40040F8043B51F804EBE4FB6E5640F8045BB0
:10A3C40051F804EBE4FB6E6740F8046B51F804EBBE
:10A3D400E4FB6E7840F8047B51F804EBE4FB6E89EF
:10A3E40040F8048B51F804EBE4FB6E9A40F8049BAC
:10A3F40051F804EBE4FB6EAB40F804AB51F804EB0A
:10A40400E4FB6EBCA0E8001808BCBDE8F08F002394
:10A4140010B51C465AB2914200DC10BD40F82340EE
:10A424000133F7E710B500231A465CB2A14203DCFE
:10A43400B2FA82F0400910BD50F8234001332243A0
:10A44400F3E74A11012350F8220001F01F0103FA37
:10A4540001F108407047013949B20A06CBB205D46C
:10A46400013900EB81025268002AF6D001335BB255
:10A4740073B103F18042013A50F82220002022B93E
:10A48400013B00EB431318B2704752080130F6E762
:10A494001846704710B500235CB2A24200DC10BD20
:10A4A40051F8234040F823400133F5E710B5013A51
:10A4B40052B2130601D5002010BD50F8224051F8C5
:10A4C40022309C4205D802F1FF32F2D24FF0FF3025
:10A4D400F2E70120F0E700EB81010023884200D37A
:10A4E400704751F8042D43EA52030B60D307F5E794
:10A4F40070B59DF910401E4623460546FFF79EFDA4
:10A5040030B9224629463046FFF7D0FF012807D04C
:10A514002346324629462846BDE87040FFF7BEBDB3
:10A5240070BD70B59DF910401E4623460546FFF7E1
:10A53400B5FD38B12346324629462846BDE8704069
:10A54400FFF77CBD70BD2DE9F04FB5B004AD9DF9AA
:10A55400F8401F46814623462846FFF7CFFD24AB2B
:10A5640021463846CDE90235FFF775FFC0EB84106C
:10A5740005B26B4203F01F034FF0200695FBF6F67D
:10A5840076B205F01F0814A858BFC3F1000831467D
:10A59400FFF73DFFB8F1000F30B22DDD14AB002200
:10A5A40003EB8000C8F1200C1346A34219D327B251
:10A5B4007B00019314AB03EB870704F1FF3834AB42
:10A5C400012603EB8808002D53DA34AB03EB86062F
:10A5D400224656F8C81C4846FFF75CFF35B0BDE874
:10A5E400F08F57F8236006FA08F10A4340F8232055
:10A5F40026FA0CF20133D8E714AB2246394603EBB2
:10A604008000FFF747FFD2E70FFA82FE5AF8C83CF2
:10A6140053F82EB034AB03EB820252F8803CABEB20
:10A6240003031B1A9B4502D034BF012000205CF8B1
:10A63400C82C42F82E300131019B4AB29A42E3DB26
:10A64400331A5E42214614A85E41FFF744FF34AB3F
:10A6540003EB8403214653F8802C58F8803C384699
:10A6640043EAC273013D48F8803C2DB2FFF733FF43
:10A67400A9E734AB0021C6F1010C084603EB860AB6
:10A6840003EB8C0CD8E730B51C4691B0054693F922
:10A6940000306846FFF732FDD4F8AC3069462846EE
:10A6A400984711B030BD13460A46FFF7ECBF2DE9B9
:10A6B400F04793F9006092B004468946104631464B
:10A6C40015469846FFF7AEFE002840F091804246BA
:10A6D400494602A8FFF7E7FF434602AA21460AA813
:10A6E400FFF7D1FF02A908464246FFF7DCFF4346C5
:10A6F4002A4649464846FFF7C6FF08F10407424682
:10A7040029462846FFF7CFFF3B462A4621462046E6
:10A714000096FFF7EDFE3B462A462946284600965A
:10A72400FFF7E6FE3B462A46214628460096FFF7F9
:10A73400F8FE43462A4621462046FFF7A4FF3B463F
:10A744002246214628460096FFF7D2FE3B46009655
:10A754002A4621462046FFF7CBFE2368DB074AD56D
:10A7640033463A4621462046FFF768FC3146824686
:10A774002046FFF7B0FE06F18043013B54F8230066
:10A7840040EACA7044F82300424621462846FFF7AF
:10A794008AFF3B460AAA294628460096FFF7C1FECF
:10A7A4003B460AAA294628460096FFF7BAFE0AA99C
:10A7B40008463B462A460096FFF7B3FE43460AAADC
:10A7C40021462046FFF75FFF02AA3B46104621467A
:10A7D4000096FFF7A6FE324629462046FFF75AFEAA
:10A7E40049462846FFF756FE02A94846FFF752FE9F
:10A7F40012B0BDE8F08731462046FFF76CFEC3E790
:10A804002DE9F0438BB00446154689460AAE1C2256
:10A81400002103A802F058FE032346F8203D95F9D1
:10A8240000802A46494620462F1DFFF73CFF3B4641
:10A83400324621462046CDF80080FFF772FE2B46B3
:10A844004A4621462046FFF71EFFCDF800803B46CE
:10A8540005F1840221462046FFF74AFE0BB0BDE80D
:10A86400F0830000F0B5082289B00C460646FFF7D5
:10A8740011FECB6A03930B6B04934B6B05938B6BA9
:10A884000693CB6B0793002708236A4669466846FC
:10A89400CDE901770097FFF7D1FB082305466A4607
:10A8A40031463046FFF7CAFB236B0393636B049373
:10A8B400A36B0593E36B0544CDE906376A46082389
:10A8C40069466846FFF7BAFB082305446A463146E1
:10A8D4003046FFF7B3FB236A0093636A0193A36ACC
:10A8E4000293A36B0693E36B0793054408236A461C
:10A8F40031463046CDE904770397FFF79FFB636A3F
:10A904000093A36AA26B0193E36A02930492636BBC
:10A91400E26B0393CDE90523236A079305440823D7
:10A924006A4631463046FFF789FBE36A0093236B9E
:10A934000193636B0293236A0693A36A0793054406
:10A9440008236A4631463046CDE904770397FFF77A
:10A95400A5FB236B0093636B0193A36B0293E36BDF
:10A964000393636A0693E36A07932D1A08236A46DE
:10A9740031463046CDE90477FFF790FB636B0093D3
:10A98400A36B0193E36B0293236A0393636A0493B7
:10A99400A36ACDE90537236B07932D1A08236A466A
:10A9A40031463046FFF77AFBA36B0093E36BCDE9A6
:10A9B4000137636A0393A36A0493E36ACDE9053715
:10A9C400636B07932D1A08236A4631463046FFF716
:10A9D40065FB2D1A0D4C0FD435B90822314620469B
:10A9E400FFF764FD01280FD0082322463146304684
:10A9F400FFF754FB2D1AEFE7082322463146304671
:10AA0400FFF71CFB2D18F7D409B0F0BDE4D70700FD
:10AA1400F0B5154689B01C4607460E461A46294627
:10AA24006846FFF740FE23466A4639463846FFF734
:10AA34002AFE23462A4669466846FFF724FE234633
:10AA44006A4631463046FFF71EFE09B0F0BD2DE9D7
:10AA5400F0438BB01446129D15F9046B00961F4603
:10AA6400804689462B460246214602A8FFF759FD37
:10AA740002A9129A0846FFF716FE129B02AA414643
:10AA84004046FFF700FE129B02AA21462046FFF72C
:10AA9400FAFD2B464A46394638460096FFF741FDF3
:10AAA400129A394602A8FFF7FEFD02A92B46424638
:10AAB40008460096FFF735FD02A92B4622460846B4
:10AAC4000096FFF72EFD2B4642462146204600966F
:10AAD400FFF727FD129B224649464846FFF7D3FD60
:10AAE4002B4602AA414620460096FFF71AFD129B08
:10AAF400224639463846FFF7C6FD2B464A463946B4
:10AB040038460096FFF70DFD324602A92046FFF7AE
:10AB1400C1FC0BB0BDE8F0832DE9F047B3F9024066
:10AB240088461E4604F11F012023073491FBF3F7E6
:10AB340008234FFA87F994FBF3F4944228BF144690
:10AB440049460546FFF763FC22464146FFF76AFA89
:10AB5400B6F90230E4009C421FD9E41A05EB8701E0
:10AB64000022C4F120078D420ED324364A462946DA
:10AB74003046FFF79BFC01280FD04B46324628464F
:10AB8400BDE8F047FFF78ABA51F8040D20FA04F340
:10AB940013430B6000FA07F2E5E7BDE8F08770B5F0
:10ABA400036813F001050646144605D013460A4609
:10ABB4000146FFF743FA054621463046FFF78BFC72
:10ABC40045B104F18042013A56F8223043F0004383
:10ABD40046F8223070BDF0B50F46A1B006461946BE
:10ABE400384615461C46FFF71DFC20B13046FFF7DA
:10ABF4000EFC21B0F0BD224639466846FFF74AFCF8
:10AC0400294608A8FFF746FC10A82146FFF7FFFBDA
:10AC1400012318A81093FFF7FAFB224608A96846F7
:10AC2400FFF744FC28B9224610A93046FFF732FC4E
:10AC3400DFE7009BDA0709D421466846FFF74BFC9F
:10AC44002246294610A8FFF7AAFFE6E7089BDB0780
:10AC540007D4214608A8FFF73EFC2246294618A837
:10AC6400F1E7002823461CDD08AA69466846FFF779
:10AC740015FA21466846FFF72EFC224618A910A8AB
:10AC8400FFF714FC002805DA10A923462A460846D3
:10AC9400FFF7D4F910A9234618AA0846FFF7FEF9CE
:10ACA400CEE708A96A460846FFF7F8F9214608A83E
:10ACB400FFF711FC224610A918A8FFF7F7FB00289C
:10ACC40005DA18A923462A460846FFF7B7F918A952
:10ACD400234610AA0846FFF7E1F9BEE7004870478B
:10ACE400E0D707002DE9F04FEDB01F46DDF8D8811D
:10ACF4000590B8F9026098F9004020231F3696FBAE
:10AD0400F3F676B206F1FF3924AB002543F8295057
:10AD14006CAB03EB89034CA88A469346394698F9F1
:10AD2400012043F8805C43F8605CFFF77BF998F9F5
:10AD3400012054A8B918FFF775F921464CA8FFF76C
:10AD440071FB0746002840F02E8154A8FFF76AFBE8
:10AD54000290002840F0298108F1240332464CA9CE
:10AD640018460393FFF7A2FB012840F020813246E6
:10AD740054A90398FFF79AFB0128069040F0178125
:10AD84001CAD0CAF3346039A54A92846FFF723FFA2
:10AD9400029B47F829305A46514638464346FFF746
:10ADA400BBFE39463846039B00962A46FFF7CBFB89
:10ADB4000DF5B879039B00962A464CA914A8FFF711
:10ADC400C2FB224648460599FFF764FBA30009EB42
:10ADD400030A0793059BA100591808F1440B504638
:10ADE400FFF758FB594634A8FFF754FBA3000BEBBD
:10ADF40003013CA8FFF74EFB08F10403494634AABB
:10AE0400284600940493FFF78CFB53464A463CA91A
:10AE140034A8CDF80080FFF71AFE2346049A294689
:10AE24002846FFF7D8FE2A46514648464346FFF7D0
:10AE3400EFFD029BCDE9083B059B31463846CDE941
:10AE44000A39FFF708FB3146814614A8FFF703FBD4
:10AE54008145B8BF81461FFA89F909F1FF3B0FFA12
:10AE64008BFB59463846FFF7ECFA5946071C14A8E1
:10AE740018BF0127FFF7E5FA002814BF02230023B7
:10AE84001F430DF1200A22465AF8277024A8394698
:10AE9400FFF700FB0DF1B00BA300F9185846FFF7BC
:10AEA400F9FA21462846FFF7B2FAA9F10209069BEE
:10AEB4002B600FFA89F90DF1900AB9F1000F23DA2A
:10AEC4002346049A29462846FFF785FE43462A4628
:10AED40059465046FFF79CFD324651460398FFF70A
:10AEE400E5FA012804D03346039A5046FFF7D6F812
:10AEF400013C64B24CAA23064BD5029BB3FA83F0FF
:10AF040040096DB0BDE8F08F43462A46D8F8A470D6
:10AF140059465046B84749460CA8FFF792FA4946A5
:10AF2400071C14A818BF0127FFF78BFA002814BFC9
:10AF3400022300231F4308AB53F8277027B322468C
:10AF4400394634A8FFF7A6FA079B3CA8F918FFF77F
:10AF5400A1FA43462A463CA934A8FFF759FD049BAD
:10AF6400009434AA514644A8FFF7DBFA5B465246E4
:10AF74003CA934A8CDF80080FFF769FD434644AAF4
:10AF840029462846FFF77FFB09F1FF390FFA89F9B3
:10AF940093E752F824105AF824304B40029919438D
:10AFA4000291013CA7E72846ABE73846A9E7029897
:10AFB400A7E7007800F0010070470000094B1B78F8
:10AFC400062B0CD1084B1B681A0708D1074B1868CD
:10AFD40000F0F000A0F130035842584170470020BF
:10AFE400704700BFE00F00F0E40F00F0E80F00F03E
:10AFF4000C4B1B78062B10D10B4B1B681A070CD17A
:10B004000A4B186800F0F003302B08D000F0E00081
:10B01400A0F1400358425841704700207047012076
:10B02400704700BFE00F00F0E40F00F0E80F00F0FD
:10B0340008B5FFF7DDFF28B17F4B804A1B68C3F3D7
:10B0440004231360FFF7BAFF10B17D4B7D4A1A60E9
:10B05400FFF7CEFF28B17C4B7C4A1B68C3F3423315
:10B064001360FFF7ABFF20B1794AD36823F08073F4
:10B07400D360FFF7BDFF40B14FF080430022C3F817
:10B084000C21C3F81021C3F83825FFF797FF10B13E
:10B09400704B03221A60FFF791FF40B16E4B0522FB
:10B0A4001A6001229A6700229A603F225A606B4B11
:10B0B4001B78062B09D16A4B1B68190705D1694B0C
:10B0C4001B6803F0F003502B67D0FFF791FF28B102
:10B0D400654B664A1B6803F04F031360FFF788FF54
:10B0E40048B14FF08043D3F80024D20744BF6FF037
:10B0F4000102C3F800245E4B1B68062B04D15D4B90
:10B104001B68062B00F091805B4AD2F8883043F428
:10B114007003C2F88830BFF34F8FBFF36F8F4FF0C7
:10B124001023D3F80022002A03DBD3F80432002BC7
:10B134002FDA524B0122C3F80425D3F80024002A45
:10B14400FBD04FF010221521C2F80012D3F80024CE
:10B15400002AFBD04FF010231522C3F80422474BDA
:10B164001A46D3F800140029FBD00021C3F80415B3
:10B17400D2F80034002BFBD0BFF34F8F3E49404B35
:10B18400CA6802F4E0621343CB60BFF34F8F00BF81
:10B19400FDE73C4B3C4A1A6008BD4FF080523B4BE4
:10B1A400D2F80414C3F82015D2F80814C3F82415EF
:10B1B400D2F80C14C3F82815D2F81014C3F82C15BF
:10B1C400D2F81414C3F83015D2F81814C3F834158F
:10B1D400D2F81C14C3F84015D2F82014C3F844154F
:10B1E400D2F82414C3F84815D2F82814C3F84C151F
:10B1F400D2F82C14C3F85015D2F83014C3F85415EF
:10B20400D2F83414C3F86015D2F83814C3F86415AE
:10B21400D2F83C14C3F86815D2F84014C3F86C157E
:10B22400D2F84424C3F870254FE7194A136843F44D
:10B234008063136068E700BF2403001040350140B9
:10B2440074C007400DF0ADBA440200103C05004044
:10B25400F0ED00E0A005004010560040E00F00F0C3
:10B26400E40F00F0E80F00F058020010E40E004074
:10B27400300100103401001000ED00E000E0014056
:10B284000400FA05D45700200090D00300C0004009
:10B294003C17004013681F2B10B5144607D9012230
:10B2A4000830FDF7F3FF20B92023236010BD48F2D6
:10B2B400145010BD0830FDF7C5BF0830FDF792BF2C
:10B2C400062810B5044602D1002000F04BFF044BC1
:10B2D4001B681BB12046BDE81040184710BD00BFD5
:10B2E400905A002008B5074B18600020FFF7E8FFCC
:10B2F400054800F01FFF20B90348BDE8084000F0EE
:10B3040043BE08BD905A0020C5B207006CDF7047E9
:10B314006DDF704772DF704773DF704774DF70470B
:10B3240075DF704776DF70477ADF70477CDF7047E0
:10B334007DDF70477FDF704786DF70478FDF7047A0
:10B3440090DF7047A8DF7047AADF7047ADDF704712
:10B35400AEDF7047B0DF7047B1DF7047B5DF7047CD
:10B3640062DF704766DF704713DF704710B586B041
:10B374000446ADF806101022002102A802F0A4F839
:10B38400084B05949B89ADF8083001238DF80A30E9
:10B394000DF106030493044B02A91888FFF7D8FFA4
:10B3A40006B010BDFE6A0020DA57002001460148AD
:10B3B400FDF7EABB9CD5070030B518228DB00021FB
:10B3C4000DEB020002F080F82823012408931022D8
:10B3D4001623002102A8ADF806308DF818408DF828
:10B3E4002D4002F071F8184B029302220621092520
:10B3F4001A7099701A7103215922D9705A710DF17A
:10B404000601FE225819ADF80C505C709A71FFF7D2
:10B414008FFFB8B9BDF806201D721119D971BDF896
:10B424000C301A44094BADF80C2002A906AA1846A0
:10B43400FFF770FF30B91878FFF770FF21461878CE
:10B44400FFF76AFF0DB030BD126B0020D857002003
:10B45400F0B503881F2B8BB0044600F0C38028D8B6
:10B46400112B57D006D8012B00F0CD80102B43D0E0
:10B474000BB0F0BD142B00F044811A2B35D0132BE4
:10B48400F6D10023A24C04930223ADF8103004AA91
:10B4940002AB42F6052120880593FFF757FF08B158
:10B4A400FEF790FD00231A4685212088FFF742FF0E
:10B4B40088E0512B00F0AD8010D8232B00F08A8057
:10B4C400502B3BD0212BD3D1002304A980888DF8A5
:10B4D40010308DF81130FFF731FF73E0552B59D040
:10B4E400562B00F08680522BC2D100231A461946EF
:10B4F400A088FFF731FF65E0854B82881A80854A72
:10B5040012681C460AB10120904783492088FFF73E
:10B5140007FFADE77E4B4FF6FF721A807F4B1B6827
:10B524005A0704D4FFF748FF08B1FEF74BFD794BE7
:10B534001B68002B9CD00220984799E7784EC2885C
:10B54400B3889A4294D17748FDF7FBFA0546002860
:10B554008ED0228A04F1120101F08CFF18220021FE
:10B5640004A801F0B1FF08238DF810306E4B069348
:10B574006E4B079304A8238A05960895ADF82430EA
:10B5840000F0F8FC00283FF473AF29466548FDF746
:10B59400FBFA6DE7C188F6291AD8CB1E9B070DD09C
:10B5A400CB1F9BB2013B5A4202F0030203F0030398
:10B5B40001F1FF3158BF5342C91A89B2544B18885C
:10B5C400FFF7CCFE00283FF453AFFEF7FBFC4FE738
:10B5D400F721F3E7002204A9808804920592FFF77B
:10B5E400AFFEEFE74A4B00F108011888FFF798FE19
:10B5F400E8E78379002B7FF43BAF454B1321188890
:10B60400FFF790FEDEE7424B00211888FFF7AAFE01
:10B61400D8E78579002D3FF42BAF022D7FF428AFB6
:10B624003F4E0289B3899A4237467FF421AF837B28
:10B63400012B7FF41DAF102200210DEB020001F05D
:10B6440043FF01238DF81630238AADF81830638A3E
:10B65400ADF81A3004F114030793002302938DF814
:10B664001050ADF808502A4D318A288801AB02AA3F
:10B674000393FFF76BFE2E4660B91846FFF799FC5B
:10B6840040B940F2FD1304A92888ADF81430FFF73F
:10B6940061FEEDE6002304A93088ADF81430FFF70D
:10B6A40059FE014600287FF4E3AE182204A801F0F5
:10B6B4000BFF237D1C4A8DF81030022B0597069250
:10B6C40016D0062B0ED0012B0ED1194800F04AFDDE
:10B6D400184B1A88184B1A80637D0893D4F81630D7
:10B6E400099301E0637D089304A800F043FCBFE6DE
:10B6F400A27D637D43EA02230E4A13800E4A13801F
:10B70400F2E700231A4619468088FFF715FE59E729
:10B71400DA570020386B0020E6D90700346B00208C
:10B72400FE6A00209CD50700A9B70700B1B3070043
:10B7340094D507003C6B00203E6B002014490A6836
:10B7440038B512F0010321D0124B98421ED0124B8F
:10B7540018884FF6FF73984213D042F004020A602F
:10B764001321FFF7DFFD90B90C4DC82445F0010506
:10B774004FF47A40A847013CFAD1BDE8384001F0C3
:10B7840063B9074B1878FFF7C9FDF6E7002038BD09
:10B79400346B002094D50700DA570020E0D9070065
:10B7A400D857002010B5044686B01122002101A804
:10B7B40001F08AFE2378082B0BD1374A37491388C6
:10B7C4000988013B9BB21380D9B1D3B903231180FB
:10B7D4002370627823788DF805306021012A8DF872
:10B7E40004108DF806200ED00B2A52D100F0ACF9CB
:10B7F4008DF80700002000F0A1F9042101A8FFF74B
:10B80400B5FD06B010BD062B1DD0082B01D0032BAF
:10B814003FD16268A3688DF80720110A8DF80810DB
:10B82400110C120E8DF80A201A0A8DF80B308DF8BF
:10B834000C201A0C1B0E8DF809108DF80D208DF8B4
:10B844000E300B21DAE7E16862688DF80710080A08
:10B854008DF80800080C090EA3688DF80A10110A67
:10B864008DF80B208DF80C10110C120E8DF80E2093
:10B874001A0A8DF80F308DF810201A0C1B0E8DF853
:10B884000D108DF809008DF811208DF812300F215C
:10B89400B4E70321B2E700BF3E6B00203C6B0020FD
:10B8A4002DE9F0434F4B95B04FF6FF7214A91A805F
:10B8B40080464FF65963012021F8483D42468DF8F1
:10B8C4000A00FFF73FFD0446002840F08780464BFE
:10B8D40004AA03F11006154618685968144603C4EF
:10B8E4000833B3422246F7D108F102012846FFF794
:10B8F40037FD0446002871D101461C220DA801F031
:10B90400E3FD9DF83430ADF8044043F004038DF8B2
:10B9140034300223ADF80C3098F802308DF80E3034
:10B924004FF00109230A69F3030369F307138DF840
:10B934000530E3B243EA090369F3420321461422C2
:10B9440008A88DF8063001F0BFFDF423ADF82C30C3
:10B9540001AD03AE08F1040308AA0DA9B8F800006C
:10B9640008960995FFF7F0FC27460446B0BB01464C
:10B974001C220DA801F0A8FD9DF83430ADF8044058
:10B9840043F018038DF8343098F802308DF80E30F7
:10B99400230A69F3030369F307138DF80530FBB237
:10B9A40043EA090369F34203DBB243F0100321467F
:10B9B400142208A88DF80630ADF80C9001F084FD2F
:10B9C4001723ADF82C3008AA08F10C030DA9B8F818
:10B9D400000008960995FFF7B7FC0446204615B009
:10B9E400BDE8F083DA570020C0D9070030B5354CE4
:10B9F400236813F0010585B05AD1334B18603348DE
:10BA0400FDF788F8029500F0BAF898BB3048FFF7C4
:10BA1400ABFC78BB00F0D4FF60BB02A801F0A4F833
:10BA240040BB02A9012001F0A9F818BB02A801F04B
:10BA34000FF9F8B900F056FB30B1264800F046FB88
:10BA4400236843F0020323609DF80430012262F36B
:10BA5400030362F3071302A88DF80430FFF758FCC0
:10BA640040B99DF8093002A801338DF80930FFF779
:10BA74004DFCF8B105B030BD16498869043182B275
:10BA840001A8FFF753FC0028F4D11348FFF74CFC3E
:10BA94000028EFD11148FFF703FF0028EAD1FFF790
:10BAA4008BFC0028E6D1236843F001032360E1E71F
:10BAB4000020DFE723689B07DED4094801F038FD46
:10BAC4000749DCE7346B0020386B00209CD5070065
:10BAD40000800700945A0020E6D90700FE6A00207F
:10BAE400D0D9070043690BB1C068184770470000FC
:10BAF400044B05490022904208BF19460348FDF74C
:10BB04005CB800BF24D6070050D60700B857002001
:10BB140007B5009313460A4601460348FDF751F85A
:10BB240003B05DF804FB00BFB857002013460A4673
:10BB340001460148FDF74CB8B8570020014B187076
:10BB44000B207047406B0020024B002218781A70BB
:10BB5400704700BF406B002018DF704730B585B0D8
:10BB6400054610220C466846002101F0ADFCA408ED
:10BB7400684601950294FFF7EFFF05B030BD1FB58D
:10BB840010220021684601F09FFC022368460093BE
:10BB9400FFF7E2FF05B05DF804FB4FF000534FF4EC
:10BBA40080521A6000207047014B06201B6818471A
:10BBB4004C6B00200A2803D90B38C0B2FFF7BEBF74
:10BBC4007047000030B5054687B00020FDF708F83F
:10BBD400044630B1164A18212846FCF7ADFB07B0DD
:10BBE40030BD01461822684601F06EFC04238DF82E
:10BBF4000030104B196D104B1B68994214D10F4B38
:10BC04000F4C186800F0DCFC8DF80100FFF7D2FF40
:10BC14008DF80100AB68696868469847002CDED04F
:10BC2400204600F0D5F9DAE701238DF80130F1E779
:10BC3400C9BB0700506B0020446B0020486B0020F8
:10BC4400ADBB070070B5044686B0182200216846D3
:10BC540001F03AFC23788DF8003001228DF80120A0
:10BC64000C2B00F28181DFE813F00D0079000F0046
:10BC7400790079007F017900700079006E001C0062
:10BC84002F0074008DF80420A36861686846984703
:10BC94009DF80130012B00F05C819D4B05201B6851
:10BCA40056E14FF08053D3F800210192D3F80421D8
:10BCB4000292D3F80C2192020492D3F8102192023A
:10BCC40003921B690593DFE743F20403914D18685F
:10BCD40091492E6A227C884214BF01230223012E3B
:10BCE40008BF013352B902238DF80430EB68029384
:10BCF4008A4B0393C3F5FC230493C5E7012A12D1AD
:10BD0400884210D14FF440531B78142B8ABF43F25E
:10BD1400140300231B6802934FF48053039343F2EC
:10BD240008031B68E8E79A4209D201238DF804301E
:10BD3400AB68029300F060FAAB690390DCE7FF2381
:10BD44008DF80430A0E7237CFAE7238AADF80430A9
:10BD54009AE76F4B07201B68984795E7062B704AB4
:10BD640001D0012B01D1216911701178012904D06E
:10BD7400022957D0002313709AE0013B072B83D884
:10BD840001A252F823F000BFADBD07008DBC07002F
:10BD94001DBE0700EDBD07008DBC070017BE0700E0
:10BDA4008DBC0700C5BD0700594B03201B6898478D
:10BDB400606900F009FBFFF7FDFE8DF8010063E701
:10BDC400A18A206900F01CFBFFF7F4FE514B8DF8AB
:10BDD4000100DA6B1B6C0293E3680192002B3FF4C1
:10BDE40053AF206998474FE74E494F4800F02EFB68
:10BDF400FFF7E0FE01288DF801007FF445AF002035
:10BE040000F0E6F800283FF43FAF0A238DF8013034
:10BE14003AE74FF4807303933E4BDA6B1B6C019249
:10BE2400029331E7013B072B3FF62EAF01A252F8F4
:10BE340023F000BF59BE07008DBC07000BBF0700ED
:10BE440031BF07008DBC07005BBF07008DBC070036
:10BE5400B9BE070000F0F4FA08B90823D6E762690E
:10BE64000AB90323D2E7C2F30B0333B1294B2D499B
:10BE74005B6D096813448B42F3D1B2F5805F01D93D
:10BE84000423C3E7234B2749586D096815188D42CD
:10BE9400E3D85A64DA6C9A6418651863224B1B68F9
:10BEA400002201211844FFF741FE00283FF4ECAEC4
:10BEB4000523ABE700F0C4FA0028CED0154DA28AC2
:10BEC400696D2B6D5B1A696C13448B42C9D8164B90
:10BED4002E6B18682169E3683044FFF719FE08B136
:10BEE400E3687EE7A18A2B6B0B442B632B6D0B4419
:10BEF4002B6505F148022069FCF75AFC2B6DA864F8
:10BF040002900193C0E6034B9A6C02921B6DF8E712
:10BF14004C6B0020506B0020DBE5B1510080070022
:10BF2400DC570020446B0020486B00200F4B186D39
:10BF34005A6D596C821A8A428FD19A6C58650021C5
:10BF440020465964DA64FFF73DFE094B1B68042060
:10BF5400984706B070BD054B9A6C1B6D01934FF466
:10BF64008053029203938FE602234FE7506B002025
:10BF74004C6B002083681BB1024A1821FCF7DCB922
:10BF84000720704749BC070038B50546C0B10120F9
:10BF9400FFF7AEFD044648B900F0F4F900F050FA9A
:10BFA40030B9084B00201D60FFF7C8FD204638BD9E
:10BFB4000549064800F04AFA0128F2D00324F5E7BF
:10BFC4000724F3E74C6B0020446B0020486B0020EF
:10BFD40070B5154D154906464FF4DC72284601F03C
:10BFE40013FA18B906B1B047002070BD0022012130
:10BFF4000E48FFF79BFD024608B1032070BD58218F
:10C00400281DFCF7D5FB4FF4DC722860294608484C
:10C0140001F030FA33464FF4DC7205490348FFF768
:10C0240077FD0028E9D1DFE7506B002000F007001E
:10C03400086D002038B5FFF75BFD054610B10325F8
:10C04400284638BD104C11494FF4DC72204601F0EB
:10C0540011FA236801330DD14FF4DC7200210A4830
:10C0640001F032FA012300206360FFF7B1FF0028DA
:10C07400E5D1E5E72A465821201DFCF799FB236802
:10C084008342E9D1DCE700BF506B002000F00700D9
:10C0940029DF704738B5044690B10B4DD5F89C3173
:10C0A40001330FD1002218210430FCF781FB214613
:10C0B4002060072205F5CE70BDE83840FFF7E8BFE1
:10C0C4000E2038BD082038BD00F0070008B528B19F
:10C0D4001C22034901F0CEF9002008BD0E2008BD42
:10C0E4009CF1070010B5064C002218212046FCF7ED
:10C0F4005FFB54F8043C1B1A5842584110BD00BF62
:10C10400A0F1070008B50A4BD3F85C21013203D132
:10C11400D3F89C31013309D04FF4FE20FDF71AFE09
:10C12400572203494FF4FE20FDF72CFE002008BDE2
:10C13400506B0020F8B5094E094CA41B0746E408CF
:10C144000025A54201D10020F8BD56F83530384607
:10C1540098470028F8D10135F3E700BF94D50700CC
:10C164009CD50700F8B5094E094CA41B0746E40802
:10C174000025A54201D10020F8BD06EBC5033846D1
:10C184005B6898470028F7D10135F2E794D507009A
:10C194009CD5070008B50C22002101F095F9024B4B
:10C1A40000221A6308BD00BF506B002043F2040351
:10C1B4001A68084B9A4201BF43F20803186800F654
:10C1C400FF7020F47F600CBF20F00F004FF480500C
:10C1D400704700BFDBE5B15108B5FFF7E7FF054B3A
:10C1E4009B69184400F6FF7020F47F6020F00F0074
:10C1F40008BD00BF506B0020FFF7D8BF4FF480503C
:10C204007047000010B50B4C236A012B0DD170B19F
:10C21400E3696BB1FFF7CAFF0022A169FCF7C8FA12
:10C22400E3691B1A5842584110BD002010BD18463E
:10C2340010BD00BF506B00202DE9F74F2D4CDFF8E7
:10C24400C4B001911F46236A0093054616464FF079
:10C25400000943F2040A5FFA89F8B8F1010F22D009
:10C26400B8F1020F2CD0FFF7B7FFD6B1009B013B0A
:10C27400D3F1000E4EEB030E1F4B181AA84201D344
:10C28400019B23B3BEF1000F1FD1B9F1020F04D0FB
:10C2940009F10109B9F1030FDDD1A8421AD2042032
:10C2A40024E0B646E8E7FFF781FF3FB9DAF800304B
:10C2B400B3EB0B0E18BF4FF0010EDDE7BE46DBE714
:10C2C4004FF0010E4FF48050D6E7A842E7D3B8F1FF
:10C2D400000F02D00948FFF75DFF0026012308483C
:10C2E40026616361FFF756FF6562304603B0BDE81F
:10C2F400F08F00BF506B002000500700686B0020D7
:10C30400746B0020DBE5B15130B50D490D4C8A6BDF
:10C3140085B068465C31FDF7EDF99DE80F0084E8CF
:10C324000F00094B094AE36000231360084A0949D6
:10C334001360094A204605B0BDE83040FDF772BCE1
:10C34400506B0020FC70002061C307005C6F00206C
:10C35400586F00206CD90700806F00205B689A68D2
:10C36400054B9A4207D142680449836801320A6046
:10C37400034A013B13607047F0D807005C6F00204C
:10C38400586F002070B50B4D0B4CAB6B83B1FFF7AE
:10C39400BBFF68B16B6A5BB101232370FDF7E0FD5D
:10C3A4004023064A06490748BDE87040FDF72CBD06
:10C3B4000023F2E7506B002094710020A0D70700FF
:10C3C4000C71002070D7070038B5054678B1B0F578
:10C3D400807F0ED8084C094B0021202204F138003C
:10C3E4001970216301F070F8A563012038BD0320A2
:10C3F40038BD042038BD00BF506B0020947100206C
:10C4040070B50E4C0646E06BA36B42189A420D467B
:10C4140011D85C300A462044314601F02BF8E36B16
:10C4240004F140022B4429463046E363FCF7C0F98B
:10C434002064012070BD032070BD00BF506B00203C
:10C44400014B1878704700BF947100202DE9F04F1C
:10C454004D4CE26BA36B9A4285B006460F4640F002
:10C4640087804A4B1A7899464AB1FFF7B5FE306087
:10C47400636A3B600124204605B0BDE8F08FFFF7F6
:10C4840043FF00287ED0424B93F89C401A4614B9CF
:10C494001B78002B76D0002333603B60002C4DD0FA
:10C4A4003C4C92F83831A4F1990520220392002CD7
:10C4B40062D0002B62D103AB0193DFF8FCA0364BB2
:10C4C400364ACDF800A01B68126835493548FDF797
:10C4D4002DFD002854D194F80080B8F1400F4FD1BD
:10C4E400DFF8D8B04246611C584600F0C3FFCDF8CF
:10C4F4000480CDF800B0039B2B492C485246FDF72D
:10C504009FFC00283ED1281D00F014F901280446A0
:10C51400B1D195F8593089F8004093B995F868205D
:10C524007AB1E86E30B30022386001231146FFF778
:10C5340083FEC8B9FFF750FE30609CE723461C4DCC
:10C54400B3E713F0010003D095F85A0000B1E86D89
:10C554009B07E7D595F86030002BE3D0154B6A6E46
:10C56400C3F5FC239A4201D9042484E71044D9E793
:10C57400082480E70F247EE713247CE716247AE757
:10C584000A2478E7052476E7506B00209471002094
:10C59400806F0020B9700020586F00205C6F00206D
:10C5A40090D80700E06E00200C71002098710020E4
:10C5B400846F002000800700606F00205471002009
:10C5C4002DE9F043504BDFF8688193F89C204F4CE1
:10C5D40085B003F1A4050833002A08BF1D4604AB47
:10C5E4004FF0200943F8049D0246019306460B468A
:10C5F4000F46CDF8008046494648FDF797FC0028D1
:10C604007FD14A4605F16F01404600F0FDFE002847
:10C6140077D195F85520002A4BD0D30702F00208B1
:10C6240067D542F204033C4AF358934264D1AA6D9D
:10C6340002F5FF5102F6FF721F31C2F30B028A1A90
:10C6440042F208017158914256D343F2040212682F
:10C654009A4214BF012300231AD14FF440531B788C
:10C66400142B81BF43F2140318682C4BB0FBF3F076
:10C6740006F500531B78142B89BF42F214030023E0
:10C68400F358264A88BFB3FBF2F3C31A18BF012339
:10C694004BB3B8F1000F2FD02148FFF77BFDAC233B
:10C6A400E362AB6D6363B8F1000F07D06B68E360BE
:10C6B40004E06B6822620121E162A360A36CA362BF
:10C6C4006762012520220021164800F0FDFEF422B5
:10C6D400FF21154800F0F8FE002328462363A664D2
:10C6E40005B0BDE8F083B8F1000F14BFAC23A52357
:10C6F400D6E7AA23E362D6E705250C48FFF74AFDEF
:10C70400E0E71725F9E700BF806F0020506B002099
:10C7140090D80700E06E0020DBE5B15140420F00E5
:10C72400686B0020886B0020AC6B0020746B0020C9
:10C73400C06E002090F8543070B51BB190F85520AD
:10C74400032A48D90F2070BD51F8046B2588AE42E6
:10C754005DD10378002B35D0012A43682E4A2BD8AB
:10C764009268934234BF00230123002B14BF01209D
:10C77400102070BD9AB9012BEBD941690029E8D189
:10C7840043F20C0100F114050E88114655F82140BE
:10C79400B442DED00131CCB29C42F7D339E012F17D
:10C7A400FF3318BF0123002B33D0D2E713B1436901
:10C7B400002B2ED10378F6E7D268934294BF00236E
:10C7C4000123D2E7012A14BF0F20012070BD1120DC
:10C7D40070BD142070BD90F86D30032BF9D1037A2D
:10C7E400002BAFD0C368012BF1D143F204031968C5
:10C7F4000A4B9942037CD9D1002BBBD04169002953
:10C80400B8D000F1140101EB830343F20C048B4212
:10C814009AD1122070BD00BF506B0020DBE5B151EE
:10C8240038B1054B0360054B4360012303720020BC
:10C8340070470E20704700BF6BC8070045C807004B
:10C8440069B10B78022B0CD1022804D003280CBF49
:10C8540011200820704703230B70002070470E201E
:10C8640070470820704710B50C4679B10B78042B3B
:10C8740004D8DFE803F00D05030D0D00112010BDF1
:10C88400FFF708FC28B90223237010BD0E2010BD49
:10C89400082010BD38B504468069124B124A10F8BE
:10C8A400025CD21A0C21B2FBF1F245B9206901FBFA
:10C8B40002330C4A934205D10123236038BD4FF063
:10C8C400FF30F4E71168A9420AD1411C05D19568EB
:10C8D40094E80F00A847206038BD51688842F6D01C
:10C8E4000C32E7E7B0D50700BCD507001EF0040FF3
:10C8F4000CBFEFF30880EFF30980FFF7CBBF00BF55
:10C9040010DF704711DF704713B5044609496846C4
:10C91400FCF78EFB019808B902B010BD03684168AA
:10C924002046984718B16846FCF78CFBF2E71120C3
:10C93400F2E700BFF4D9070013B504460749684677
:10C94400FCF776FB019B0BB902B010BD20461A68B8
:10C95400596890476846FCF775FBF3E70CDA070063
:10C964000C4A92F816335B09012B01D9042B08D128
:10C9740042F20200FDF726BB1A6842F480021A60F4
:10C984007047054B99680029F6D14FF48003136072
:10C99400704700BF00E100E068580020064B9A6829
:10C9A40022B11A6822F480021A607047034B4FF4D4
:10C9B4008002C3F8802070476858002000E100E03E
:10C9C400F7B51B4F3C788CBB1A4E012520463570B9
:10C9D400FFF79AFF112826D02046FFF7ADFF164B2C
:10C9E4001868019002A800F8054DFBF7A7FE13494B
:10C9F40001A8FFF785FF0446B0FA80F040093870BB
:10CA04009DF80300FBF7BEFE6CB90D4B34701C702F
:10CA14000C4BE02283F8162383F81523FFF7A0FFBD
:10CA24002846FFF789FF204603B0F0BD0824FAE743
:10CA34009D7100209C710020EED90700C39F070060
:10CA44009E71002000E100E0F7B5154F3B7813B369
:10CA5400144E01203070FFF757FF11284FF00005E6
:10CA64001BD00220FFF768FF02A800F8015DFBF766
:10CA740065FEFFF747FF04469DF807003D70FBF78E
:10CA840081FE2CB93470FFF789FF0320FFF754FFB0
:10CA9400204603B0F0BD0824FAE72C46F8E700BFAF
:10CAA4009D7100209C710020054B1B7833B1054B10
:10CAB4001B780BB1FFF7C8BFFFF782BF0820704790
:10CAC4009C7100209D710020014B1878704700BFB5
:10CAD4009D71002007B508496846FCF7A9FA019B37
:10CAE40013B903B05DF804FB58681A6890476846A8
:10CAF400FCF7A8FAF3E700BF00DA0700FFF7EABF84
:10CB040060DF704769DF704761DF704730B5114DF2
:10CB1400ADF5017D4FF4FA740DF1020103A8ADF8EF
:10CB24000240FFF7F1FF70B9294601A8FCF780FA2B
:10CB3400029B002BF0D003A81A685968904701A8FB
:10CB4400FCF780FAF4E7052801D0FDF73BFA0DF570
:10CB5400017D30BD18DA0700024B1B780BB1FFF7DB
:10CB6400D5BF70479F71002018B1034B03600020AC
:10CB740070470E20704700BFB8570020F0B5074635
:10CB840085B00D4600295FD0304B0B600C2200218C
:10CB940001A800F099FC012606232A68ADF80830A4
:10CBA40001A920208DF804708DF80660FFF7AAFF14
:10CBB4000C22002101A800F087FC00242A688DF8CB
:10CBC400056001A940208DF806408DF80740FFF765
:10CBD40099FF0C22214601A800F076FCF7232A686D
:10CBE400ADF8063001A923208DF80470FFF78AFF01
:10CBF4000C22214601A800F067FC2A688DF8046025
:10CC040001A93046FFF77EFF0C22214601A800F05F
:10CC14005BFC4FF4B0632A68019301A9A120FFF7DC
:10CC240071FF0C22214601A800F04EFC9DF804304F
:10CC34002A6864F3000301A9A0208DF80430FFF7EB
:10CC440061FF204605B0F0BD0E20FBE7B857002079
:10CC540008B5FFF755FF10B9014B01221A7008BD42
:10CC64009F7100204BDF70471FB50D4C01A8FFF7E3
:10CC7400F9FF70B9214602A8FCF7DAF9039B002BEF
:10CC8400F4D001981A685968904702A8FCF7DAF9B9
:10CC9400F4E7052801D0FDF795F904B010BD00BFF5
:10CCA40024DA0700BFF34F8F0549064BCA6802F424
:10CCB400E0621343CB60BFF34F8F00BFFDE700BFBB
:10CCC40000ED00E00400FA0541DF704708B5FFF706
:10CCD400E9FF0000C31E10B50446042B08D8DFE8A2
:10CCE40003F00303070E0E000649074800F04AF953
:10CCF400064B1B682BB12046BDE810401847FFF7D0
:10CD0400D1FF10BDD1CC0700C0D40100C0750020F4
:10CD1400002070473D4B10B518600020FFF78AF9DA
:10CD2400044630B900F00EFA01282DD003D30228AE
:10CD34002CD0032010BD4FF08043D3F8000410F42E
:10CD4400803014D04FF48032C3F800242046FFF71B
:10CD540059FA50B14FF08043D3F81C3513F0B10F9A
:10CD640003D12B4B9B6D012B48D12A4C10E0D3F8F7
:10CD7400202512F0A90F1DBFD3F8202502F056027A
:10CD8400C3F820250120E2E7FFF78CFF42F210747C
:10CD940000F05CFA204A20211820FBF7A9FA08B118
:10CDA400FDF710F94FF08043D3F81C2512F0B10FB2
:10CDB4001EBFD3F81C2502F04E02C3F81C25144BE9
:10CDC4009A6D012A06D100209865FFF701F908B190
:10CDD400FDF7F8F8FFF79CFF0028AAD120460F4979
:10CDE40000F0D0F80E48FEF77DFA0028A1D100F03B
:10CDF40061FAFBF707FBFFF767FFF8E7FFF782F934
:10CE0400002896D100F00EF893E700BFC07500200B
:10CE1400506B0020C0D40100A0710020D1CC0700C9
:10CE2400D9CC070008B5094B4FF0FF32C3F8802076
:10CE3400C3F88021C3F88420C3F88421FEF7ADFE33
:10CE44004FF48050BDE8084000F02EB800E100E047
:10CE5400C1F30B0330B52BBBB0F5FE2F22D8000B6A
:10CE6400013900EB113101254FF08042814201D29A
:10CE7400002030BD00F01F03440905FA03F3032C1E
:10CE840005D8DFE804F00206090CC2F800360130C8
:10CE9400ECE7C2F80436FAE7C2F81036F7E7C2F84E
:10CEA4001436F4E7072030BD30B505461B4889B079
:10CEB4000022C0F5FE21FFF7CBFFEFF3058200232C
:10CEC4002C68696883F3148883F3108883F31188CA
:10CED40083F31388C2F308023AB984F308884FF045
:10CEE400FF339E46084709B030BD203C00930193B0
:10CEF40002930393049306914FF080734FF0FF3530
:10CF04002022694620460595079300F0B3FA84F37E
:10CF14000888AE466FF006031847E4E70080070070
:10CF240000B100477047000010B5114C2278B2B927
:10CF34004FF08043D3F81824D10311D5FBF7A6FB97
:10CF440008B1FDF73FF80B4A0B480021FBF7C8FB7B
:10CF5400084A0A480121FBF7C3FB0123237010BDD3
:10CF6400074A01211160D3F81824D203FBD5E5E761
:10CF7400C475002025CF070030DA070034DA070033
:10CF84000800004070B504460D46FFF7CDFF0C487D
:10CF9400FBF7CEFB94B14FF400464FF4FA70002136
:10CFA4004FF47A72E6FB0401002300F0C5F92A4627
:10CFB4000146BDE870400248FBF79EBB70BD00BF50
:10CFC400C875002070B504460D46FFF7ADFF0C4848
:10CFD400FBF7AEFB94B14FF400464FF4FA70002116
:10CFE4004FF47A72E6FB0401002300F0A5F92A4607
:10CFF4000146BDE870400248FBF77EBB70BD00BF30
:10D00400E0750020014B01221A707047F87500206A
:10D0140038B5104BDA6A5D6A9C6CAC2A09D15B6B3B
:10D024000D481C44ED1A2A46A4F5804100F0ECF9A1
:10D0340068B12A462146084800F0E6F938B100F004
:10D0440039F929462046BDE83840FEF787BD00205F
:10D0540038BD00BF506B0020008007002DE9F74F5A
:10D0640080468946A9EB0804240B02F6FF76154690
:10D0740000F0ECF8082C28BF08242303DFF860B084
:10D084000193360B0DB92B4626E0B4422CBFB246B1
:10D09400A2464FF00002514640462CBF2F46019F46
:10D0A400FEF744FD0346B8B9FA1C22F003024946D0
:10D0B4004046FEF72DFD034670B9DBF83030ED1B1A
:10D0C400B844B9441F44CBF83070FEF781FFA6EB97
:10D0D4000A0603460028D5D0184603B0BDE8F08FF1
:10D0E400506B002010B5FFF789F8154A42F204038B
:10D0F400916CCC5803F1A34303F5471303F2D753C0
:10D104009C4218D1136B526B934216D018441944A5
:10D11400884204D10020BDE81040FEF759BFD21A5E
:10D1240002F6FF7222F47F6222F00F02FFF796FFED
:10D134000028EFD010BD032010BD0020FAE700BF87
:10D14400506B002070B5264CE36AA52B32D003D86F
:10D15400012B0BD0002070BDAA2B2FD0AC2BF9D102
:10D16400FFF7C0FF40BBFFF753FF25E0A56C666ADD
:10D17400FFF71CF8226B1044A91888422AD1FFF744
:10D1840015F800223146FBF713FBA36A984201BF4E
:10D1940001232362E061A66100241248FEF7FAFF2E
:10D1A400114B124800221A70FEF712FF80B944B9DD
:10D1B400012070BDFFF796FF0124EEE7FFF728FF7B
:10D1C400EAE70120FFF71EF80028F1D0022070BD25
:10D1D400032070BDB21AFFF741FF0028DCD1CEE76F
:10D1E400506B0020746B0020F875002009D00700F4
:10D1F4000A4AD2F800347BB109480023D2F8081552
:10D20400D940C90748BF03F5C07103F1010348BF02
:10D2140042F82100072BF1D1704700BF0000014004
:10D224003546526E024B1B780BB1FFF7E1BF7047D6
:10D23400FA750020044B00221A6082B01B68019327
:10D24400019B02B0704700BF00010140F8B5144FC4
:10D254003A7822BB134DD5F80034F3B1D5F8044520
:10D26400114B640904EB4404A40842F20F76B4425F
:10D274008CBF002201221A70FFF7BAFFB4428CBFA0
:10D28400D5F80C350123DB0703D508492046FFF701
:10D2940099FE074B4FF480321A6001233B70F8BDAE
:10D2A400F975002000000140FA75002029D207001A
:10D2B40000E100E0034BD3F800340BB1FFF798BF53
:10D2C400704700BF000001404FF0A0430322C3F8A1
:10D2D4005C2770474FF0A043D3F80405C0F3C05057
:10D2E4007047000010B5FFF7F5FF68B14FF0A04399
:10D2F4004FF40002C3F80C25044B4FF4FA4043F0FA
:10D304000103BDE81040184710BD00BF40DA070014
:10D31400B2F120030AD5C2F1200301FA02F120FA86
:10D3240003F341EA030100FA02F0704700FA03F143
:10D334004FF00000704700BF53EA020C61D02DE9A2
:10D34400F04BB3FA83F51E0007BFB2FA82F502FA76
:10D3540005F403FA05F41646C5F120051EBF22FAAA
:10D3640005F73C43203556EA044C4FEA144418BFF1
:10D374000134A3464FF00009C846904271EB030CF8
:10D3840039D3094207BFB0FA80F700FA07F6B1FAB9
:10D3940081F701FA07F6C7F120071EBF20FA07FC40
:10D3A40046EA0C062037B6FBFBFC7F1B103F07F058
:10D3B4001F04C4F120060CFA04F42CFA06F644BF48
:10D3C40034460026202FA4BF2646002454EA060C27
:10D3D40008BF012418EB040849EB0609A4FB027CEE
:10D3E400C01B06FB02CC04FB03CC71EB0C01904286
:10D3F40071EB030CC5D20B46024649464046BDE8D4
:10D40400F08BB2FBF3F200BF8AB370B4144640EA67
:10D41400010313F0030F12D10F2A10D902680B680D
:10D424009A420CD1021D0B1D10461946043C042CD3
:10D4340005D90432043306680D68AE42F4D0013CC9
:10D4440010D002780B789A420CD1431C4A1C044435
:10D4540018461146A34205D00133013206780D78EF
:10D46400AE42F5D000780B78C01A70BC704700202B
:10D4740070470000844640EA010313F0030F18D1FB
:10D484008446202A0BD32DE9F007B1E8F807A0E879
:10D49400F807A2F12002202AF7D2BDE8F007042AF7
:10D4A40007D351F8043B40F8043BA2F10402042AD8
:10D4B400F7D2002A05D011F8013B00F8013B013AEC
:10D4C400F9D16046704700BF8446002A2DD010F081
:10D4D400030F04D000F8011B013A26D0F7E7C9B2C4
:10D4E40041EA012141EA0141202A12D3A2F120029A
:10D4F4002DE9F0030B460C460D460E460F468846B2
:10D504008946A0E8FA03203AFBD2BDE8F0032032B2
:10D514000BD0042A05D340F8041B043A05D0042A8E
:10D52400F9D200F8011B013AFBD16046704700BFF5
:10D5340000F1010110F0030F11D010F8012B002AA3
:10D5440023D010F0030F0AD010F8012B002A1CD0AE
:10D5540010F0030F03D010F8012B002A15D02DE989
:10D5640070004FF001324FF0803350F8044BA4EBBD
:10D57400020525EA04051D4000D1F6E7A0F10400E8
:10D5840070BC10F8012B002AFBD1A0EB01007047FE
:08D59400F1B9070041B70700DF
:10D59C00B05A0020EC6A0020FD6A0020B85A002026
:04D5AC00F400000087
:0CD5B000000000000300000025C8070078
:08D5BC0055B407000000000057
:08D5C400598F07000000000070
:10D5CC005DCB0700000000006DCC070000000000E0
:08D5DC00998D0700000000001A
:08D5E400B58E070000000000F5
:10D5EC000000000000000000E9BA07000010000075
:04D5FC000000080023
:10D6000000000000F45700206D84070000000000B7
:10D610000338FDD87047000000100000040000002F
:10D62000010000002D8C0700518C0700618C070061
:10D63000D18C0700718C0700398C07003D8C0700E6
:10D64000418C0700001000000400000001000000F1
:10D65000DD8D0700BD8D0700AD8D0700E58F07004C
:10D66000998F0700818D0700858D0700898D070040
:10D67000982F8A4291443771CFFBC0B5A5DBB5E93D
:10D680005BC25639F111F159A4823F92D55E1CABB1
:10D6900098AA07D8015B8312BE853124C37D0C553F
:10D6A000745DBE72FEB1DE80A706DC9B74F19BC187
:10D6B000C1699BE48647BEEFC69DC10FCCA10C2477
:10D6C0006F2CE92DAA84744ADCA9B05CDA88F9765B
:10D6D00052513E986DC631A8C82703B0C77F59BFC5
:10D6E000F30BE0C64791A7D55163CA0667292914F1
:10D6F000850AB72738211B2EFC6D2C4D130D38538E
:10D7000054730A65BB0A6A762EC9C281852C72924F
:10D71000A1E8BFA24B661AA8708B4BC2A3516CC77D
:10D7200019E892D1240699D685350EF470A06A10B6
:10D7300016C1A419086C371E4C774827B5BCB03405
:10D74000B30C1C394AAAD84E4FCA9C5BF36F2E68A3
:10D75000EE828F746F63A5781478C8840802C78C32
:10D76000FAFFBE90EB6C50A4F7A3F9BEF27871C635
:10D770002800480000204000E1AC0700CB970700DC
:10D780006F970700AF9C0700219D0700419D070090
:10D79000B99607007D960700479C0700000000002F
:10D7A0007784E68F98DBA1934A741D8AE536A7E655
:10D7B0006F19AABC66F89197E30E3D2429E22C5E0E
:10D7C0007EA678312412F49D4C7E86538F13D2347A
:10D7D000E4FE997A7C20F1E81D4DB74A5D4C414446
:10D7E00008200001FFFFFFFFFFFFFFFFFFFFFFFF1C
:10D7F0000000000000000000000000000100000028
:10D80000FFFFFFFF512563FCC2CAB9F3849E17A72F
:10D81000ADFAE6BCFFFFFFFFFFFFFFFF00000000C7
:10D82000FFFFFFFF96C298D84539A1F4A033EB2D36
:10D83000817D0377F240A463E5E6BCF847422CE122
:10D84000F2D1176BF551BF376840B6CBCE5E316B66
:10D850005733CE2B169E0F7C4AEBE78E9B7F1AFE2A
:10D86000E242E34F4B60D2273E3CCE3BF6B053CC76
:10D87000B0061D65BC86987655BDEBB3E7933AAA12
:10D88000D835C65AB3A6070005A8070069A807003F
:10D89000BFB20700B9B2070099B20700200000002C
:10D8A0007800000000000000011101FF01000000ED
:10D8B00000000000021702FE94000000F0D80700EC
:10D8C0000000000000000000000000000101000056
:10D8D000010000000000000002050000210000001F
:10D8E0000000000000000000000000000000000038
:10D8F000011104FC0400000000000000021104FCFF
:10D900000400000000000000032104FC04100000DB
:10D9100000000000041101FF0100000000000000F1
:10D92000051102FE0400000000000000061104FCC6
:10D930000400000000000000071104FC04000000C7
:10D9400000000000081701FF22000000CCD80700EB
:10D95000091001FF0100000068D907000000000065
:10D96000000000000000000000000000011704FC9F
:10D9700098000000A8D80700021704FCDC00000093
:10D9800090D9070000000000000000000000000027
:10D990000107000098000000A8D80700020100005D
:10D9A000010000000000000003050000410000002D
:10D9B0000000000000000000000000000000000067
:10D9C00050EADA308883B89F604F15F30000C98EA3
:10D9D000456C6C69652D4446550000000000000050
:10D9E0000338FDD870470C000C00000058020100FD
:10D9F00000070000DCD50700E4D5070008000000A0
:10DA0000CCD50700DCD5070008000000C4D507000E
:10DA1000CCD5070008000000BCD50700C4D507001E
:10DA200008000000E4D50700ECD50700080000005E
:10DA3000C8750020E0750020000000000000000014
:06DA40000338FDD8704719
:10DA480000100140110004000090D003FF00FFFF08
:01DA580001CC
:020000020000FC
:020000041000EA
:041014000080070051
:0410180000E00700ED
:040000037000823DCA
:00000001FF
